{
  "_format": "hh-sol-artifact-1",
  "contractName": "Womdo",
  "sourceName": "contracts/Womdo.sol",
  "abi": [
    {
      "inputs": [
        {
          "internalType": "address",
          "name": "router",
          "type": "address"
        },
        {
          "internalType": "bytes32",
          "name": "_donId",
          "type": "bytes32"
        },
        {
          "internalType": "address",
          "name": "_udst",
          "type": "address"
        }
      ],
      "stateMutability": "nonpayable",
      "type": "constructor"
    },
    {
      "inputs": [],
      "name": "EmptySource",
      "type": "error"
    },
    {
      "inputs": [],
      "name": "NoInlineSecrets",
      "type": "error"
    },
    {
      "inputs": [],
      "name": "OnlyRouterCanFulfill",
      "type": "error"
    },
    {
      "anonymous": false,
      "inputs": [
        {
          "indexed": false,
          "internalType": "uint256",
          "name": "adId",
          "type": "uint256"
        },
        {
          "indexed": false,
          "internalType": "address",
          "name": "influencer",
          "type": "address"
        },
        {
          "indexed": false,
          "internalType": "address[]",
          "name": "acceptedUserAddress",
          "type": "address[]"
        }
      ],
      "name": "AdAccepted",
      "type": "event"
    },
    {
      "anonymous": false,
      "inputs": [
        {
          "indexed": false,
          "internalType": "uint256",
          "name": "adId",
          "type": "uint256"
        },
        {
          "indexed": false,
          "internalType": "uint256",
          "name": "totalUsers",
          "type": "uint256"
        },
        {
          "indexed": false,
          "internalType": "uint256",
          "name": "usdtAmount",
          "type": "uint256"
        },
        {
          "indexed": false,
          "internalType": "address",
          "name": "brandAddress",
          "type": "address"
        },
        {
          "indexed": false,
          "internalType": "string",
          "name": "productName",
          "type": "string"
        }
      ],
      "name": "AdRegistered",
      "type": "event"
    },
    {
      "anonymous": false,
      "inputs": [
        {
          "indexed": false,
          "internalType": "uint256",
          "name": "adId",
          "type": "uint256"
        },
        {
          "indexed": false,
          "internalType": "address",
          "name": "influencer",
          "type": "address"
        },
        {
          "indexed": false,
          "internalType": "uint256",
          "name": "share",
          "type": "uint256"
        }
      ],
      "name": "Claimed",
      "type": "event"
    },
    {
      "anonymous": false,
      "inputs": [
        {
          "indexed": true,
          "internalType": "address",
          "name": "from",
          "type": "address"
        },
        {
          "indexed": true,
          "internalType": "address",
          "name": "to",
          "type": "address"
        }
      ],
      "name": "OwnershipTransferRequested",
      "type": "event"
    },
    {
      "anonymous": false,
      "inputs": [
        {
          "indexed": true,
          "internalType": "address",
          "name": "from",
          "type": "address"
        },
        {
          "indexed": true,
          "internalType": "address",
          "name": "to",
          "type": "address"
        }
      ],
      "name": "OwnershipTransferred",
      "type": "event"
    },
    {
      "anonymous": false,
      "inputs": [
        {
          "indexed": true,
          "internalType": "bytes32",
          "name": "id",
          "type": "bytes32"
        }
      ],
      "name": "RequestFulfilled",
      "type": "event"
    },
    {
      "anonymous": false,
      "inputs": [
        {
          "indexed": true,
          "internalType": "bytes32",
          "name": "id",
          "type": "bytes32"
        }
      ],
      "name": "RequestSent",
      "type": "event"
    },
    {
      "inputs": [],
      "name": "USDT",
      "outputs": [
        {
          "internalType": "contract IERC20Metadata",
          "name": "",
          "type": "address"
        }
      ],
      "stateMutability": "view",
      "type": "function"
    },
    {
      "inputs": [
        {
          "internalType": "uint256",
          "name": "_adId",
          "type": "uint256"
        }
      ],
      "name": "acceptAd",
      "outputs": [],
      "stateMutability": "nonpayable",
      "type": "function"
    },
    {
      "inputs": [],
      "name": "acceptOwnership",
      "outputs": [],
      "stateMutability": "nonpayable",
      "type": "function"
    },
    {
      "inputs": [
        {
          "internalType": "address",
          "name": "",
          "type": "address"
        },
        {
          "internalType": "uint256",
          "name": "",
          "type": "uint256"
        },
        {
          "internalType": "uint256",
          "name": "",
          "type": "uint256"
        }
      ],
      "name": "acceptedUserAddress",
      "outputs": [
        {
          "internalType": "address",
          "name": "",
          "type": "address"
        }
      ],
      "stateMutability": "view",
      "type": "function"
    },
    {
      "inputs": [
        {
          "internalType": "uint256",
          "name": "",
          "type": "uint256"
        }
      ],
      "name": "adOwner",
      "outputs": [
        {
          "internalType": "address",
          "name": "",
          "type": "address"
        }
      ],
      "stateMutability": "view",
      "type": "function"
    },
    {
      "inputs": [
        {
          "internalType": "uint256",
          "name": "_adId",
          "type": "uint256"
        }
      ],
      "name": "claim",
      "outputs": [],
      "stateMutability": "nonpayable",
      "type": "function"
    },
    {
      "inputs": [],
      "name": "donId",
      "outputs": [
        {
          "internalType": "bytes32",
          "name": "",
          "type": "bytes32"
        }
      ],
      "stateMutability": "view",
      "type": "function"
    },
    {
      "inputs": [
        {
          "internalType": "bytes",
          "name": "response",
          "type": "bytes"
        }
      ],
      "name": "fulfillRequestLocal",
      "outputs": [],
      "stateMutability": "nonpayable",
      "type": "function"
    },
    {
      "inputs": [
        {
          "internalType": "bytes32",
          "name": "requestId",
          "type": "bytes32"
        },
        {
          "internalType": "bytes",
          "name": "response",
          "type": "bytes"
        },
        {
          "internalType": "bytes",
          "name": "err",
          "type": "bytes"
        }
      ],
      "name": "handleOracleFulfillment",
      "outputs": [],
      "stateMutability": "nonpayable",
      "type": "function"
    },
    {
      "inputs": [
        {
          "internalType": "uint256",
          "name": "",
          "type": "uint256"
        },
        {
          "internalType": "uint256",
          "name": "",
          "type": "uint256"
        }
      ],
      "name": "influencerShare",
      "outputs": [
        {
          "internalType": "uint256",
          "name": "",
          "type": "uint256"
        }
      ],
      "stateMutability": "view",
      "type": "function"
    },
    {
      "inputs": [
        {
          "internalType": "address",
          "name": "",
          "type": "address"
        },
        {
          "internalType": "uint256",
          "name": "",
          "type": "uint256"
        }
      ],
      "name": "isInfluencerAccepted",
      "outputs": [
        {
          "internalType": "bool",
          "name": "",
          "type": "bool"
        }
      ],
      "stateMutability": "view",
      "type": "function"
    },
    {
      "inputs": [],
      "name": "owner",
      "outputs": [
        {
          "internalType": "address",
          "name": "",
          "type": "address"
        }
      ],
      "stateMutability": "view",
      "type": "function"
    },
    {
      "inputs": [
        {
          "internalType": "uint256",
          "name": "_users",
          "type": "uint256"
        },
        {
          "internalType": "uint256",
          "name": "_usdtAmount",
          "type": "uint256"
        },
        {
          "internalType": "string",
          "name": "_productName",
          "type": "string"
        }
      ],
      "name": "registerAd",
      "outputs": [],
      "stateMutability": "nonpayable",
      "type": "function"
    },
    {
      "inputs": [
        {
          "internalType": "uint256",
          "name": "",
          "type": "uint256"
        }
      ],
      "name": "returnedArray",
      "outputs": [
        {
          "internalType": "uint256",
          "name": "",
          "type": "uint256"
        }
      ],
      "stateMutability": "view",
      "type": "function"
    },
    {
      "inputs": [],
      "name": "s_lastRequestId",
      "outputs": [
        {
          "internalType": "bytes32",
          "name": "",
          "type": "bytes32"
        }
      ],
      "stateMutability": "view",
      "type": "function"
    },
    {
      "inputs": [
        {
          "internalType": "string",
          "name": "source",
          "type": "string"
        },
        {
          "internalType": "enum FunctionsRequest.Location",
          "name": "secretsLocation",
          "type": "uint8"
        },
        {
          "internalType": "bytes",
          "name": "encryptedSecretsReference",
          "type": "bytes"
        },
        {
          "internalType": "string[]",
          "name": "args",
          "type": "string[]"
        },
        {
          "internalType": "bytes[]",
          "name": "bytesArgs",
          "type": "bytes[]"
        },
        {
          "internalType": "uint64",
          "name": "subscriptionId",
          "type": "uint64"
        },
        {
          "internalType": "uint32",
          "name": "callbackGasLimit",
          "type": "uint32"
        }
      ],
      "name": "sendRequest",
      "outputs": [],
      "stateMutability": "nonpayable",
      "type": "function"
    },
    {
      "inputs": [
        {
          "internalType": "bytes32",
          "name": "newDonId",
          "type": "bytes32"
        }
      ],
      "name": "setDonId",
      "outputs": [],
      "stateMutability": "nonpayable",
      "type": "function"
    },
    {
      "inputs": [],
      "name": "totalAds",
      "outputs": [
        {
          "internalType": "uint256",
          "name": "",
          "type": "uint256"
        }
      ],
      "stateMutability": "view",
      "type": "function"
    },
    {
      "inputs": [
        {
          "internalType": "address",
          "name": "to",
          "type": "address"
        }
      ],
      "name": "transferOwnership",
      "outputs": [],
      "stateMutability": "nonpayable",
      "type": "function"
    },
    {
      "inputs": [
        {
          "internalType": "address",
          "name": "",
          "type": "address"
        },
        {
          "internalType": "uint256",
          "name": "",
          "type": "uint256"
        }
      ],
      "name": "userAds",
      "outputs": [
        {
          "internalType": "uint256",
          "name": "totalUsers",
          "type": "uint256"
        },
        {
          "internalType": "uint256",
          "name": "usdtAmount",
          "type": "uint256"
        }
      ],
      "stateMutability": "view",
      "type": "function"
    }
  ],
  "bytecode": "0x60a06040523480156200001157600080fd5b506040516200402f3803806200402f833981810160405281019062000037919062000392565b33806000858073ffffffffffffffffffffffffffffffffffffffff1660808173ffffffffffffffffffffffffffffffffffffffff168152505050600073ffffffffffffffffffffffffffffffffffffffff168273ffffffffffffffffffffffffffffffffffffffff1603620000e3576040517f08c379a0000000000000000000000000000000000000000000000000000000008152600401620000da906200044f565b60405180910390fd5b816000806101000a81548173ffffffffffffffffffffffffffffffffffffffff021916908373ffffffffffffffffffffffffffffffffffffffff160217905550600073ffffffffffffffffffffffffffffffffffffffff168173ffffffffffffffffffffffffffffffffffffffff16146200016a576200016981620001be60201b60201c565b5b5050508160028190555080600660006101000a81548173ffffffffffffffffffffffffffffffffffffffff021916908373ffffffffffffffffffffffffffffffffffffffff160217905550505050620004e3565b3373ffffffffffffffffffffffffffffffffffffffff168173ffffffffffffffffffffffffffffffffffffffff16036200022f576040517f08c379a00000000000000000000000000000000000000000000000000000000081526004016200022690620004c1565b60405180910390fd5b80600160006101000a81548173ffffffffffffffffffffffffffffffffffffffff021916908373ffffffffffffffffffffffffffffffffffffffff1602179055508073ffffffffffffffffffffffffffffffffffffffff1660008054906101000a900473ffffffffffffffffffffffffffffffffffffffff1673ffffffffffffffffffffffffffffffffffffffff167fed8889f560326eb138920d842192f0eb3dd22b4f139c87a2c57538e05bae127860405160405180910390a350565b600080fd5b600073ffffffffffffffffffffffffffffffffffffffff82169050919050565b60006200031f82620002f2565b9050919050565b620003318162000312565b81146200033d57600080fd5b50565b600081519050620003518162000326565b92915050565b6000819050919050565b6200036c8162000357565b81146200037857600080fd5b50565b6000815190506200038c8162000361565b92915050565b600080600060608486031215620003ae57620003ad620002ed565b5b6000620003be8682870162000340565b9350506020620003d1868287016200037b565b9250506040620003e48682870162000340565b9150509250925092565b600082825260208201905092915050565b7f43616e6e6f7420736574206f776e657220746f207a65726f0000000000000000600082015250565b600062000437601883620003ee565b91506200044482620003ff565b602082019050919050565b600060208201905081810360008301526200046a8162000428565b9050919050565b7f43616e6e6f74207472616e7366657220746f2073656c66000000000000000000600082015250565b6000620004a9601783620003ee565b9150620004b68262000471565b602082019050919050565b60006020820190508181036000830152620004dc816200049a565b9050919050565b608051613b2962000506600039600081816103d401526117720152613b296000f3fe608060405234801561001057600080fd5b506004361061012c5760003560e01c80638da5cb5b116100ad578063c54e44eb11610071578063c54e44eb1461032e578063c5557a311461034c578063f2fde38b14610368578063f65bcfd614610384578063f9a99b58146103a25761012c565b80638da5cb5b146102885780638dbe7b9d146102a6578063b1e21749146102c4578063bbe7df2c146102e2578063c4b161a5146103125761012c565b80633db08f4e116100f45780633db08f4e146101e65780636caeea7b1461021657806378ca5de71461023257806379ba50971461024e5780637ce9a823146102585761012c565b80630ca761751461013157806318a81ebf1461014d578063231c16191461017e5780632e8619f21461019a578063379607f5146101ca575b600080fd5b61014b6004803603810190610146919061250a565b6103d2565b005b61016760048036038101906101629190612629565b610494565b604051610175929190612678565b60405180910390f35b610198600480360381019061019391906128a4565b6104c5565b005b6101b460048036038101906101af91906129c8565b6105d8565b6040516101c19190612a08565b60405180910390f35b6101e460048036038101906101df9190612a23565b610609565b005b61020060048036038101906101fb9190612a23565b6109b1565b60405161020d9190612a5f565b60405180910390f35b610230600480360381019061022b9190612a23565b6109e4565b005b61024c60048036038101906102479190612a7a565b610b75565b005b610256610b87565b005b610272600480360381019061026d9190612aa7565b610d1c565b60405161027f9190612a5f565b60405180910390f35b610290610d77565b60405161029d9190612a5f565b60405180910390f35b6102ae610da0565b6040516102bb9190612b09565b60405180910390f35b6102cc610da6565b6040516102d99190612b09565b60405180910390f35b6102fc60048036038101906102f79190612629565b610dac565b6040516103099190612b3f565b60405180910390f35b61032c60048036038101906103279190612b5a565b610ddb565b005b610336610e3b565b6040516103439190612c02565b60405180910390f35b61036660048036038101906103619190612cbe565b610e61565b005b610382600480360381019061037d9190612d2d565b611183565b005b61038c611197565b6040516103999190612a08565b60405180910390f35b6103bc60048036038101906103b79190612a23565b61119d565b6040516103c99190612a08565b60405180910390f35b7f000000000000000000000000000000000000000000000000000000000000000073ffffffffffffffffffffffffffffffffffffffff163373ffffffffffffffffffffffffffffffffffffffff1614610457576040517fc6829f8300000000000000000000000000000000000000000000000000000000815260040160405180910390fd5b6104628383836111c1565b827f85e1543bf2f84fe80c6badbce3648c8539ad1df4d2b3d822938ca0538be727e660405160405180910390a2505050565b6007602052816000526040600020602052806000526040600020600091509150508060000154908060010154905082565b6104cd611223565b6104d5612264565b6105316000808e8e8080601f016020809104026020016040519081016040528093929190818152602001838380828437600081840152601f19601f82011690508083019250505050505050846112b3909392919063ffffffff16565b898160200190600281111561054957610548612d5a565b5b9081600281111561055d5761055c612d5a565b5b8152505088888080601f016020809104026020016040519081016040528093929190818152602001838380828437600081840152601f19601f8201169050808301925050505050505081608001819052506105c46105ba8261135d565b848460025461176d565b600381905550505050505050505050505050565b600b60205281600052604060002081815481106105f457600080fd5b90600052602060002001600091509150505481565b600a60003373ffffffffffffffffffffffffffffffffffffffff1673ffffffffffffffffffffffffffffffffffffffff168152602001908152602001600020600082815260200190815260200160002060009054906101000a900460ff166106a6576040517f08c379a000000000000000000000000000000000000000000000000000000000815260040161069d90612e0c565b60405180910390fd5b6000600760006009600085815260200190815260200160002060009054906101000a900473ffffffffffffffffffffffffffffffffffffffff1673ffffffffffffffffffffffffffffffffffffffff1673ffffffffffffffffffffffffffffffffffffffff16815260200190815260200160002060008381526020019081526020016000209050600080600860006009600087815260200190815260200160002060009054906101000a900473ffffffffffffffffffffffffffffffffffffffff1673ffffffffffffffffffffffffffffffffffffffff1673ffffffffffffffffffffffffffffffffffffffff168152602001908152602001600020600085815260200190815260200160002080548060200260200160405190810160405280929190818152602001828054801561083357602002820191906000526020600020905b8160009054906101000a900473ffffffffffffffffffffffffffffffffffffffff1673ffffffffffffffffffffffffffffffffffffffff16815260200190600101908083116107e9575b5050505050905060005b81518110156108a8573373ffffffffffffffffffffffffffffffffffffffff168282815181106108705761086f612e2c565b5b602002602001015173ffffffffffffffffffffffffffffffffffffffff160361089b578092506108a8565b808060010191505061083d565b506000600b600086815260200190815260200160002083815481106108d0576108cf612e2c565b5b9060005260206000200154905060006127108286600101546108f29190612e8a565b6108fc9190612efb565b905060008111610941576040517f08c379a000000000000000000000000000000000000000000000000000000000815260040161093890612f78565b60405180910390fd5b61096e600660009054906101000a900473ffffffffffffffffffffffffffffffffffffffff163383611850565b7f4ec90e965519d92681267467f775ada5bd214aa92c0dc93d90a5e880ce9ed0268633836040516109a193929190612f98565b60405180910390a1505050505050565b60096020528060005260406000206000915054906101000a900473ffffffffffffffffffffffffffffffffffffffff1681565b6000600860006009600085815260200190815260200160002060009054906101000a900473ffffffffffffffffffffffffffffffffffffffff1673ffffffffffffffffffffffffffffffffffffffff1673ffffffffffffffffffffffffffffffffffffffff1681526020019081526020016000206000838152602001908152602001600020905080339080600181540180825580915050600190039060005260206000200160009091909190916101000a81548173ffffffffffffffffffffffffffffffffffffffff021916908373ffffffffffffffffffffffffffffffffffffffff1602179055506001600a60003373ffffffffffffffffffffffffffffffffffffffff1673ffffffffffffffffffffffffffffffffffffffff168152602001908152602001600020600084815260200190815260200160002060006101000a81548160ff0219169083151502179055507f968b44e13aaad0a789bca6c4caaa558140a747be9a5bd316c2f5ec2dc55b2f07823383604051610b69939291906130f3565b60405180910390a15050565b610b7d611223565b8060028190555050565b600160009054906101000a900473ffffffffffffffffffffffffffffffffffffffff1673ffffffffffffffffffffffffffffffffffffffff163373ffffffffffffffffffffffffffffffffffffffff1614610c17576040517f08c379a0000000000000000000000000000000000000000000000000000000008152600401610c0e9061317d565b60405180910390fd5b60008060009054906101000a900473ffffffffffffffffffffffffffffffffffffffff169050336000806101000a81548173ffffffffffffffffffffffffffffffffffffffff021916908373ffffffffffffffffffffffffffffffffffffffff1602179055506000600160006101000a81548173ffffffffffffffffffffffffffffffffffffffff021916908373ffffffffffffffffffffffffffffffffffffffff1602179055503373ffffffffffffffffffffffffffffffffffffffff168173ffffffffffffffffffffffffffffffffffffffff167f8be0079c531659141344cd1fd0a4f28419497f9722a3daafe3b4186f6b6457e060405160405180910390a350565b60086020528260005260406000206020528160005260406000208181548110610d4457600080fd5b90600052602060002001600092509250509054906101000a900473ffffffffffffffffffffffffffffffffffffffff1681565b60008060009054906101000a900473ffffffffffffffffffffffffffffffffffffffff16905090565b60025481565b60035481565b600a6020528160005260406000206020528060005260406000206000915091509054906101000a900460ff1681565b6000610de682611986565b905080600b60008360018551610dfc919061319d565b81518110610e0d57610e0c612e2c565b5b602002602001015181526020019081526020016000209080519060200190610e369291906122d6565b505050565b600660009054906101000a900473ffffffffffffffffffffffffffffffffffffffff1681565b81600660009054906101000a900473ffffffffffffffffffffffffffffffffffffffff1673ffffffffffffffffffffffffffffffffffffffff166370a08231336040518263ffffffff1660e01b8152600401610ebd9190612a5f565b602060405180830381865afa158015610eda573d6000803e3d6000fd5b505050506040513d601f19601f82011682018060405250810190610efe91906131e6565b1015610f3f576040517f08c379a0000000000000000000000000000000000000000000000000000000008152600401610f3690613285565b60405180910390fd5b81600660009054906101000a900473ffffffffffffffffffffffffffffffffffffffff1673ffffffffffffffffffffffffffffffffffffffff1663dd62ed3e33306040518363ffffffff1660e01b8152600401610f9d9291906132a5565b602060405180830381865afa158015610fba573d6000803e3d6000fd5b505050506040513d601f19601f82011682018060405250810190610fde91906131e6565b101561101f576040517f08c379a000000000000000000000000000000000000000000000000000000000815260040161101690613340565b60405180910390fd5b6004600081548092919061103290613360565b91905055503360096000600454815260200190815260200160002060006101000a81548173ffffffffffffffffffffffffffffffffffffffff021916908373ffffffffffffffffffffffffffffffffffffffff1602179055506000604051806040016040528085815260200184815250905080600760003373ffffffffffffffffffffffffffffffffffffffff1673ffffffffffffffffffffffffffffffffffffffff16815260200190815260200160002060006004548152602001908152602001600020600082015181600001556020820151816001015590505061113c600660009054906101000a900473ffffffffffffffffffffffffffffffffffffffff16333086611a84565b7f79c7148512b58c5de2d7a0899954f3281ba62fc218c9a89f5216ecb1ac87a3de60045485853386604051611175959493929190613416565b60405180910390a150505050565b61118b611223565b61119481611bbd565b50565b60045481565b600581815481106111ad57600080fd5b906000526020600020016000915090505481565b60006111cc83611986565b905080600b600083600185516111e2919061319d565b815181106111f3576111f2612e2c565b5b60200260200101518152602001908152602001600020908051906020019061121c9291906122d6565b5050505050565b60008054906101000a900473ffffffffffffffffffffffffffffffffffffffff1673ffffffffffffffffffffffffffffffffffffffff163373ffffffffffffffffffffffffffffffffffffffff16146112b1576040517f08c379a00000000000000000000000000000000000000000000000000000000081526004016112a8906134bc565b60405180910390fd5b565b60008151036112ee576040517f22ce3edd00000000000000000000000000000000000000000000000000000000815260040160405180910390fd5b828460000190600281111561130657611305612d5a565b5b9081600281111561131a57611319612d5a565b5b81525050818460400190600081111561133657611335612d5a565b5b9081600081111561134a57611349612d5a565b5b8152505080846060018190525050505050565b6060600061136c610100611ce9565b90506113b66040518060400160405280600c81526020017f636f64654c6f636174696f6e000000000000000000000000000000000000000081525082611d1090919063ffffffff16565b6113df836000015160028111156113d0576113cf612d5a565b5b82611d3990919063ffffffff16565b6114276040518060400160405280600881526020017f6c616e677561676500000000000000000000000000000000000000000000000081525082611d1090919063ffffffff16565b6114508360400151600081111561144157611440612d5a565b5b82611d3990919063ffffffff16565b6114986040518060400160405280600681526020017f736f75726365000000000000000000000000000000000000000000000000000081525082611d1090919063ffffffff16565b6114af836060015182611d1090919063ffffffff16565b60008360a00151511115611565576115056040518060400160405280600481526020017f617267730000000000000000000000000000000000000000000000000000000081525082611d1090919063ffffffff16565b61150e81611d89565b60005b8360a001515181101561155a5761154f8460a00151828151811061153857611537612e2c565b5b602002602001015183611d1090919063ffffffff16565b806001019050611511565b5061156481611db1565b5b600083608001515111156116a6576000600281111561158757611586612d5a565b5b8360200151600281111561159e5761159d612d5a565b5b036115d5576040517fa80d31f700000000000000000000000000000000000000000000000000000000815260040160405180910390fd5b61161d6040518060400160405280600f81526020017f736563726574734c6f636174696f6e000000000000000000000000000000000081525082611d1090919063ffffffff16565b6116468360200151600281111561163757611636612d5a565b5b82611d3990919063ffffffff16565b61168e6040518060400160405280600781526020017f736563726574730000000000000000000000000000000000000000000000000081525082611d1090919063ffffffff16565b6116a5836080015182611dd990919063ffffffff16565b5b60008360c0015151111561175c576116fc6040518060400160405280600981526020017f627974657341726773000000000000000000000000000000000000000000000081525082611d1090919063ffffffff16565b61170581611d89565b60005b8360c0015151811015611751576117468460c00151828151811061172f5761172e612e2c565b5b602002602001015183611dd990919063ffffffff16565b806001019050611708565b5061175b81611db1565b5b806000015160000151915050919050565b6000807f000000000000000000000000000000000000000000000000000000000000000073ffffffffffffffffffffffffffffffffffffffff1663461d27628688600188886040518663ffffffff1660e01b81526004016117d295949392919061356c565b6020604051808303816000875af11580156117f1573d6000803e3d6000fd5b505050506040513d601f19601f8201168201806040525081019061181591906135db565b9050807f1131472297a800fee664d1d89cfa8f7676ff07189ecc53f80bbb5f4969099db860405160405180910390a280915050949350505050565b6000808473ffffffffffffffffffffffffffffffffffffffff1663a9059cbb8585604051602401611882929190613608565b6040516020818303038152906040529060e01b6020820180517bffffffffffffffffffffffffffffffffffffffffffffffffffffffff83818316178352505050506040516118d0919061366d565b6000604051808303816000865af19150503d806000811461190d576040519150601f19603f3d011682016040523d82523d6000602084013e611912565b606091505b5091509150818015611940575060008151148061193f57508080602001905181019061193e91906136b0565b5b5b61197f576040517f08c379a00000000000000000000000000000000000000000000000000000000081526004016119769061374f565b60405180910390fd5b5050505050565b6060600060208351611998919061376f565b146119d8576040517f08c379a00000000000000000000000000000000000000000000000000000000081526004016119cf906137ec565b60405180910390fd5b6000602083516119e89190612efb565b67ffffffffffffffff811115611a0157611a006123df565b5b604051908082528060200260200182016040528015611a2f5781602001602082028036833780820191505090505b50905060005b8151811015611a7a57600060208202602086010151905080838381518110611a6057611a5f612e2c565b5b602002602001018181525050508080600101915050611a35565b5080915050919050565b6000808573ffffffffffffffffffffffffffffffffffffffff166323b872dd868686604051602401611ab89392919061380c565b6040516020818303038152906040529060e01b6020820180517bffffffffffffffffffffffffffffffffffffffffffffffffffffffff8381831617835250505050604051611b06919061366d565b6000604051808303816000865af19150503d8060008114611b43576040519150601f19603f3d011682016040523d82523d6000602084013e611b48565b606091505b5091509150818015611b765750600081511480611b75575080806020019051810190611b7491906136b0565b5b5b611bb5576040517f08c379a0000000000000000000000000000000000000000000000000000000008152600401611bac906138b5565b60405180910390fd5b505050505050565b3373ffffffffffffffffffffffffffffffffffffffff168173ffffffffffffffffffffffffffffffffffffffff1603611c2b576040517f08c379a0000000000000000000000000000000000000000000000000000000008152600401611c2290613921565b60405180910390fd5b80600160006101000a81548173ffffffffffffffffffffffffffffffffffffffff021916908373ffffffffffffffffffffffffffffffffffffffff1602179055508073ffffffffffffffffffffffffffffffffffffffff1660008054906101000a900473ffffffffffffffffffffffffffffffffffffffff1673ffffffffffffffffffffffffffffffffffffffff167fed8889f560326eb138920d842192f0eb3dd22b4f139c87a2c57538e05bae127860405160405180910390a350565b611cf1612323565b611cff816000015183611e02565b506000816020018181525050919050565b611d1d8260038351611e7b565b611d3481836000015161202490919063ffffffff16565b505050565b611d5b60026005600660ff16901b17836000015161204090919063ffffffff16565b50611d858282604051602001611d719190612a08565b604051602081830303815290604052611dd9565b5050565b611d948160046120aa565b600181602001818151611da79190613941565b9150818152505050565b611dbc8160076120aa565b600181602001818151611dcf919061319d565b9150818152505050565b611de68260028351611e7b565b611dfd81836000015161202490919063ffffffff16565b505050565b611e0a612343565b6000602083611e19919061376f565b14611e4557602082611e2b919061376f565b6020611e37919061319d565b82611e429190613941565b91505b818360200181815250506040518084526000815282810160200181811015611e6c57600080fd5b80604052505082905092915050565b60178167ffffffffffffffff1611611eb657611eb08160058460ff16901b60ff1617846000015161204090919063ffffffff16565b5061201f565b60ff8167ffffffffffffffff1611611f1457611ee9601860058460ff16901b17846000015161204090919063ffffffff16565b50611f0e8167ffffffffffffffff16600185600001516120d09092919063ffffffff16565b5061201e565b61ffff8167ffffffffffffffff1611611f7357611f48601960058460ff16901b17846000015161204090919063ffffffff16565b50611f6d8167ffffffffffffffff16600285600001516120d09092919063ffffffff16565b5061201d565b63ffffffff8167ffffffffffffffff1611611fd457611fa9601a60058460ff16901b17846000015161204090919063ffffffff16565b50611fce8167ffffffffffffffff16600485600001516120d09092919063ffffffff16565b5061201c565b611ff5601b60058460ff16901b17846000015161204090919063ffffffff16565b5061201a8167ffffffffffffffff16600885600001516120d09092919063ffffffff16565b505b5b5b5b505050565b61202c612343565b6120388383845161215d565b905092915050565b612048612343565b6000836000015151905060006001826120619190613941565b905084602001518210612085576120848560028361207f9190612e8a565b612240565b5b8451602083820101858153815183111561209d578282525b5050849250505092915050565b6120cb601f60058360ff16901b17836000015161204090919063ffffffff16565b505050565b6120d8612343565b60008460000151519050600081846120f09190613941565b90508560200151811115612115576121148660028361210f9190612e8a565b612240565b5b60006001856101006121279190613aa8565b612131919061319d565b90508651828101878319825116178152815184111561214e578382525b50508693505050509392505050565b612165612343565b825182111561217357600080fd5b600084600001515190506000838261218b9190613941565b905085602001518111156121b0576121af866002836121aa9190612e8a565b612240565b5b600080875180518560208301019350808511156121cb578482525b60208901925050505b6020861061221257805182526020826121ed9190613941565b91506020816121fc9190613941565b905060208661220b919061319d565b95506121d4565b60006001876020036101000a0390508019825116818451168181178552505050879450505050509392505050565b6000826000015190506122538383611e02565b5061225e8382612024565b50505050565b6040518060e001604052806000600281111561228357612282612d5a565b5b81526020016000600281111561229c5761229b612d5a565b5b81526020016000808111156122b4576122b3612d5a565b5b8152602001606081526020016060815260200160608152602001606081525090565b828054828255906000526020600020908101928215612312579160200282015b828111156123115782518255916020019190600101906122f6565b5b50905061231f919061235d565b5090565b6040518060400160405280612336612343565b8152602001600081525090565b604051806040016040528060608152602001600081525090565b5b8082111561237657600081600090555060010161235e565b5090565b6000604051905090565b600080fd5b600080fd5b6000819050919050565b6123a18161238e565b81146123ac57600080fd5b50565b6000813590506123be81612398565b92915050565b600080fd5b600080fd5b6000601f19601f8301169050919050565b7f4e487b7100000000000000000000000000000000000000000000000000000000600052604160045260246000fd5b612417826123ce565b810181811067ffffffffffffffff82111715612436576124356123df565b5b80604052505050565b600061244961237a565b9050612455828261240e565b919050565b600067ffffffffffffffff821115612475576124746123df565b5b61247e826123ce565b9050602081019050919050565b82818337600083830152505050565b60006124ad6124a88461245a565b61243f565b9050828152602081018484840111156124c9576124c86123c9565b5b6124d484828561248b565b509392505050565b600082601f8301126124f1576124f06123c4565b5b813561250184826020860161249a565b91505092915050565b60008060006060848603121561252357612522612384565b5b6000612531868287016123af565b935050602084013567ffffffffffffffff81111561255257612551612389565b5b61255e868287016124dc565b925050604084013567ffffffffffffffff81111561257f5761257e612389565b5b61258b868287016124dc565b9150509250925092565b600073ffffffffffffffffffffffffffffffffffffffff82169050919050565b60006125c082612595565b9050919050565b6125d0816125b5565b81146125db57600080fd5b50565b6000813590506125ed816125c7565b92915050565b6000819050919050565b612606816125f3565b811461261157600080fd5b50565b600081359050612623816125fd565b92915050565b600080604083850312156126405761263f612384565b5b600061264e858286016125de565b925050602061265f85828601612614565b9150509250929050565b612672816125f3565b82525050565b600060408201905061268d6000830185612669565b61269a6020830184612669565b9392505050565b600080fd5b600080fd5b60008083601f8401126126c1576126c06123c4565b5b8235905067ffffffffffffffff8111156126de576126dd6126a1565b5b6020830191508360018202830111156126fa576126f96126a6565b5b9250929050565b6003811061270e57600080fd5b50565b60008135905061272081612701565b92915050565b60008083601f84011261273c5761273b6123c4565b5b8235905067ffffffffffffffff811115612759576127586126a1565b5b602083019150836001820283011115612775576127746126a6565b5b9250929050565b60008083601f840112612792576127916123c4565b5b8235905067ffffffffffffffff8111156127af576127ae6126a1565b5b6020830191508360208202830111156127cb576127ca6126a6565b5b9250929050565b60008083601f8401126127e8576127e76123c4565b5b8235905067ffffffffffffffff811115612805576128046126a1565b5b602083019150836020820283011115612821576128206126a6565b5b9250929050565b600067ffffffffffffffff82169050919050565b61284581612828565b811461285057600080fd5b50565b6000813590506128628161283c565b92915050565b600063ffffffff82169050919050565b61288181612868565b811461288c57600080fd5b50565b60008135905061289e81612878565b92915050565b600080600080600080600080600080600060e08c8e0312156128c9576128c8612384565b5b60008c013567ffffffffffffffff8111156128e7576128e6612389565b5b6128f38e828f016126ab565b9b509b505060206129068e828f01612711565b99505060408c013567ffffffffffffffff81111561292757612926612389565b5b6129338e828f01612726565b985098505060608c013567ffffffffffffffff81111561295657612955612389565b5b6129628e828f0161277c565b965096505060808c013567ffffffffffffffff81111561298557612984612389565b5b6129918e828f016127d2565b945094505060a06129a48e828f01612853565b92505060c06129b58e828f0161288f565b9150509295989b509295989b9093969950565b600080604083850312156129df576129de612384565b5b60006129ed85828601612614565b92505060206129fe85828601612614565b9150509250929050565b6000602082019050612a1d6000830184612669565b92915050565b600060208284031215612a3957612a38612384565b5b6000612a4784828501612614565b91505092915050565b612a59816125b5565b82525050565b6000602082019050612a746000830184612a50565b92915050565b600060208284031215612a9057612a8f612384565b5b6000612a9e848285016123af565b91505092915050565b600080600060608486031215612ac057612abf612384565b5b6000612ace868287016125de565b9350506020612adf86828701612614565b9250506040612af086828701612614565b9150509250925092565b612b038161238e565b82525050565b6000602082019050612b1e6000830184612afa565b92915050565b60008115159050919050565b612b3981612b24565b82525050565b6000602082019050612b546000830184612b30565b92915050565b600060208284031215612b7057612b6f612384565b5b600082013567ffffffffffffffff811115612b8e57612b8d612389565b5b612b9a848285016124dc565b91505092915050565b6000819050919050565b6000612bc8612bc3612bbe84612595565b612ba3565b612595565b9050919050565b6000612bda82612bad565b9050919050565b6000612bec82612bcf565b9050919050565b612bfc81612be1565b82525050565b6000602082019050612c176000830184612bf3565b92915050565b600067ffffffffffffffff821115612c3857612c376123df565b5b612c41826123ce565b9050602081019050919050565b6000612c61612c5c84612c1d565b61243f565b905082815260208101848484011115612c7d57612c7c6123c9565b5b612c8884828561248b565b509392505050565b600082601f830112612ca557612ca46123c4565b5b8135612cb5848260208601612c4e565b91505092915050565b600080600060608486031215612cd757612cd6612384565b5b6000612ce586828701612614565b9350506020612cf686828701612614565b925050604084013567ffffffffffffffff811115612d1757612d16612389565b5b612d2386828701612c90565b9150509250925092565b600060208284031215612d4357612d42612384565b5b6000612d51848285016125de565b91505092915050565b7f4e487b7100000000000000000000000000000000000000000000000000000000600052602160045260246000fd5b600082825260208201905092915050565b7f496e666c75656e636572206973206e6f74206170706c696361626c6520746f2060008201527f636c61696d000000000000000000000000000000000000000000000000000000602082015250565b6000612df6602583612d89565b9150612e0182612d9a565b604082019050919050565b60006020820190508181036000830152612e2581612de9565b9050919050565b7f4e487b7100000000000000000000000000000000000000000000000000000000600052603260045260246000fd5b7f4e487b7100000000000000000000000000000000000000000000000000000000600052601160045260246000fd5b6000612e95826125f3565b9150612ea0836125f3565b9250828202612eae816125f3565b91508282048414831517612ec557612ec4612e5b565b5b5092915050565b7f4e487b7100000000000000000000000000000000000000000000000000000000600052601260045260246000fd5b6000612f06826125f3565b9150612f11836125f3565b925082612f2157612f20612ecc565b5b828204905092915050565b7f53686172652073686f756c642062652067726561746572207468616e20300000600082015250565b6000612f62601e83612d89565b9150612f6d82612f2c565b602082019050919050565b60006020820190508181036000830152612f9181612f55565b9050919050565b6000606082019050612fad6000830186612669565b612fba6020830185612a50565b612fc76040830184612669565b949350505050565b600081549050919050565b600082825260208201905092915050565b60008190508160005260206000209050919050565b613009816125b5565b82525050565b600061301b8383613000565b60208301905092915050565b60008160001c9050919050565b600073ffffffffffffffffffffffffffffffffffffffff82169050919050565b600061306761306283613027565b613034565b9050919050565b600061307a8254613054565b9050919050565b6000600182019050919050565b600061309982612fcf565b6130a38185612fda565b93506130ae83612feb565b8060005b838110156130e6576130c38261306e565b6130cd888261300f565b97506130d883613081565b9250506001810190506130b2565b5085935050505092915050565b60006060820190506131086000830186612669565b6131156020830185612a50565b8181036040830152613127818461308e565b9050949350505050565b7f4d7573742062652070726f706f736564206f776e657200000000000000000000600082015250565b6000613167601683612d89565b915061317282613131565b602082019050919050565b600060208201905081810360008301526131968161315a565b9050919050565b60006131a8826125f3565b91506131b3836125f3565b92508282039050818111156131cb576131ca612e5b565b5b92915050565b6000815190506131e0816125fd565b92915050565b6000602082840312156131fc576131fb612384565b5b600061320a848285016131d1565b91505092915050565b7f5573657220646f65736e2774206861766520656e6f7567682062616c616e636560008201527f2e00000000000000000000000000000000000000000000000000000000000000602082015250565b600061326f602183612d89565b915061327a82613213565b604082019050919050565b6000602082019050818103600083015261329e81613262565b9050919050565b60006040820190506132ba6000830185612a50565b6132c76020830184612a50565b9392505050565b7f5573657220646f65736e2774206861766520656e6f75676820616c6c6f77616e60008201527f63652e0000000000000000000000000000000000000000000000000000000000602082015250565b600061332a602383612d89565b9150613335826132ce565b604082019050919050565b600060208201905081810360008301526133598161331d565b9050919050565b600061336b826125f3565b91507fffffffffffffffffffffffffffffffffffffffffffffffffffffffffffffffff820361339d5761339c612e5b565b5b600182019050919050565b600081519050919050565b60005b838110156133d15780820151818401526020810190506133b6565b60008484015250505050565b60006133e8826133a8565b6133f28185612d89565b93506134028185602086016133b3565b61340b816123ce565b840191505092915050565b600060a08201905061342b6000830188612669565b6134386020830187612669565b6134456040830186612669565b6134526060830185612a50565b818103608083015261346481846133dd565b90509695505050505050565b7f4f6e6c792063616c6c61626c65206279206f776e657200000000000000000000600082015250565b60006134a6601683612d89565b91506134b182613470565b602082019050919050565b600060208201905081810360008301526134d581613499565b9050919050565b6134e581612828565b82525050565b600081519050919050565b600082825260208201905092915050565b6000613512826134eb565b61351c81856134f6565b935061352c8185602086016133b3565b613535816123ce565b840191505092915050565b600061ffff82169050919050565b61355781613540565b82525050565b61356681612868565b82525050565b600060a08201905061358160008301886134dc565b81810360208301526135938187613507565b90506135a2604083018661354e565b6135af606083018561355d565b6135bc6080830184612afa565b9695505050505050565b6000815190506135d581612398565b92915050565b6000602082840312156135f1576135f0612384565b5b60006135ff848285016135c6565b91505092915050565b600060408201905061361d6000830185612a50565b61362a6020830184612669565b9392505050565b600081905092915050565b6000613647826134eb565b6136518185613631565b93506136618185602086016133b3565b80840191505092915050565b6000613679828461363c565b915081905092915050565b61368d81612b24565b811461369857600080fd5b50565b6000815190506136aa81613684565b92915050565b6000602082840312156136c6576136c5612384565b5b60006136d48482850161369b565b91505092915050565b7f5472616e7366657248656c7065723a3a736166655472616e736665723a20747260008201527f616e73666572206661696c656400000000000000000000000000000000000000602082015250565b6000613739602d83612d89565b9150613744826136dd565b604082019050919050565b600060208201905081810360008301526137688161372c565b9050919050565b600061377a826125f3565b9150613785836125f3565b92508261379557613794612ecc565b5b828206905092915050565b7f496e76616c696420656e636f6465642064617461206c656e6774680000000000600082015250565b60006137d6601b83612d89565b91506137e1826137a0565b602082019050919050565b60006020820190508181036000830152613805816137c9565b9050919050565b60006060820190506138216000830186612a50565b61382e6020830185612a50565b61383b6040830184612669565b949350505050565b7f5472616e7366657248656c7065723a3a7472616e7366657246726f6d3a20747260008201527f616e7366657246726f6d206661696c6564000000000000000000000000000000602082015250565b600061389f603183612d89565b91506138aa82613843565b604082019050919050565b600060208201905081810360008301526138ce81613892565b9050919050565b7f43616e6e6f74207472616e7366657220746f2073656c66000000000000000000600082015250565b600061390b601783612d89565b9150613916826138d5565b602082019050919050565b6000602082019050818103600083015261393a816138fe565b9050919050565b600061394c826125f3565b9150613957836125f3565b925082820190508082111561396f5761396e612e5b565b5b92915050565b60008160011c9050919050565b6000808291508390505b60018511156139cc578086048111156139a8576139a7612e5b565b5b60018516156139b75780820291505b80810290506139c585613975565b945061398c565b94509492505050565b6000826139e55760019050613aa1565b816139f35760009050613aa1565b8160018114613a095760028114613a1357613a42565b6001915050613aa1565b60ff841115613a2557613a24612e5b565b5b8360020a915084821115613a3c57613a3b612e5b565b5b50613aa1565b5060208310610133831016604e8410600b8410161715613a775782820a905083811115613a7257613a71612e5b565b5b613aa1565b613a848484846001613982565b92509050818404811115613a9b57613a9a612e5b565b5b81810290505b9392505050565b6000613ab3826125f3565b9150613abe836125f3565b9250613aeb7fffffffffffffffffffffffffffffffffffffffffffffffffffffffffffffffff84846139d5565b90509291505056fea264697066735822122046710f04c540dd2e3d50858f342c97019adb8215d4ed7a1c36dd69f364abb5c664736f6c63430008180033",
  "linkReferences": {},
  "deployedLinkReferences": {}
}