{
  "_format": "hh-sol-artifact-1",
  "contractName": "Womdo",
  "sourceName": "contracts/Womdo.sol",
  "abi": [
    {
      "inputs": [
        {
          "internalType": "address",
          "name": "router",
          "type": "address"
        },
        {
          "internalType": "bytes32",
          "name": "_donId",
          "type": "bytes32"
        },
        {
          "internalType": "address",
          "name": "_udst",
          "type": "address"
        }
      ],
      "stateMutability": "nonpayable",
      "type": "constructor"
    },
    {
      "inputs": [],
      "name": "EmptySource",
      "type": "error"
    },
    {
      "inputs": [],
      "name": "NoInlineSecrets",
      "type": "error"
    },
    {
      "inputs": [],
      "name": "OnlyRouterCanFulfill",
      "type": "error"
    },
    {
      "anonymous": false,
      "inputs": [
        {
          "indexed": false,
          "internalType": "uint256",
          "name": "adId",
          "type": "uint256"
        },
        {
          "indexed": false,
          "internalType": "address",
          "name": "influencer",
          "type": "address"
        },
        {
          "indexed": false,
          "internalType": "address[]",
          "name": "acceptedUserAddress",
          "type": "address[]"
        }
      ],
      "name": "AdAccepted",
      "type": "event"
    },
    {
      "anonymous": false,
      "inputs": [
        {
          "indexed": false,
          "internalType": "uint256",
          "name": "adId",
          "type": "uint256"
        },
        {
          "indexed": false,
          "internalType": "uint256",
          "name": "totalUsers",
          "type": "uint256"
        },
        {
          "indexed": false,
          "internalType": "uint256",
          "name": "usdtAmount",
          "type": "uint256"
        },
        {
          "indexed": false,
          "internalType": "address",
          "name": "brandAddress",
          "type": "address"
        },
        {
          "indexed": false,
          "internalType": "string",
          "name": "productName",
          "type": "string"
        }
      ],
      "name": "AdRegistered",
      "type": "event"
    },
    {
      "anonymous": false,
      "inputs": [
        {
          "indexed": false,
          "internalType": "uint256",
          "name": "adId",
          "type": "uint256"
        },
        {
          "indexed": false,
          "internalType": "address",
          "name": "influencer",
          "type": "address"
        },
        {
          "indexed": false,
          "internalType": "uint256",
          "name": "share",
          "type": "uint256"
        }
      ],
      "name": "Claimed",
      "type": "event"
    },
    {
      "anonymous": false,
      "inputs": [
        {
          "indexed": true,
          "internalType": "address",
          "name": "from",
          "type": "address"
        },
        {
          "indexed": true,
          "internalType": "address",
          "name": "to",
          "type": "address"
        }
      ],
      "name": "OwnershipTransferRequested",
      "type": "event"
    },
    {
      "anonymous": false,
      "inputs": [
        {
          "indexed": true,
          "internalType": "address",
          "name": "from",
          "type": "address"
        },
        {
          "indexed": true,
          "internalType": "address",
          "name": "to",
          "type": "address"
        }
      ],
      "name": "OwnershipTransferred",
      "type": "event"
    },
    {
      "anonymous": false,
      "inputs": [
        {
          "indexed": true,
          "internalType": "bytes32",
          "name": "id",
          "type": "bytes32"
        }
      ],
      "name": "RequestFulfilled",
      "type": "event"
    },
    {
      "anonymous": false,
      "inputs": [
        {
          "indexed": true,
          "internalType": "bytes32",
          "name": "id",
          "type": "bytes32"
        }
      ],
      "name": "RequestSent",
      "type": "event"
    },
    {
      "inputs": [],
      "name": "USDT",
      "outputs": [
        {
          "internalType": "contract IERC20Metadata",
          "name": "",
          "type": "address"
        }
      ],
      "stateMutability": "view",
      "type": "function"
    },
    {
      "inputs": [
        {
          "internalType": "uint256",
          "name": "_adId",
          "type": "uint256"
        }
      ],
      "name": "acceptAd",
      "outputs": [],
      "stateMutability": "nonpayable",
      "type": "function"
    },
    {
      "inputs": [],
      "name": "acceptOwnership",
      "outputs": [],
      "stateMutability": "nonpayable",
      "type": "function"
    },
    {
      "inputs": [
        {
          "internalType": "address",
          "name": "",
          "type": "address"
        },
        {
          "internalType": "uint256",
          "name": "",
          "type": "uint256"
        },
        {
          "internalType": "uint256",
          "name": "",
          "type": "uint256"
        }
      ],
      "name": "acceptedUserAddress",
      "outputs": [
        {
          "internalType": "address",
          "name": "",
          "type": "address"
        }
      ],
      "stateMutability": "view",
      "type": "function"
    },
    {
      "inputs": [
        {
          "internalType": "uint256",
          "name": "",
          "type": "uint256"
        }
      ],
      "name": "adOwner",
      "outputs": [
        {
          "internalType": "address",
          "name": "",
          "type": "address"
        }
      ],
      "stateMutability": "view",
      "type": "function"
    },
    {
      "inputs": [
        {
          "internalType": "uint256",
          "name": "_adId",
          "type": "uint256"
        }
      ],
      "name": "claim",
      "outputs": [],
      "stateMutability": "nonpayable",
      "type": "function"
    },
    {
      "inputs": [],
      "name": "donId",
      "outputs": [
        {
          "internalType": "bytes32",
          "name": "",
          "type": "bytes32"
        }
      ],
      "stateMutability": "view",
      "type": "function"
    },
    {
      "inputs": [
        {
          "internalType": "bytes",
          "name": "response",
          "type": "bytes"
        }
      ],
      "name": "fulfillRequestLocal",
      "outputs": [],
      "stateMutability": "nonpayable",
      "type": "function"
    },
    {
      "inputs": [
        {
          "internalType": "bytes32",
          "name": "requestId",
          "type": "bytes32"
        },
        {
          "internalType": "bytes",
          "name": "response",
          "type": "bytes"
        },
        {
          "internalType": "bytes",
          "name": "err",
          "type": "bytes"
        }
      ],
      "name": "handleOracleFulfillment",
      "outputs": [],
      "stateMutability": "nonpayable",
      "type": "function"
    },
    {
      "inputs": [
        {
          "internalType": "uint256",
          "name": "",
          "type": "uint256"
        },
        {
          "internalType": "uint256",
          "name": "",
          "type": "uint256"
        }
      ],
      "name": "influencerShare",
      "outputs": [
        {
          "internalType": "uint256",
          "name": "",
          "type": "uint256"
        }
      ],
      "stateMutability": "view",
      "type": "function"
    },
    {
      "inputs": [
        {
          "internalType": "address",
          "name": "",
          "type": "address"
        },
        {
          "internalType": "uint256",
          "name": "",
          "type": "uint256"
        }
      ],
      "name": "isInfluencerAccepted",
      "outputs": [
        {
          "internalType": "bool",
          "name": "",
          "type": "bool"
        }
      ],
      "stateMutability": "view",
      "type": "function"
    },
    {
      "inputs": [
        {
          "internalType": "address",
          "name": "",
          "type": "address"
        },
        {
          "internalType": "uint256",
          "name": "",
          "type": "uint256"
        }
      ],
      "name": "isInfluencerClaimed",
      "outputs": [
        {
          "internalType": "bool",
          "name": "",
          "type": "bool"
        }
      ],
      "stateMutability": "view",
      "type": "function"
    },
    {
      "inputs": [],
      "name": "owner",
      "outputs": [
        {
          "internalType": "address",
          "name": "",
          "type": "address"
        }
      ],
      "stateMutability": "view",
      "type": "function"
    },
    {
      "inputs": [
        {
          "internalType": "uint256",
          "name": "_users",
          "type": "uint256"
        },
        {
          "internalType": "uint256",
          "name": "_usdtAmount",
          "type": "uint256"
        },
        {
          "internalType": "string",
          "name": "_productName",
          "type": "string"
        }
      ],
      "name": "registerAd",
      "outputs": [],
      "stateMutability": "nonpayable",
      "type": "function"
    },
    {
      "inputs": [
        {
          "internalType": "uint256",
          "name": "",
          "type": "uint256"
        }
      ],
      "name": "returnedArray",
      "outputs": [
        {
          "internalType": "uint256",
          "name": "",
          "type": "uint256"
        }
      ],
      "stateMutability": "view",
      "type": "function"
    },
    {
      "inputs": [],
      "name": "s_lastRequestId",
      "outputs": [
        {
          "internalType": "bytes32",
          "name": "",
          "type": "bytes32"
        }
      ],
      "stateMutability": "view",
      "type": "function"
    },
    {
      "inputs": [
        {
          "internalType": "string",
          "name": "source",
          "type": "string"
        },
        {
          "internalType": "enum FunctionsRequest.Location",
          "name": "secretsLocation",
          "type": "uint8"
        },
        {
          "internalType": "bytes",
          "name": "encryptedSecretsReference",
          "type": "bytes"
        },
        {
          "internalType": "string[]",
          "name": "args",
          "type": "string[]"
        },
        {
          "internalType": "bytes[]",
          "name": "bytesArgs",
          "type": "bytes[]"
        },
        {
          "internalType": "uint64",
          "name": "subscriptionId",
          "type": "uint64"
        },
        {
          "internalType": "uint32",
          "name": "callbackGasLimit",
          "type": "uint32"
        }
      ],
      "name": "sendRequest",
      "outputs": [],
      "stateMutability": "nonpayable",
      "type": "function"
    },
    {
      "inputs": [
        {
          "internalType": "bytes32",
          "name": "newDonId",
          "type": "bytes32"
        }
      ],
      "name": "setDonId",
      "outputs": [],
      "stateMutability": "nonpayable",
      "type": "function"
    },
    {
      "inputs": [],
      "name": "totalAds",
      "outputs": [
        {
          "internalType": "uint256",
          "name": "",
          "type": "uint256"
        }
      ],
      "stateMutability": "view",
      "type": "function"
    },
    {
      "inputs": [
        {
          "internalType": "address",
          "name": "to",
          "type": "address"
        }
      ],
      "name": "transferOwnership",
      "outputs": [],
      "stateMutability": "nonpayable",
      "type": "function"
    },
    {
      "inputs": [
        {
          "internalType": "address",
          "name": "",
          "type": "address"
        },
        {
          "internalType": "uint256",
          "name": "",
          "type": "uint256"
        }
      ],
      "name": "userAds",
      "outputs": [
        {
          "internalType": "uint256",
          "name": "totalUsers",
          "type": "uint256"
        },
        {
          "internalType": "uint256",
          "name": "usdtAmount",
          "type": "uint256"
        }
      ],
      "stateMutability": "view",
      "type": "function"
    }
  ],
  "bytecode": "0x60a06040523480156200001157600080fd5b50604051620044e3380380620044e3833981810160405281019062000037919062000392565b33806000858073ffffffffffffffffffffffffffffffffffffffff1660808173ffffffffffffffffffffffffffffffffffffffff168152505050600073ffffffffffffffffffffffffffffffffffffffff168273ffffffffffffffffffffffffffffffffffffffff1603620000e3576040517f08c379a0000000000000000000000000000000000000000000000000000000008152600401620000da906200044f565b60405180910390fd5b816000806101000a81548173ffffffffffffffffffffffffffffffffffffffff021916908373ffffffffffffffffffffffffffffffffffffffff160217905550600073ffffffffffffffffffffffffffffffffffffffff168173ffffffffffffffffffffffffffffffffffffffff16146200016a576200016981620001be60201b60201c565b5b5050508160028190555080600660006101000a81548173ffffffffffffffffffffffffffffffffffffffff021916908373ffffffffffffffffffffffffffffffffffffffff160217905550505050620004e3565b3373ffffffffffffffffffffffffffffffffffffffff168173ffffffffffffffffffffffffffffffffffffffff16036200022f576040517f08c379a00000000000000000000000000000000000000000000000000000000081526004016200022690620004c1565b60405180910390fd5b80600160006101000a81548173ffffffffffffffffffffffffffffffffffffffff021916908373ffffffffffffffffffffffffffffffffffffffff1602179055508073ffffffffffffffffffffffffffffffffffffffff1660008054906101000a900473ffffffffffffffffffffffffffffffffffffffff1673ffffffffffffffffffffffffffffffffffffffff167fed8889f560326eb138920d842192f0eb3dd22b4f139c87a2c57538e05bae127860405160405180910390a350565b600080fd5b600073ffffffffffffffffffffffffffffffffffffffff82169050919050565b60006200031f82620002f2565b9050919050565b620003318162000312565b81146200033d57600080fd5b50565b600081519050620003518162000326565b92915050565b6000819050919050565b6200036c8162000357565b81146200037857600080fd5b50565b6000815190506200038c8162000361565b92915050565b600080600060608486031215620003ae57620003ad620002ed565b5b6000620003be8682870162000340565b9350506020620003d1868287016200037b565b9250506040620003e48682870162000340565b9150509250925092565b600082825260208201905092915050565b7f43616e6e6f7420736574206f776e657220746f207a65726f0000000000000000600082015250565b600062000437601883620003ee565b91506200044482620003ff565b602082019050919050565b600060208201905081810360008301526200046a8162000428565b9050919050565b7f43616e6e6f74207472616e7366657220746f2073656c66000000000000000000600082015250565b6000620004a9601783620003ee565b9150620004b68262000471565b602082019050919050565b60006020820190508181036000830152620004dc816200049a565b9050919050565b608051613fdd620005066000396000818161040f0152611ab70152613fdd6000f3fe608060405234801561001057600080fd5b50600436106101375760003560e01c80637ce9a823116100b8578063c4b161a51161007c578063c4b161a51461034d578063c54e44eb14610369578063c5557a3114610387578063f2fde38b146103a3578063f65bcfd6146103bf578063f9a99b58146103dd57610137565b80637ce9a823146102935780638da5cb5b146102c35780638dbe7b9d146102e1578063b1e21749146102ff578063bbe7df2c1461031d57610137565b80633ad02e1d116100ff5780633ad02e1d146101f15780633db08f4e146102215780636caeea7b1461025157806378ca5de71461026d57806379ba50971461028957610137565b80630ca761751461013c57806318a81ebf14610158578063231c1619146101895780632e8619f2146101a5578063379607f5146101d5575b600080fd5b6101566004803603810190610151919061276e565b61040d565b005b610172600480360381019061016d919061288d565b6104cf565b6040516101809291906128dc565b60405180910390f35b6101a3600480360381019061019e9190612b08565b610500565b005b6101bf60048036038101906101ba9190612c2c565b610613565b6040516101cc9190612c6c565b60405180910390f35b6101ef60048036038101906101ea9190612c87565b610644565b005b61020b6004803603810190610206919061288d565b610af3565b6040516102189190612ccf565b60405180910390f35b61023b60048036038101906102369190612c87565b610b22565b6040516102489190612cf9565b60405180910390f35b61026b60048036038101906102669190612c87565b610b55565b005b61028760048036038101906102829190612d14565b610eba565b005b610291610ecc565b005b6102ad60048036038101906102a89190612d41565b611061565b6040516102ba9190612cf9565b60405180910390f35b6102cb6110bc565b6040516102d89190612cf9565b60405180910390f35b6102e96110e5565b6040516102f69190612da3565b60405180910390f35b6103076110eb565b6040516103149190612da3565b60405180910390f35b6103376004803603810190610332919061288d565b6110f1565b6040516103449190612ccf565b60405180910390f35b61036760048036038101906103629190612dbe565b611120565b005b610371611180565b60405161037e9190612e66565b60405180910390f35b6103a1600480360381019061039c9190612f22565b6111a6565b005b6103bd60048036038101906103b89190612f91565b6114c8565b005b6103c76114dc565b6040516103d49190612c6c565b60405180910390f35b6103f760048036038101906103f29190612c87565b6114e2565b6040516104049190612c6c565b60405180910390f35b7f000000000000000000000000000000000000000000000000000000000000000073ffffffffffffffffffffffffffffffffffffffff163373ffffffffffffffffffffffffffffffffffffffff1614610492576040517fc6829f8300000000000000000000000000000000000000000000000000000000815260040160405180910390fd5b61049d838383611506565b827f85e1543bf2f84fe80c6badbce3648c8539ad1df4d2b3d822938ca0538be727e660405160405180910390a2505050565b6007602052816000526040600020602052806000526040600020600091509150508060000154908060010154905082565b610508611568565b6105106124c8565b61056c6000808e8e8080601f016020809104026020016040519081016040528093929190818152602001838380828437600081840152601f19601f82011690508083019250505050505050846115f8909392919063ffffffff16565b898160200190600281111561058457610583612fbe565b5b9081600281111561059857610597612fbe565b5b8152505088888080601f016020809104026020016040519081016040528093929190818152602001838380828437600081840152601f19601f8201169050808301925050505050505081608001819052506105ff6105f5826116a2565b8484600254611ab2565b600381905550505050505050505050505050565b600c602052816000526040600020818154811061062f57600080fd5b90600052602060002001600091509150505481565b600a60003373ffffffffffffffffffffffffffffffffffffffff1673ffffffffffffffffffffffffffffffffffffffff168152602001908152602001600020600082815260200190815260200160002060009054906101000a900460ff166106e1576040517f08c379a00000000000000000000000000000000000000000000000000000000081526004016106d890613070565b60405180910390fd5b600b60003373ffffffffffffffffffffffffffffffffffffffff1673ffffffffffffffffffffffffffffffffffffffff168152602001908152602001600020600082815260200190815260200160002060009054906101000a900460ff161561077f576040517f08c379a0000000000000000000000000000000000000000000000000000000008152600401610776906130dc565b60405180910390fd5b6000600760006009600085815260200190815260200160002060009054906101000a900473ffffffffffffffffffffffffffffffffffffffff1673ffffffffffffffffffffffffffffffffffffffff1673ffffffffffffffffffffffffffffffffffffffff16815260200190815260200160002060008381526020019081526020016000209050600080600860006009600087815260200190815260200160002060009054906101000a900473ffffffffffffffffffffffffffffffffffffffff1673ffffffffffffffffffffffffffffffffffffffff1673ffffffffffffffffffffffffffffffffffffffff168152602001908152602001600020600085815260200190815260200160002080548060200260200160405190810160405280929190818152602001828054801561090c57602002820191906000526020600020905b8160009054906101000a900473ffffffffffffffffffffffffffffffffffffffff1673ffffffffffffffffffffffffffffffffffffffff16815260200190600101908083116108c2575b5050505050905060005b8151811015610981573373ffffffffffffffffffffffffffffffffffffffff16828281518110610949576109486130fc565b5b602002602001015173ffffffffffffffffffffffffffffffffffffffff160361097457809250610981565b8080600101915050610916565b506000600c600086815260200190815260200160002083815481106109a9576109a86130fc565b5b9060005260206000200154905060006127108286600101546109cb919061315a565b6109d591906131cb565b905060008111610a1a576040517f08c379a0000000000000000000000000000000000000000000000000000000008152600401610a1190613248565b60405180910390fd5b6001600b60003373ffffffffffffffffffffffffffffffffffffffff1673ffffffffffffffffffffffffffffffffffffffff168152602001908152602001600020600088815260200190815260200160002060006101000a81548160ff021916908315150217905550610ab0600660009054906101000a900473ffffffffffffffffffffffffffffffffffffffff163383611b95565b7f4ec90e965519d92681267467f775ada5bd214aa92c0dc93d90a5e880ce9ed026863383604051610ae393929190613268565b60405180910390a1505050505050565b600b6020528160005260406000206020528060005260406000206000915091509054906101000a900460ff1681565b60096020528060005260406000206000915054906101000a900473ffffffffffffffffffffffffffffffffffffffff1681565b600454811115610b9a576040517f08c379a0000000000000000000000000000000000000000000000000000000008152600401610b91906132eb565b60405180910390fd5b6000600860006009600085815260200190815260200160002060009054906101000a900473ffffffffffffffffffffffffffffffffffffffff1673ffffffffffffffffffffffffffffffffffffffff1673ffffffffffffffffffffffffffffffffffffffff168152602001908152602001600020600083815260200190815260200160002090506000600760006009600086815260200190815260200160002060009054906101000a900473ffffffffffffffffffffffffffffffffffffffff1673ffffffffffffffffffffffffffffffffffffffff1673ffffffffffffffffffffffffffffffffffffffff16815260200190815260200160002060008481526020019081526020016000206040518060400160405290816000820154815260200160018201548152505090508060000151828054905010610d11576040517f08c379a0000000000000000000000000000000000000000000000000000000008152600401610d0890613357565b60405180910390fd5b600a60003373ffffffffffffffffffffffffffffffffffffffff1673ffffffffffffffffffffffffffffffffffffffff168152602001908152602001600020600084815260200190815260200160002060009054906101000a900460ff1615610daf576040517f08c379a0000000000000000000000000000000000000000000000000000000008152600401610da6906133c3565b60405180910390fd5b81339080600181540180825580915050600190039060005260206000200160009091909190916101000a81548173ffffffffffffffffffffffffffffffffffffffff021916908373ffffffffffffffffffffffffffffffffffffffff1602179055506001600a60003373ffffffffffffffffffffffffffffffffffffffff1673ffffffffffffffffffffffffffffffffffffffff168152602001908152602001600020600085815260200190815260200160002060006101000a81548160ff0219169083151502179055507f968b44e13aaad0a789bca6c4caaa558140a747be9a5bd316c2f5ec2dc55b2f07833384604051610ead93929190613507565b60405180910390a1505050565b610ec2611568565b8060028190555050565b600160009054906101000a900473ffffffffffffffffffffffffffffffffffffffff1673ffffffffffffffffffffffffffffffffffffffff163373ffffffffffffffffffffffffffffffffffffffff1614610f5c576040517f08c379a0000000000000000000000000000000000000000000000000000000008152600401610f5390613591565b60405180910390fd5b60008060009054906101000a900473ffffffffffffffffffffffffffffffffffffffff169050336000806101000a81548173ffffffffffffffffffffffffffffffffffffffff021916908373ffffffffffffffffffffffffffffffffffffffff1602179055506000600160006101000a81548173ffffffffffffffffffffffffffffffffffffffff021916908373ffffffffffffffffffffffffffffffffffffffff1602179055503373ffffffffffffffffffffffffffffffffffffffff168173ffffffffffffffffffffffffffffffffffffffff167f8be0079c531659141344cd1fd0a4f28419497f9722a3daafe3b4186f6b6457e060405160405180910390a350565b6008602052826000526040600020602052816000526040600020818154811061108957600080fd5b90600052602060002001600092509250509054906101000a900473ffffffffffffffffffffffffffffffffffffffff1681565b60008060009054906101000a900473ffffffffffffffffffffffffffffffffffffffff16905090565b60025481565b60035481565b600a6020528160005260406000206020528060005260406000206000915091509054906101000a900460ff1681565b600061112b82611ccb565b905080600c6000836001855161114191906135b1565b81518110611152576111516130fc565b5b60200260200101518152602001908152602001600020908051906020019061117b92919061253a565b505050565b600660009054906101000a900473ffffffffffffffffffffffffffffffffffffffff1681565b81600660009054906101000a900473ffffffffffffffffffffffffffffffffffffffff1673ffffffffffffffffffffffffffffffffffffffff166370a08231336040518263ffffffff1660e01b81526004016112029190612cf9565b602060405180830381865afa15801561121f573d6000803e3d6000fd5b505050506040513d601f19601f8201168201806040525081019061124391906135fa565b1015611284576040517f08c379a000000000000000000000000000000000000000000000000000000000815260040161127b90613699565b60405180910390fd5b81600660009054906101000a900473ffffffffffffffffffffffffffffffffffffffff1673ffffffffffffffffffffffffffffffffffffffff1663dd62ed3e33306040518363ffffffff1660e01b81526004016112e29291906136b9565b602060405180830381865afa1580156112ff573d6000803e3d6000fd5b505050506040513d601f19601f8201168201806040525081019061132391906135fa565b1015611364576040517f08c379a000000000000000000000000000000000000000000000000000000000815260040161135b90613754565b60405180910390fd5b6004600081548092919061137790613774565b91905055503360096000600454815260200190815260200160002060006101000a81548173ffffffffffffffffffffffffffffffffffffffff021916908373ffffffffffffffffffffffffffffffffffffffff1602179055506000604051806040016040528085815260200184815250905080600760003373ffffffffffffffffffffffffffffffffffffffff1673ffffffffffffffffffffffffffffffffffffffff168152602001908152602001600020600060045481526020019081526020016000206000820151816000015560208201518160010155905050611481600660009054906101000a900473ffffffffffffffffffffffffffffffffffffffff16333086611ce8565b7f79c7148512b58c5de2d7a0899954f3281ba62fc218c9a89f5216ecb1ac87a3de600454858533866040516114ba95949392919061382a565b60405180910390a150505050565b6114d0611568565b6114d981611e21565b50565b60045481565b600581815481106114f257600080fd5b906000526020600020016000915090505481565b600061151183611ccb565b905080600c6000836001855161152791906135b1565b81518110611538576115376130fc565b5b60200260200101518152602001908152602001600020908051906020019061156192919061253a565b5050505050565b60008054906101000a900473ffffffffffffffffffffffffffffffffffffffff1673ffffffffffffffffffffffffffffffffffffffff163373ffffffffffffffffffffffffffffffffffffffff16146115f6576040517f08c379a00000000000000000000000000000000000000000000000000000000081526004016115ed906138d0565b60405180910390fd5b565b6000815103611633576040517f22ce3edd00000000000000000000000000000000000000000000000000000000815260040160405180910390fd5b828460000190600281111561164b5761164a612fbe565b5b9081600281111561165f5761165e612fbe565b5b81525050818460400190600081111561167b5761167a612fbe565b5b9081600081111561168f5761168e612fbe565b5b8152505080846060018190525050505050565b606060006116b1610100611f4d565b90506116fb6040518060400160405280600c81526020017f636f64654c6f636174696f6e000000000000000000000000000000000000000081525082611f7490919063ffffffff16565b6117248360000151600281111561171557611714612fbe565b5b82611f9d90919063ffffffff16565b61176c6040518060400160405280600881526020017f6c616e677561676500000000000000000000000000000000000000000000000081525082611f7490919063ffffffff16565b6117958360400151600081111561178657611785612fbe565b5b82611f9d90919063ffffffff16565b6117dd6040518060400160405280600681526020017f736f75726365000000000000000000000000000000000000000000000000000081525082611f7490919063ffffffff16565b6117f4836060015182611f7490919063ffffffff16565b60008360a001515111156118aa5761184a6040518060400160405280600481526020017f617267730000000000000000000000000000000000000000000000000000000081525082611f7490919063ffffffff16565b61185381611fed565b60005b8360a001515181101561189f576118948460a00151828151811061187d5761187c6130fc565b5b602002602001015183611f7490919063ffffffff16565b806001019050611856565b506118a981612015565b5b600083608001515111156119eb57600060028111156118cc576118cb612fbe565b5b836020015160028111156118e3576118e2612fbe565b5b0361191a576040517fa80d31f700000000000000000000000000000000000000000000000000000000815260040160405180910390fd5b6119626040518060400160405280600f81526020017f736563726574734c6f636174696f6e000000000000000000000000000000000081525082611f7490919063ffffffff16565b61198b8360200151600281111561197c5761197b612fbe565b5b82611f9d90919063ffffffff16565b6119d36040518060400160405280600781526020017f736563726574730000000000000000000000000000000000000000000000000081525082611f7490919063ffffffff16565b6119ea83608001518261203d90919063ffffffff16565b5b60008360c00151511115611aa157611a416040518060400160405280600981526020017f627974657341726773000000000000000000000000000000000000000000000081525082611f7490919063ffffffff16565b611a4a81611fed565b60005b8360c0015151811015611a9657611a8b8460c001518281518110611a7457611a736130fc565b5b60200260200101518361203d90919063ffffffff16565b806001019050611a4d565b50611aa081612015565b5b806000015160000151915050919050565b6000807f000000000000000000000000000000000000000000000000000000000000000073ffffffffffffffffffffffffffffffffffffffff1663461d27628688600188886040518663ffffffff1660e01b8152600401611b17959493929190613980565b6020604051808303816000875af1158015611b36573d6000803e3d6000fd5b505050506040513d601f19601f82011682018060405250810190611b5a91906139ef565b9050807f1131472297a800fee664d1d89cfa8f7676ff07189ecc53f80bbb5f4969099db860405160405180910390a280915050949350505050565b6000808473ffffffffffffffffffffffffffffffffffffffff1663a9059cbb8585604051602401611bc7929190613a1c565b6040516020818303038152906040529060e01b6020820180517bffffffffffffffffffffffffffffffffffffffffffffffffffffffff8381831617835250505050604051611c159190613a81565b6000604051808303816000865af19150503d8060008114611c52576040519150601f19603f3d011682016040523d82523d6000602084013e611c57565b606091505b5091509150818015611c855750600081511480611c84575080806020019051810190611c839190613ac4565b5b5b611cc4576040517f08c379a0000000000000000000000000000000000000000000000000000000008152600401611cbb90613b63565b60405180910390fd5b5050505050565b606081806020019051810190611ce19190613c46565b9050919050565b6000808573ffffffffffffffffffffffffffffffffffffffff166323b872dd868686604051602401611d1c93929190613c8f565b6040516020818303038152906040529060e01b6020820180517bffffffffffffffffffffffffffffffffffffffffffffffffffffffff8381831617835250505050604051611d6a9190613a81565b6000604051808303816000865af19150503d8060008114611da7576040519150601f19603f3d011682016040523d82523d6000602084013e611dac565b606091505b5091509150818015611dda5750600081511480611dd9575080806020019051810190611dd89190613ac4565b5b5b611e19576040517f08c379a0000000000000000000000000000000000000000000000000000000008152600401611e1090613d38565b60405180910390fd5b505050505050565b3373ffffffffffffffffffffffffffffffffffffffff168173ffffffffffffffffffffffffffffffffffffffff1603611e8f576040517f08c379a0000000000000000000000000000000000000000000000000000000008152600401611e8690613da4565b60405180910390fd5b80600160006101000a81548173ffffffffffffffffffffffffffffffffffffffff021916908373ffffffffffffffffffffffffffffffffffffffff1602179055508073ffffffffffffffffffffffffffffffffffffffff1660008054906101000a900473ffffffffffffffffffffffffffffffffffffffff1673ffffffffffffffffffffffffffffffffffffffff167fed8889f560326eb138920d842192f0eb3dd22b4f139c87a2c57538e05bae127860405160405180910390a350565b611f55612587565b611f63816000015183612066565b506000816020018181525050919050565b611f8182600383516120df565b611f9881836000015161228890919063ffffffff16565b505050565b611fbf60026005600660ff16901b1783600001516122a490919063ffffffff16565b50611fe98282604051602001611fd59190612c6c565b60405160208183030381529060405261203d565b5050565b611ff881600461230e565b60018160200181815161200b9190613dc4565b9150818152505050565b61202081600761230e565b60018160200181815161203391906135b1565b9150818152505050565b61204a82600283516120df565b61206181836000015161228890919063ffffffff16565b505050565b61206e6125a7565b600060208361207d9190613df8565b146120a95760208261208f9190613df8565b602061209b91906135b1565b826120a69190613dc4565b91505b8183602001818152505060405180845260008152828101602001818110156120d057600080fd5b80604052505082905092915050565b60178167ffffffffffffffff161161211a576121148160058460ff16901b60ff161784600001516122a490919063ffffffff16565b50612283565b60ff8167ffffffffffffffff16116121785761214d601860058460ff16901b1784600001516122a490919063ffffffff16565b506121728167ffffffffffffffff16600185600001516123349092919063ffffffff16565b50612282565b61ffff8167ffffffffffffffff16116121d7576121ac601960058460ff16901b1784600001516122a490919063ffffffff16565b506121d18167ffffffffffffffff16600285600001516123349092919063ffffffff16565b50612281565b63ffffffff8167ffffffffffffffff16116122385761220d601a60058460ff16901b1784600001516122a490919063ffffffff16565b506122328167ffffffffffffffff16600485600001516123349092919063ffffffff16565b50612280565b612259601b60058460ff16901b1784600001516122a490919063ffffffff16565b5061227e8167ffffffffffffffff16600885600001516123349092919063ffffffff16565b505b5b5b5b505050565b6122906125a7565b61229c838384516123c1565b905092915050565b6122ac6125a7565b6000836000015151905060006001826122c59190613dc4565b9050846020015182106122e9576122e8856002836122e3919061315a565b6124a4565b5b84516020838201018581538151831115612301578282525b5050849250505092915050565b61232f601f60058360ff16901b1783600001516122a490919063ffffffff16565b505050565b61233c6125a7565b60008460000151519050600081846123549190613dc4565b905085602001518111156123795761237886600283612373919061315a565b6124a4565b5b600060018561010061238b9190613f5c565b61239591906135b1565b9050865182810187831982511617815281518411156123b2578382525b50508693505050509392505050565b6123c96125a7565b82518211156123d757600080fd5b60008460000151519050600083826123ef9190613dc4565b90508560200151811115612414576124138660028361240e919061315a565b6124a4565b5b6000808751805185602083010193508085111561242f578482525b60208901925050505b6020861061247657805182526020826124519190613dc4565b91506020816124609190613dc4565b905060208661246f91906135b1565b9550612438565b60006001876020036101000a0390508019825116818451168181178552505050879450505050509392505050565b6000826000015190506124b78383612066565b506124c28382612288565b50505050565b6040518060e00160405280600060028111156124e7576124e6612fbe565b5b815260200160006002811115612500576124ff612fbe565b5b815260200160008081111561251857612517612fbe565b5b8152602001606081526020016060815260200160608152602001606081525090565b828054828255906000526020600020908101928215612576579160200282015b8281111561257557825182559160200191906001019061255a565b5b50905061258391906125c1565b5090565b604051806040016040528061259a6125a7565b8152602001600081525090565b604051806040016040528060608152602001600081525090565b5b808211156125da5760008160009055506001016125c2565b5090565b6000604051905090565b600080fd5b600080fd5b6000819050919050565b612605816125f2565b811461261057600080fd5b50565b600081359050612622816125fc565b92915050565b600080fd5b600080fd5b6000601f19601f8301169050919050565b7f4e487b7100000000000000000000000000000000000000000000000000000000600052604160045260246000fd5b61267b82612632565b810181811067ffffffffffffffff8211171561269a57612699612643565b5b80604052505050565b60006126ad6125de565b90506126b98282612672565b919050565b600067ffffffffffffffff8211156126d9576126d8612643565b5b6126e282612632565b9050602081019050919050565b82818337600083830152505050565b600061271161270c846126be565b6126a3565b90508281526020810184848401111561272d5761272c61262d565b5b6127388482856126ef565b509392505050565b600082601f83011261275557612754612628565b5b81356127658482602086016126fe565b91505092915050565b600080600060608486031215612787576127866125e8565b5b600061279586828701612613565b935050602084013567ffffffffffffffff8111156127b6576127b56125ed565b5b6127c286828701612740565b925050604084013567ffffffffffffffff8111156127e3576127e26125ed565b5b6127ef86828701612740565b9150509250925092565b600073ffffffffffffffffffffffffffffffffffffffff82169050919050565b6000612824826127f9565b9050919050565b61283481612819565b811461283f57600080fd5b50565b6000813590506128518161282b565b92915050565b6000819050919050565b61286a81612857565b811461287557600080fd5b50565b60008135905061288781612861565b92915050565b600080604083850312156128a4576128a36125e8565b5b60006128b285828601612842565b92505060206128c385828601612878565b9150509250929050565b6128d681612857565b82525050565b60006040820190506128f160008301856128cd565b6128fe60208301846128cd565b9392505050565b600080fd5b600080fd5b60008083601f84011261292557612924612628565b5b8235905067ffffffffffffffff81111561294257612941612905565b5b60208301915083600182028301111561295e5761295d61290a565b5b9250929050565b6003811061297257600080fd5b50565b60008135905061298481612965565b92915050565b60008083601f8401126129a05761299f612628565b5b8235905067ffffffffffffffff8111156129bd576129bc612905565b5b6020830191508360018202830111156129d9576129d861290a565b5b9250929050565b60008083601f8401126129f6576129f5612628565b5b8235905067ffffffffffffffff811115612a1357612a12612905565b5b602083019150836020820283011115612a2f57612a2e61290a565b5b9250929050565b60008083601f840112612a4c57612a4b612628565b5b8235905067ffffffffffffffff811115612a6957612a68612905565b5b602083019150836020820283011115612a8557612a8461290a565b5b9250929050565b600067ffffffffffffffff82169050919050565b612aa981612a8c565b8114612ab457600080fd5b50565b600081359050612ac681612aa0565b92915050565b600063ffffffff82169050919050565b612ae581612acc565b8114612af057600080fd5b50565b600081359050612b0281612adc565b92915050565b600080600080600080600080600080600060e08c8e031215612b2d57612b2c6125e8565b5b60008c013567ffffffffffffffff811115612b4b57612b4a6125ed565b5b612b578e828f0161290f565b9b509b50506020612b6a8e828f01612975565b99505060408c013567ffffffffffffffff811115612b8b57612b8a6125ed565b5b612b978e828f0161298a565b985098505060608c013567ffffffffffffffff811115612bba57612bb96125ed565b5b612bc68e828f016129e0565b965096505060808c013567ffffffffffffffff811115612be957612be86125ed565b5b612bf58e828f01612a36565b945094505060a0612c088e828f01612ab7565b92505060c0612c198e828f01612af3565b9150509295989b509295989b9093969950565b60008060408385031215612c4357612c426125e8565b5b6000612c5185828601612878565b9250506020612c6285828601612878565b9150509250929050565b6000602082019050612c8160008301846128cd565b92915050565b600060208284031215612c9d57612c9c6125e8565b5b6000612cab84828501612878565b91505092915050565b60008115159050919050565b612cc981612cb4565b82525050565b6000602082019050612ce46000830184612cc0565b92915050565b612cf381612819565b82525050565b6000602082019050612d0e6000830184612cea565b92915050565b600060208284031215612d2a57612d296125e8565b5b6000612d3884828501612613565b91505092915050565b600080600060608486031215612d5a57612d596125e8565b5b6000612d6886828701612842565b9350506020612d7986828701612878565b9250506040612d8a86828701612878565b9150509250925092565b612d9d816125f2565b82525050565b6000602082019050612db86000830184612d94565b92915050565b600060208284031215612dd457612dd36125e8565b5b600082013567ffffffffffffffff811115612df257612df16125ed565b5b612dfe84828501612740565b91505092915050565b6000819050919050565b6000612e2c612e27612e22846127f9565b612e07565b6127f9565b9050919050565b6000612e3e82612e11565b9050919050565b6000612e5082612e33565b9050919050565b612e6081612e45565b82525050565b6000602082019050612e7b6000830184612e57565b92915050565b600067ffffffffffffffff821115612e9c57612e9b612643565b5b612ea582612632565b9050602081019050919050565b6000612ec5612ec084612e81565b6126a3565b905082815260208101848484011115612ee157612ee061262d565b5b612eec8482856126ef565b509392505050565b600082601f830112612f0957612f08612628565b5b8135612f19848260208601612eb2565b91505092915050565b600080600060608486031215612f3b57612f3a6125e8565b5b6000612f4986828701612878565b9350506020612f5a86828701612878565b925050604084013567ffffffffffffffff811115612f7b57612f7a6125ed565b5b612f8786828701612ef4565b9150509250925092565b600060208284031215612fa757612fa66125e8565b5b6000612fb584828501612842565b91505092915050565b7f4e487b7100000000000000000000000000000000000000000000000000000000600052602160045260246000fd5b600082825260208201905092915050565b7f496e666c75656e636572206973206e6f74206170706c696361626c6520746f2060008201527f636c61696d000000000000000000000000000000000000000000000000000000602082015250565b600061305a602583612fed565b915061306582612ffe565b604082019050919050565b600060208201905081810360008301526130898161304d565b9050919050565b7f416c726561647920436c61696d65640000000000000000000000000000000000600082015250565b60006130c6600f83612fed565b91506130d182613090565b602082019050919050565b600060208201905081810360008301526130f5816130b9565b9050919050565b7f4e487b7100000000000000000000000000000000000000000000000000000000600052603260045260246000fd5b7f4e487b7100000000000000000000000000000000000000000000000000000000600052601160045260246000fd5b600061316582612857565b915061317083612857565b925082820261317e81612857565b915082820484148315176131955761319461312b565b5b5092915050565b7f4e487b7100000000000000000000000000000000000000000000000000000000600052601260045260246000fd5b60006131d682612857565b91506131e183612857565b9250826131f1576131f061319c565b5b828204905092915050565b7f53686172652073686f756c642062652067726561746572207468616e20300000600082015250565b6000613232601e83612fed565b915061323d826131fc565b602082019050919050565b6000602082019050818103600083015261326181613225565b9050919050565b600060608201905061327d60008301866128cd565b61328a6020830185612cea565b61329760408301846128cd565b949350505050565b7f496e76616c696420616449640000000000000000000000000000000000000000600082015250565b60006132d5600c83612fed565b91506132e08261329f565b602082019050919050565b60006020820190508181036000830152613304816132c8565b9050919050565b7f41642069732066756c6c00000000000000000000000000000000000000000000600082015250565b6000613341600a83612fed565b915061334c8261330b565b602082019050919050565b6000602082019050818103600083015261337081613334565b9050919050565b7f496e666c75656e63657220616c72656164792061636365707465640000000000600082015250565b60006133ad601b83612fed565b91506133b882613377565b602082019050919050565b600060208201905081810360008301526133dc816133a0565b9050919050565b600081549050919050565b600082825260208201905092915050565b60008190508160005260206000209050919050565b61341d81612819565b82525050565b600061342f8383613414565b60208301905092915050565b60008160001c9050919050565b600073ffffffffffffffffffffffffffffffffffffffff82169050919050565b600061347b6134768361343b565b613448565b9050919050565b600061348e8254613468565b9050919050565b6000600182019050919050565b60006134ad826133e3565b6134b781856133ee565b93506134c2836133ff565b8060005b838110156134fa576134d782613482565b6134e18882613423565b97506134ec83613495565b9250506001810190506134c6565b5085935050505092915050565b600060608201905061351c60008301866128cd565b6135296020830185612cea565b818103604083015261353b81846134a2565b9050949350505050565b7f4d7573742062652070726f706f736564206f776e657200000000000000000000600082015250565b600061357b601683612fed565b915061358682613545565b602082019050919050565b600060208201905081810360008301526135aa8161356e565b9050919050565b60006135bc82612857565b91506135c783612857565b92508282039050818111156135df576135de61312b565b5b92915050565b6000815190506135f481612861565b92915050565b6000602082840312156136105761360f6125e8565b5b600061361e848285016135e5565b91505092915050565b7f5573657220646f65736e2774206861766520656e6f7567682062616c616e636560008201527f2e00000000000000000000000000000000000000000000000000000000000000602082015250565b6000613683602183612fed565b915061368e82613627565b604082019050919050565b600060208201905081810360008301526136b281613676565b9050919050565b60006040820190506136ce6000830185612cea565b6136db6020830184612cea565b9392505050565b7f5573657220646f65736e2774206861766520656e6f75676820616c6c6f77616e60008201527f63652e0000000000000000000000000000000000000000000000000000000000602082015250565b600061373e602383612fed565b9150613749826136e2565b604082019050919050565b6000602082019050818103600083015261376d81613731565b9050919050565b600061377f82612857565b91507fffffffffffffffffffffffffffffffffffffffffffffffffffffffffffffffff82036137b1576137b061312b565b5b600182019050919050565b600081519050919050565b60005b838110156137e55780820151818401526020810190506137ca565b60008484015250505050565b60006137fc826137bc565b6138068185612fed565b93506138168185602086016137c7565b61381f81612632565b840191505092915050565b600060a08201905061383f60008301886128cd565b61384c60208301876128cd565b61385960408301866128cd565b6138666060830185612cea565b818103608083015261387881846137f1565b90509695505050505050565b7f4f6e6c792063616c6c61626c65206279206f776e657200000000000000000000600082015250565b60006138ba601683612fed565b91506138c582613884565b602082019050919050565b600060208201905081810360008301526138e9816138ad565b9050919050565b6138f981612a8c565b82525050565b600081519050919050565b600082825260208201905092915050565b6000613926826138ff565b613930818561390a565b93506139408185602086016137c7565b61394981612632565b840191505092915050565b600061ffff82169050919050565b61396b81613954565b82525050565b61397a81612acc565b82525050565b600060a08201905061399560008301886138f0565b81810360208301526139a7818761391b565b90506139b66040830186613962565b6139c36060830185613971565b6139d06080830184612d94565b9695505050505050565b6000815190506139e9816125fc565b92915050565b600060208284031215613a0557613a046125e8565b5b6000613a13848285016139da565b91505092915050565b6000604082019050613a316000830185612cea565b613a3e60208301846128cd565b9392505050565b600081905092915050565b6000613a5b826138ff565b613a658185613a45565b9350613a758185602086016137c7565b80840191505092915050565b6000613a8d8284613a50565b915081905092915050565b613aa181612cb4565b8114613aac57600080fd5b50565b600081519050613abe81613a98565b92915050565b600060208284031215613ada57613ad96125e8565b5b6000613ae884828501613aaf565b91505092915050565b7f5472616e7366657248656c7065723a3a736166655472616e736665723a20747260008201527f616e73666572206661696c656400000000000000000000000000000000000000602082015250565b6000613b4d602d83612fed565b9150613b5882613af1565b604082019050919050565b60006020820190508181036000830152613b7c81613b40565b9050919050565b600067ffffffffffffffff821115613b9e57613b9d612643565b5b602082029050602081019050919050565b6000613bc2613bbd84613b83565b6126a3565b90508083825260208201905060208402830185811115613be557613be461290a565b5b835b81811015613c0e5780613bfa88826135e5565b845260208401935050602081019050613be7565b5050509392505050565b600082601f830112613c2d57613c2c612628565b5b8151613c3d848260208601613baf565b91505092915050565b600060208284031215613c5c57613c5b6125e8565b5b600082015167ffffffffffffffff811115613c7a57613c796125ed565b5b613c8684828501613c18565b91505092915050565b6000606082019050613ca46000830186612cea565b613cb16020830185612cea565b613cbe60408301846128cd565b949350505050565b7f5472616e7366657248656c7065723a3a7472616e7366657246726f6d3a20747260008201527f616e7366657246726f6d206661696c6564000000000000000000000000000000602082015250565b6000613d22603183612fed565b9150613d2d82613cc6565b604082019050919050565b60006020820190508181036000830152613d5181613d15565b9050919050565b7f43616e6e6f74207472616e7366657220746f2073656c66000000000000000000600082015250565b6000613d8e601783612fed565b9150613d9982613d58565b602082019050919050565b60006020820190508181036000830152613dbd81613d81565b9050919050565b6000613dcf82612857565b9150613dda83612857565b9250828201905080821115613df257613df161312b565b5b92915050565b6000613e0382612857565b9150613e0e83612857565b925082613e1e57613e1d61319c565b5b828206905092915050565b60008160011c9050919050565b6000808291508390505b6001851115613e8057808604811115613e5c57613e5b61312b565b5b6001851615613e6b5780820291505b8081029050613e7985613e29565b9450613e40565b94509492505050565b600082613e995760019050613f55565b81613ea75760009050613f55565b8160018114613ebd5760028114613ec757613ef6565b6001915050613f55565b60ff841115613ed957613ed861312b565b5b8360020a915084821115613ef057613eef61312b565b5b50613f55565b5060208310610133831016604e8410600b8410161715613f2b5782820a905083811115613f2657613f2561312b565b5b613f55565b613f388484846001613e36565b92509050818404811115613f4f57613f4e61312b565b5b81810290505b9392505050565b6000613f6782612857565b9150613f7283612857565b9250613f9f7fffffffffffffffffffffffffffffffffffffffffffffffffffffffffffffffff8484613e89565b90509291505056fea2646970667358221220edec29eb4542946fe650e3a74862b4f258b4375f03943c89016af0b3e34495ae64736f6c63430008180033",
  "linkReferences": {},
  "deployedLinkReferences": {}
}