{
  "_format": "hh-sol-artifact-1",
  "contractName": "Womdo",
  "sourceName": "contracts/Womdo.sol",
  "abi": [
    {
      "inputs": [
        {
          "internalType": "address",
          "name": "router",
          "type": "address"
        },
        {
          "internalType": "bytes32",
          "name": "_donId",
          "type": "bytes32"
        },
        {
          "internalType": "address",
          "name": "_udst",
          "type": "address"
        }
      ],
      "stateMutability": "nonpayable",
      "type": "constructor"
    },
    {
      "inputs": [],
      "name": "EmptySource",
      "type": "error"
    },
    {
      "inputs": [],
      "name": "NoInlineSecrets",
      "type": "error"
    },
    {
      "inputs": [],
      "name": "OnlyRouterCanFulfill",
      "type": "error"
    },
    {
      "anonymous": false,
      "inputs": [
        {
          "indexed": false,
          "internalType": "uint256",
          "name": "adId",
          "type": "uint256"
        },
        {
          "indexed": false,
          "internalType": "address",
          "name": "influencer",
          "type": "address"
        },
        {
          "indexed": false,
          "internalType": "address[]",
          "name": "acceptedUserAddress",
          "type": "address[]"
        }
      ],
      "name": "AdAccepted",
      "type": "event"
    },
    {
      "anonymous": false,
      "inputs": [
        {
          "indexed": false,
          "internalType": "uint256",
          "name": "adId",
          "type": "uint256"
        },
        {
          "indexed": false,
          "internalType": "uint256",
          "name": "totalUsers",
          "type": "uint256"
        },
        {
          "indexed": false,
          "internalType": "uint256",
          "name": "usdtAmount",
          "type": "uint256"
        },
        {
          "indexed": false,
          "internalType": "address",
          "name": "brandAddress",
          "type": "address"
        },
        {
          "indexed": false,
          "internalType": "string",
          "name": "brandName",
          "type": "string"
        },
        {
          "indexed": false,
          "internalType": "string",
          "name": "productName",
          "type": "string"
        },
        {
          "indexed": false,
          "internalType": "string",
          "name": "category",
          "type": "string"
        }
      ],
      "name": "AdRegistered",
      "type": "event"
    },
    {
      "anonymous": false,
      "inputs": [
        {
          "indexed": false,
          "internalType": "uint256",
          "name": "adId",
          "type": "uint256"
        },
        {
          "indexed": false,
          "internalType": "address",
          "name": "influencer",
          "type": "address"
        },
        {
          "indexed": false,
          "internalType": "uint256",
          "name": "share",
          "type": "uint256"
        }
      ],
      "name": "Claimed",
      "type": "event"
    },
    {
      "anonymous": false,
      "inputs": [
        {
          "indexed": true,
          "internalType": "address",
          "name": "from",
          "type": "address"
        },
        {
          "indexed": true,
          "internalType": "address",
          "name": "to",
          "type": "address"
        }
      ],
      "name": "OwnershipTransferRequested",
      "type": "event"
    },
    {
      "anonymous": false,
      "inputs": [
        {
          "indexed": true,
          "internalType": "address",
          "name": "from",
          "type": "address"
        },
        {
          "indexed": true,
          "internalType": "address",
          "name": "to",
          "type": "address"
        }
      ],
      "name": "OwnershipTransferred",
      "type": "event"
    },
    {
      "anonymous": false,
      "inputs": [
        {
          "indexed": true,
          "internalType": "bytes32",
          "name": "id",
          "type": "bytes32"
        }
      ],
      "name": "RequestFulfilled",
      "type": "event"
    },
    {
      "anonymous": false,
      "inputs": [
        {
          "indexed": true,
          "internalType": "bytes32",
          "name": "id",
          "type": "bytes32"
        }
      ],
      "name": "RequestSent",
      "type": "event"
    },
    {
      "inputs": [],
      "name": "USDT",
      "outputs": [
        {
          "internalType": "contract IERC20Metadata",
          "name": "",
          "type": "address"
        }
      ],
      "stateMutability": "view",
      "type": "function"
    },
    {
      "inputs": [
        {
          "internalType": "uint256",
          "name": "_adId",
          "type": "uint256"
        }
      ],
      "name": "acceptAd",
      "outputs": [],
      "stateMutability": "nonpayable",
      "type": "function"
    },
    {
      "inputs": [],
      "name": "acceptOwnership",
      "outputs": [],
      "stateMutability": "nonpayable",
      "type": "function"
    },
    {
      "inputs": [
        {
          "internalType": "address",
          "name": "",
          "type": "address"
        },
        {
          "internalType": "uint256",
          "name": "",
          "type": "uint256"
        },
        {
          "internalType": "uint256",
          "name": "",
          "type": "uint256"
        }
      ],
      "name": "acceptedUserAddress",
      "outputs": [
        {
          "internalType": "address",
          "name": "",
          "type": "address"
        }
      ],
      "stateMutability": "view",
      "type": "function"
    },
    {
      "inputs": [
        {
          "internalType": "uint256",
          "name": "",
          "type": "uint256"
        }
      ],
      "name": "adOwner",
      "outputs": [
        {
          "internalType": "address",
          "name": "",
          "type": "address"
        }
      ],
      "stateMutability": "view",
      "type": "function"
    },
    {
      "inputs": [
        {
          "internalType": "uint256",
          "name": "_adId",
          "type": "uint256"
        }
      ],
      "name": "claim",
      "outputs": [],
      "stateMutability": "nonpayable",
      "type": "function"
    },
    {
      "inputs": [],
      "name": "donId",
      "outputs": [
        {
          "internalType": "bytes32",
          "name": "",
          "type": "bytes32"
        }
      ],
      "stateMutability": "view",
      "type": "function"
    },
    {
      "inputs": [
        {
          "internalType": "bytes",
          "name": "response",
          "type": "bytes"
        }
      ],
      "name": "fulfillRequestLocal",
      "outputs": [],
      "stateMutability": "nonpayable",
      "type": "function"
    },
    {
      "inputs": [
        {
          "internalType": "bytes32",
          "name": "requestId",
          "type": "bytes32"
        },
        {
          "internalType": "bytes",
          "name": "response",
          "type": "bytes"
        },
        {
          "internalType": "bytes",
          "name": "err",
          "type": "bytes"
        }
      ],
      "name": "handleOracleFulfillment",
      "outputs": [],
      "stateMutability": "nonpayable",
      "type": "function"
    },
    {
      "inputs": [
        {
          "internalType": "uint256",
          "name": "",
          "type": "uint256"
        },
        {
          "internalType": "uint256",
          "name": "",
          "type": "uint256"
        }
      ],
      "name": "influencerShare",
      "outputs": [
        {
          "internalType": "uint256",
          "name": "",
          "type": "uint256"
        }
      ],
      "stateMutability": "view",
      "type": "function"
    },
    {
      "inputs": [
        {
          "internalType": "address",
          "name": "",
          "type": "address"
        },
        {
          "internalType": "uint256",
          "name": "",
          "type": "uint256"
        }
      ],
      "name": "isInfluencerAccepted",
      "outputs": [
        {
          "internalType": "bool",
          "name": "",
          "type": "bool"
        }
      ],
      "stateMutability": "view",
      "type": "function"
    },
    {
      "inputs": [],
      "name": "owner",
      "outputs": [
        {
          "internalType": "address",
          "name": "",
          "type": "address"
        }
      ],
      "stateMutability": "view",
      "type": "function"
    },
    {
      "inputs": [
        {
          "internalType": "uint256",
          "name": "_users",
          "type": "uint256"
        },
        {
          "internalType": "uint256",
          "name": "_usdtAmount",
          "type": "uint256"
        },
        {
          "internalType": "string",
          "name": "_brandName",
          "type": "string"
        },
        {
          "internalType": "string",
          "name": "_productName",
          "type": "string"
        },
        {
          "internalType": "string",
          "name": "_category",
          "type": "string"
        }
      ],
      "name": "registerAd",
      "outputs": [],
      "stateMutability": "nonpayable",
      "type": "function"
    },
    {
      "inputs": [
        {
          "internalType": "uint256",
          "name": "",
          "type": "uint256"
        }
      ],
      "name": "returnedArray",
      "outputs": [
        {
          "internalType": "uint256",
          "name": "",
          "type": "uint256"
        }
      ],
      "stateMutability": "view",
      "type": "function"
    },
    {
      "inputs": [],
      "name": "s_lastRequestId",
      "outputs": [
        {
          "internalType": "bytes32",
          "name": "",
          "type": "bytes32"
        }
      ],
      "stateMutability": "view",
      "type": "function"
    },
    {
      "inputs": [
        {
          "internalType": "string",
          "name": "source",
          "type": "string"
        },
        {
          "internalType": "enum FunctionsRequest.Location",
          "name": "secretsLocation",
          "type": "uint8"
        },
        {
          "internalType": "bytes",
          "name": "encryptedSecretsReference",
          "type": "bytes"
        },
        {
          "internalType": "string[]",
          "name": "args",
          "type": "string[]"
        },
        {
          "internalType": "bytes[]",
          "name": "bytesArgs",
          "type": "bytes[]"
        },
        {
          "internalType": "uint64",
          "name": "subscriptionId",
          "type": "uint64"
        },
        {
          "internalType": "uint32",
          "name": "callbackGasLimit",
          "type": "uint32"
        }
      ],
      "name": "sendRequest",
      "outputs": [],
      "stateMutability": "nonpayable",
      "type": "function"
    },
    {
      "inputs": [
        {
          "internalType": "bytes32",
          "name": "newDonId",
          "type": "bytes32"
        }
      ],
      "name": "setDonId",
      "outputs": [],
      "stateMutability": "nonpayable",
      "type": "function"
    },
    {
      "inputs": [],
      "name": "totalAds",
      "outputs": [
        {
          "internalType": "uint256",
          "name": "",
          "type": "uint256"
        }
      ],
      "stateMutability": "view",
      "type": "function"
    },
    {
      "inputs": [
        {
          "internalType": "address",
          "name": "to",
          "type": "address"
        }
      ],
      "name": "transferOwnership",
      "outputs": [],
      "stateMutability": "nonpayable",
      "type": "function"
    },
    {
      "inputs": [
        {
          "internalType": "address",
          "name": "",
          "type": "address"
        },
        {
          "internalType": "uint256",
          "name": "",
          "type": "uint256"
        }
      ],
      "name": "userAds",
      "outputs": [
        {
          "internalType": "uint256",
          "name": "totalUsers",
          "type": "uint256"
        },
        {
          "internalType": "uint256",
          "name": "usdtAmount",
          "type": "uint256"
        }
      ],
      "stateMutability": "view",
      "type": "function"
    }
  ],
  "bytecode": "0x60a06040523480156200001157600080fd5b50604051620040bf380380620040bf833981810160405281019062000037919062000392565b33806000858073ffffffffffffffffffffffffffffffffffffffff1660808173ffffffffffffffffffffffffffffffffffffffff168152505050600073ffffffffffffffffffffffffffffffffffffffff168273ffffffffffffffffffffffffffffffffffffffff1603620000e3576040517f08c379a0000000000000000000000000000000000000000000000000000000008152600401620000da906200044f565b60405180910390fd5b816000806101000a81548173ffffffffffffffffffffffffffffffffffffffff021916908373ffffffffffffffffffffffffffffffffffffffff160217905550600073ffffffffffffffffffffffffffffffffffffffff168173ffffffffffffffffffffffffffffffffffffffff16146200016a576200016981620001be60201b60201c565b5b5050508160028190555080600660006101000a81548173ffffffffffffffffffffffffffffffffffffffff021916908373ffffffffffffffffffffffffffffffffffffffff160217905550505050620004e3565b3373ffffffffffffffffffffffffffffffffffffffff168173ffffffffffffffffffffffffffffffffffffffff16036200022f576040517f08c379a00000000000000000000000000000000000000000000000000000000081526004016200022690620004c1565b60405180910390fd5b80600160006101000a81548173ffffffffffffffffffffffffffffffffffffffff021916908373ffffffffffffffffffffffffffffffffffffffff1602179055508073ffffffffffffffffffffffffffffffffffffffff1660008054906101000a900473ffffffffffffffffffffffffffffffffffffffff1673ffffffffffffffffffffffffffffffffffffffff167fed8889f560326eb138920d842192f0eb3dd22b4f139c87a2c57538e05bae127860405160405180910390a350565b600080fd5b600073ffffffffffffffffffffffffffffffffffffffff82169050919050565b60006200031f82620002f2565b9050919050565b620003318162000312565b81146200033d57600080fd5b50565b600081519050620003518162000326565b92915050565b6000819050919050565b6200036c8162000357565b81146200037857600080fd5b50565b6000815190506200038c8162000361565b92915050565b600080600060608486031215620003ae57620003ad620002ed565b5b6000620003be8682870162000340565b9350506020620003d1868287016200037b565b9250506040620003e48682870162000340565b9150509250925092565b600082825260208201905092915050565b7f43616e6e6f7420736574206f776e657220746f207a65726f0000000000000000600082015250565b600062000437601883620003ee565b91506200044482620003ff565b602082019050919050565b600060208201905081810360008301526200046a8162000428565b9050919050565b7f43616e6e6f74207472616e7366657220746f2073656c66000000000000000000600082015250565b6000620004a9601783620003ee565b9150620004b68262000471565b602082019050919050565b60006020820190508181036000830152620004dc816200049a565b9050919050565b608051613bb962000506600039600081816103d401526117780152613bb96000f3fe608060405234801561001057600080fd5b506004361061012c5760003560e01c80638da5cb5b116100ad578063c4b161a511610071578063c4b161a51461032e578063c54e44eb1461034a578063f2fde38b14610368578063f65bcfd614610384578063f9a99b58146103a25761012c565b80638da5cb5b146102885780638dbe7b9d146102a6578063b1e21749146102c4578063ba5b03f6146102e2578063bbe7df2c146102fe5761012c565b80633db08f4e116100f45780633db08f4e146101e65780636caeea7b1461021657806378ca5de71461023257806379ba50971461024e5780637ce9a823146102585761012c565b80630ca761751461013157806318a81ebf1461014d578063231c16191461017e5780632e8619f21461019a578063379607f5146101ca575b600080fd5b61014b60048036038101906101469190612510565b6103d2565b005b6101676004803603810190610162919061262f565b610494565b60405161017592919061267e565b60405180910390f35b610198600480360381019061019391906128aa565b6104c5565b005b6101b460048036038101906101af91906129ce565b6105d8565b6040516101c19190612a0e565b60405180910390f35b6101e460048036038101906101df9190612a29565b610609565b005b61020060048036038101906101fb9190612a29565b6109b1565b60405161020d9190612a65565b60405180910390f35b610230600480360381019061022b9190612a29565b6109e4565b005b61024c60048036038101906102479190612a80565b610b75565b005b610256610b87565b005b610272600480360381019061026d9190612aad565b610d1c565b60405161027f9190612a65565b60405180910390f35b610290610d77565b60405161029d9190612a65565b60405180910390f35b6102ae610da0565b6040516102bb9190612b0f565b60405180910390f35b6102cc610da6565b6040516102d99190612b0f565b60405180910390f35b6102fc60048036038101906102f79190612bcb565b610dac565b005b6103186004803603810190610313919061262f565b6110d4565b6040516103259190612cb5565b60405180910390f35b61034860048036038101906103439190612cd0565b611103565b005b610352611163565b60405161035f9190612d78565b60405180910390f35b610382600480360381019061037d9190612d93565b611189565b005b61038c61119d565b6040516103999190612a0e565b60405180910390f35b6103bc60048036038101906103b79190612a29565b6111a3565b6040516103c99190612a0e565b60405180910390f35b7f000000000000000000000000000000000000000000000000000000000000000073ffffffffffffffffffffffffffffffffffffffff163373ffffffffffffffffffffffffffffffffffffffff1614610457576040517fc6829f8300000000000000000000000000000000000000000000000000000000815260040160405180910390fd5b6104628383836111c7565b827f85e1543bf2f84fe80c6badbce3648c8539ad1df4d2b3d822938ca0538be727e660405160405180910390a2505050565b6007602052816000526040600020602052806000526040600020600091509150508060000154908060010154905082565b6104cd611229565b6104d561226a565b6105316000808e8e8080601f016020809104026020016040519081016040528093929190818152602001838380828437600081840152601f19601f82011690508083019250505050505050846112b9909392919063ffffffff16565b898160200190600281111561054957610548612dc0565b5b9081600281111561055d5761055c612dc0565b5b8152505088888080601f016020809104026020016040519081016040528093929190818152602001838380828437600081840152601f19601f8201169050808301925050505050505081608001819052506105c46105ba82611363565b8484600254611773565b600381905550505050505050505050505050565b600b60205281600052604060002081815481106105f457600080fd5b90600052602060002001600091509150505481565b600a60003373ffffffffffffffffffffffffffffffffffffffff1673ffffffffffffffffffffffffffffffffffffffff168152602001908152602001600020600082815260200190815260200160002060009054906101000a900460ff166106a6576040517f08c379a000000000000000000000000000000000000000000000000000000000815260040161069d90612e72565b60405180910390fd5b6000600760006009600085815260200190815260200160002060009054906101000a900473ffffffffffffffffffffffffffffffffffffffff1673ffffffffffffffffffffffffffffffffffffffff1673ffffffffffffffffffffffffffffffffffffffff16815260200190815260200160002060008381526020019081526020016000209050600080600860006009600087815260200190815260200160002060009054906101000a900473ffffffffffffffffffffffffffffffffffffffff1673ffffffffffffffffffffffffffffffffffffffff1673ffffffffffffffffffffffffffffffffffffffff168152602001908152602001600020600085815260200190815260200160002080548060200260200160405190810160405280929190818152602001828054801561083357602002820191906000526020600020905b8160009054906101000a900473ffffffffffffffffffffffffffffffffffffffff1673ffffffffffffffffffffffffffffffffffffffff16815260200190600101908083116107e9575b5050505050905060005b81518110156108a8573373ffffffffffffffffffffffffffffffffffffffff168282815181106108705761086f612e92565b5b602002602001015173ffffffffffffffffffffffffffffffffffffffff160361089b578092506108a8565b808060010191505061083d565b506000600b600086815260200190815260200160002083815481106108d0576108cf612e92565b5b9060005260206000200154905060006127108286600101546108f29190612ef0565b6108fc9190612f61565b905060008111610941576040517f08c379a000000000000000000000000000000000000000000000000000000000815260040161093890612fde565b60405180910390fd5b61096e600660009054906101000a900473ffffffffffffffffffffffffffffffffffffffff163383611856565b7f4ec90e965519d92681267467f775ada5bd214aa92c0dc93d90a5e880ce9ed0268633836040516109a193929190612ffe565b60405180910390a1505050505050565b60096020528060005260406000206000915054906101000a900473ffffffffffffffffffffffffffffffffffffffff1681565b6000600860006009600085815260200190815260200160002060009054906101000a900473ffffffffffffffffffffffffffffffffffffffff1673ffffffffffffffffffffffffffffffffffffffff1673ffffffffffffffffffffffffffffffffffffffff1681526020019081526020016000206000838152602001908152602001600020905080339080600181540180825580915050600190039060005260206000200160009091909190916101000a81548173ffffffffffffffffffffffffffffffffffffffff021916908373ffffffffffffffffffffffffffffffffffffffff1602179055506001600a60003373ffffffffffffffffffffffffffffffffffffffff1673ffffffffffffffffffffffffffffffffffffffff168152602001908152602001600020600084815260200190815260200160002060006101000a81548160ff0219169083151502179055507f968b44e13aaad0a789bca6c4caaa558140a747be9a5bd316c2f5ec2dc55b2f07823383604051610b6993929190613159565b60405180910390a15050565b610b7d611229565b8060028190555050565b600160009054906101000a900473ffffffffffffffffffffffffffffffffffffffff1673ffffffffffffffffffffffffffffffffffffffff163373ffffffffffffffffffffffffffffffffffffffff1614610c17576040517f08c379a0000000000000000000000000000000000000000000000000000000008152600401610c0e906131e3565b60405180910390fd5b60008060009054906101000a900473ffffffffffffffffffffffffffffffffffffffff169050336000806101000a81548173ffffffffffffffffffffffffffffffffffffffff021916908373ffffffffffffffffffffffffffffffffffffffff1602179055506000600160006101000a81548173ffffffffffffffffffffffffffffffffffffffff021916908373ffffffffffffffffffffffffffffffffffffffff1602179055503373ffffffffffffffffffffffffffffffffffffffff168173ffffffffffffffffffffffffffffffffffffffff167f8be0079c531659141344cd1fd0a4f28419497f9722a3daafe3b4186f6b6457e060405160405180910390a350565b60086020528260005260406000206020528160005260406000208181548110610d4457600080fd5b90600052602060002001600092509250509054906101000a900473ffffffffffffffffffffffffffffffffffffffff1681565b60008060009054906101000a900473ffffffffffffffffffffffffffffffffffffffff16905090565b60025481565b60035481565b83600660009054906101000a900473ffffffffffffffffffffffffffffffffffffffff1673ffffffffffffffffffffffffffffffffffffffff166370a08231336040518263ffffffff1660e01b8152600401610e089190612a65565b602060405180830381865afa158015610e25573d6000803e3d6000fd5b505050506040513d601f19601f82011682018060405250810190610e499190613218565b1015610e8a576040517f08c379a0000000000000000000000000000000000000000000000000000000008152600401610e81906132b7565b60405180910390fd5b83600660009054906101000a900473ffffffffffffffffffffffffffffffffffffffff1673ffffffffffffffffffffffffffffffffffffffff1663dd62ed3e33306040518363ffffffff1660e01b8152600401610ee89291906132d7565b602060405180830381865afa158015610f05573d6000803e3d6000fd5b505050506040513d601f19601f82011682018060405250810190610f299190613218565b1015610f6a576040517f08c379a0000000000000000000000000000000000000000000000000000000008152600401610f6190613372565b60405180910390fd5b60046000815480929190610f7d90613392565b91905055503360096000600454815260200190815260200160002060006101000a81548173ffffffffffffffffffffffffffffffffffffffff021916908373ffffffffffffffffffffffffffffffffffffffff1602179055506000604051806040016040528087815260200186815250905080600760003373ffffffffffffffffffffffffffffffffffffffff1673ffffffffffffffffffffffffffffffffffffffff168152602001908152602001600020600060045481526020019081526020016000206000820151816000015560208201518160010155905050611087600660009054906101000a900473ffffffffffffffffffffffffffffffffffffffff1633308861198c565b7f28c6ae39b47c32693cc4ededbccfc02fd30d35287d5d9d0bd8bee04fc42b142b6004548787338888886040516110c49796959493929190613448565b60405180910390a1505050505050565b600a6020528160005260406000206020528060005260406000206000915091509054906101000a900460ff1681565b600061110e82611ac5565b905080600b6000836001855161112491906134cc565b8151811061113557611134612e92565b5b60200260200101518152602001908152602001600020908051906020019061115e9291906122dc565b505050565b600660009054906101000a900473ffffffffffffffffffffffffffffffffffffffff1681565b611191611229565b61119a81611bc3565b50565b60045481565b600581815481106111b357600080fd5b906000526020600020016000915090505481565b60006111d283611ac5565b905080600b600083600185516111e891906134cc565b815181106111f9576111f8612e92565b5b6020026020010151815260200190815260200160002090805190602001906112229291906122dc565b5050505050565b60008054906101000a900473ffffffffffffffffffffffffffffffffffffffff1673ffffffffffffffffffffffffffffffffffffffff163373ffffffffffffffffffffffffffffffffffffffff16146112b7576040517f08c379a00000000000000000000000000000000000000000000000000000000081526004016112ae9061354c565b60405180910390fd5b565b60008151036112f4576040517f22ce3edd00000000000000000000000000000000000000000000000000000000815260040160405180910390fd5b828460000190600281111561130c5761130b612dc0565b5b908160028111156113205761131f612dc0565b5b81525050818460400190600081111561133c5761133b612dc0565b5b908160008111156113505761134f612dc0565b5b8152505080846060018190525050505050565b60606000611372610100611cef565b90506113bc6040518060400160405280600c81526020017f636f64654c6f636174696f6e000000000000000000000000000000000000000081525082611d1690919063ffffffff16565b6113e5836000015160028111156113d6576113d5612dc0565b5b82611d3f90919063ffffffff16565b61142d6040518060400160405280600881526020017f6c616e677561676500000000000000000000000000000000000000000000000081525082611d1690919063ffffffff16565b6114568360400151600081111561144757611446612dc0565b5b82611d3f90919063ffffffff16565b61149e6040518060400160405280600681526020017f736f75726365000000000000000000000000000000000000000000000000000081525082611d1690919063ffffffff16565b6114b5836060015182611d1690919063ffffffff16565b60008360a0015151111561156b5761150b6040518060400160405280600481526020017f617267730000000000000000000000000000000000000000000000000000000081525082611d1690919063ffffffff16565b61151481611d8f565b60005b8360a0015151811015611560576115558460a00151828151811061153e5761153d612e92565b5b602002602001015183611d1690919063ffffffff16565b806001019050611517565b5061156a81611db7565b5b600083608001515111156116ac576000600281111561158d5761158c612dc0565b5b836020015160028111156115a4576115a3612dc0565b5b036115db576040517fa80d31f700000000000000000000000000000000000000000000000000000000815260040160405180910390fd5b6116236040518060400160405280600f81526020017f736563726574734c6f636174696f6e000000000000000000000000000000000081525082611d1690919063ffffffff16565b61164c8360200151600281111561163d5761163c612dc0565b5b82611d3f90919063ffffffff16565b6116946040518060400160405280600781526020017f736563726574730000000000000000000000000000000000000000000000000081525082611d1690919063ffffffff16565b6116ab836080015182611ddf90919063ffffffff16565b5b60008360c00151511115611762576117026040518060400160405280600981526020017f627974657341726773000000000000000000000000000000000000000000000081525082611d1690919063ffffffff16565b61170b81611d8f565b60005b8360c00151518110156117575761174c8460c00151828151811061173557611734612e92565b5b602002602001015183611ddf90919063ffffffff16565b80600101905061170e565b5061176181611db7565b5b806000015160000151915050919050565b6000807f000000000000000000000000000000000000000000000000000000000000000073ffffffffffffffffffffffffffffffffffffffff1663461d27628688600188886040518663ffffffff1660e01b81526004016117d89594939291906135fc565b6020604051808303816000875af11580156117f7573d6000803e3d6000fd5b505050506040513d601f19601f8201168201806040525081019061181b919061366b565b9050807f1131472297a800fee664d1d89cfa8f7676ff07189ecc53f80bbb5f4969099db860405160405180910390a280915050949350505050565b6000808473ffffffffffffffffffffffffffffffffffffffff1663a9059cbb8585604051602401611888929190613698565b6040516020818303038152906040529060e01b6020820180517bffffffffffffffffffffffffffffffffffffffffffffffffffffffff83818316178352505050506040516118d691906136fd565b6000604051808303816000865af19150503d8060008114611913576040519150601f19603f3d011682016040523d82523d6000602084013e611918565b606091505b509150915081801561194657506000815114806119455750808060200190518101906119449190613740565b5b5b611985576040517f08c379a000000000000000000000000000000000000000000000000000000000815260040161197c906137df565b60405180910390fd5b5050505050565b6000808573ffffffffffffffffffffffffffffffffffffffff166323b872dd8686866040516024016119c0939291906137ff565b6040516020818303038152906040529060e01b6020820180517bffffffffffffffffffffffffffffffffffffffffffffffffffffffff8381831617835250505050604051611a0e91906136fd565b6000604051808303816000865af19150503d8060008114611a4b576040519150601f19603f3d011682016040523d82523d6000602084013e611a50565b606091505b5091509150818015611a7e5750600081511480611a7d575080806020019051810190611a7c9190613740565b5b5b611abd576040517f08c379a0000000000000000000000000000000000000000000000000000000008152600401611ab4906138a8565b60405180910390fd5b505050505050565b6060600060208351611ad791906138c8565b14611b17576040517f08c379a0000000000000000000000000000000000000000000000000000000008152600401611b0e90613945565b60405180910390fd5b600060208351611b279190612f61565b67ffffffffffffffff811115611b4057611b3f6123e5565b5b604051908082528060200260200182016040528015611b6e5781602001602082028036833780820191505090505b50905060005b8151811015611bb957600060208202602086010151905080838381518110611b9f57611b9e612e92565b5b602002602001018181525050508080600101915050611b74565b5080915050919050565b3373ffffffffffffffffffffffffffffffffffffffff168173ffffffffffffffffffffffffffffffffffffffff1603611c31576040517f08c379a0000000000000000000000000000000000000000000000000000000008152600401611c28906139b1565b60405180910390fd5b80600160006101000a81548173ffffffffffffffffffffffffffffffffffffffff021916908373ffffffffffffffffffffffffffffffffffffffff1602179055508073ffffffffffffffffffffffffffffffffffffffff1660008054906101000a900473ffffffffffffffffffffffffffffffffffffffff1673ffffffffffffffffffffffffffffffffffffffff167fed8889f560326eb138920d842192f0eb3dd22b4f139c87a2c57538e05bae127860405160405180910390a350565b611cf7612329565b611d05816000015183611e08565b506000816020018181525050919050565b611d238260038351611e81565b611d3a81836000015161202a90919063ffffffff16565b505050565b611d6160026005600660ff16901b17836000015161204690919063ffffffff16565b50611d8b8282604051602001611d779190612a0e565b604051602081830303815290604052611ddf565b5050565b611d9a8160046120b0565b600181602001818151611dad91906139d1565b9150818152505050565b611dc28160076120b0565b600181602001818151611dd591906134cc565b9150818152505050565b611dec8260028351611e81565b611e0381836000015161202a90919063ffffffff16565b505050565b611e10612349565b6000602083611e1f91906138c8565b14611e4b57602082611e3191906138c8565b6020611e3d91906134cc565b82611e4891906139d1565b91505b818360200181815250506040518084526000815282810160200181811015611e7257600080fd5b80604052505082905092915050565b60178167ffffffffffffffff1611611ebc57611eb68160058460ff16901b60ff1617846000015161204690919063ffffffff16565b50612025565b60ff8167ffffffffffffffff1611611f1a57611eef601860058460ff16901b17846000015161204690919063ffffffff16565b50611f148167ffffffffffffffff16600185600001516120d69092919063ffffffff16565b50612024565b61ffff8167ffffffffffffffff1611611f7957611f4e601960058460ff16901b17846000015161204690919063ffffffff16565b50611f738167ffffffffffffffff16600285600001516120d69092919063ffffffff16565b50612023565b63ffffffff8167ffffffffffffffff1611611fda57611faf601a60058460ff16901b17846000015161204690919063ffffffff16565b50611fd48167ffffffffffffffff16600485600001516120d69092919063ffffffff16565b50612022565b611ffb601b60058460ff16901b17846000015161204690919063ffffffff16565b506120208167ffffffffffffffff16600885600001516120d69092919063ffffffff16565b505b5b5b5b505050565b612032612349565b61203e83838451612163565b905092915050565b61204e612349565b60008360000151519050600060018261206791906139d1565b90508460200151821061208b5761208a856002836120859190612ef0565b612246565b5b845160208382010185815381518311156120a3578282525b5050849250505092915050565b6120d1601f60058360ff16901b17836000015161204690919063ffffffff16565b505050565b6120de612349565b60008460000151519050600081846120f691906139d1565b9050856020015181111561211b5761211a866002836121159190612ef0565b612246565b5b600060018561010061212d9190613b38565b61213791906134cc565b905086518281018783198251161781528151841115612154578382525b50508693505050509392505050565b61216b612349565b825182111561217957600080fd5b600084600001515190506000838261219191906139d1565b905085602001518111156121b6576121b5866002836121b09190612ef0565b612246565b5b600080875180518560208301019350808511156121d1578482525b60208901925050505b6020861061221857805182526020826121f391906139d1565b915060208161220291906139d1565b905060208661221191906134cc565b95506121da565b60006001876020036101000a0390508019825116818451168181178552505050879450505050509392505050565b6000826000015190506122598383611e08565b50612264838261202a565b50505050565b6040518060e001604052806000600281111561228957612288612dc0565b5b8152602001600060028111156122a2576122a1612dc0565b5b81526020016000808111156122ba576122b9612dc0565b5b8152602001606081526020016060815260200160608152602001606081525090565b828054828255906000526020600020908101928215612318579160200282015b828111156123175782518255916020019190600101906122fc565b5b5090506123259190612363565b5090565b604051806040016040528061233c612349565b8152602001600081525090565b604051806040016040528060608152602001600081525090565b5b8082111561237c576000816000905550600101612364565b5090565b6000604051905090565b600080fd5b600080fd5b6000819050919050565b6123a781612394565b81146123b257600080fd5b50565b6000813590506123c48161239e565b92915050565b600080fd5b600080fd5b6000601f19601f8301169050919050565b7f4e487b7100000000000000000000000000000000000000000000000000000000600052604160045260246000fd5b61241d826123d4565b810181811067ffffffffffffffff8211171561243c5761243b6123e5565b5b80604052505050565b600061244f612380565b905061245b8282612414565b919050565b600067ffffffffffffffff82111561247b5761247a6123e5565b5b612484826123d4565b9050602081019050919050565b82818337600083830152505050565b60006124b36124ae84612460565b612445565b9050828152602081018484840111156124cf576124ce6123cf565b5b6124da848285612491565b509392505050565b600082601f8301126124f7576124f66123ca565b5b81356125078482602086016124a0565b91505092915050565b6000806000606084860312156125295761252861238a565b5b6000612537868287016123b5565b935050602084013567ffffffffffffffff8111156125585761255761238f565b5b612564868287016124e2565b925050604084013567ffffffffffffffff8111156125855761258461238f565b5b612591868287016124e2565b9150509250925092565b600073ffffffffffffffffffffffffffffffffffffffff82169050919050565b60006125c68261259b565b9050919050565b6125d6816125bb565b81146125e157600080fd5b50565b6000813590506125f3816125cd565b92915050565b6000819050919050565b61260c816125f9565b811461261757600080fd5b50565b60008135905061262981612603565b92915050565b600080604083850312156126465761264561238a565b5b6000612654858286016125e4565b92505060206126658582860161261a565b9150509250929050565b612678816125f9565b82525050565b6000604082019050612693600083018561266f565b6126a0602083018461266f565b9392505050565b600080fd5b600080fd5b60008083601f8401126126c7576126c66123ca565b5b8235905067ffffffffffffffff8111156126e4576126e36126a7565b5b602083019150836001820283011115612700576126ff6126ac565b5b9250929050565b6003811061271457600080fd5b50565b60008135905061272681612707565b92915050565b60008083601f840112612742576127416123ca565b5b8235905067ffffffffffffffff81111561275f5761275e6126a7565b5b60208301915083600182028301111561277b5761277a6126ac565b5b9250929050565b60008083601f840112612798576127976123ca565b5b8235905067ffffffffffffffff8111156127b5576127b46126a7565b5b6020830191508360208202830111156127d1576127d06126ac565b5b9250929050565b60008083601f8401126127ee576127ed6123ca565b5b8235905067ffffffffffffffff81111561280b5761280a6126a7565b5b602083019150836020820283011115612827576128266126ac565b5b9250929050565b600067ffffffffffffffff82169050919050565b61284b8161282e565b811461285657600080fd5b50565b60008135905061286881612842565b92915050565b600063ffffffff82169050919050565b6128878161286e565b811461289257600080fd5b50565b6000813590506128a48161287e565b92915050565b600080600080600080600080600080600060e08c8e0312156128cf576128ce61238a565b5b60008c013567ffffffffffffffff8111156128ed576128ec61238f565b5b6128f98e828f016126b1565b9b509b5050602061290c8e828f01612717565b99505060408c013567ffffffffffffffff81111561292d5761292c61238f565b5b6129398e828f0161272c565b985098505060608c013567ffffffffffffffff81111561295c5761295b61238f565b5b6129688e828f01612782565b965096505060808c013567ffffffffffffffff81111561298b5761298a61238f565b5b6129978e828f016127d8565b945094505060a06129aa8e828f01612859565b92505060c06129bb8e828f01612895565b9150509295989b509295989b9093969950565b600080604083850312156129e5576129e461238a565b5b60006129f38582860161261a565b9250506020612a048582860161261a565b9150509250929050565b6000602082019050612a23600083018461266f565b92915050565b600060208284031215612a3f57612a3e61238a565b5b6000612a4d8482850161261a565b91505092915050565b612a5f816125bb565b82525050565b6000602082019050612a7a6000830184612a56565b92915050565b600060208284031215612a9657612a9561238a565b5b6000612aa4848285016123b5565b91505092915050565b600080600060608486031215612ac657612ac561238a565b5b6000612ad4868287016125e4565b9350506020612ae58682870161261a565b9250506040612af68682870161261a565b9150509250925092565b612b0981612394565b82525050565b6000602082019050612b246000830184612b00565b92915050565b600067ffffffffffffffff821115612b4557612b446123e5565b5b612b4e826123d4565b9050602081019050919050565b6000612b6e612b6984612b2a565b612445565b905082815260208101848484011115612b8a57612b896123cf565b5b612b95848285612491565b509392505050565b600082601f830112612bb257612bb16123ca565b5b8135612bc2848260208601612b5b565b91505092915050565b600080600080600060a08688031215612be757612be661238a565b5b6000612bf58882890161261a565b9550506020612c068882890161261a565b945050604086013567ffffffffffffffff811115612c2757612c2661238f565b5b612c3388828901612b9d565b935050606086013567ffffffffffffffff811115612c5457612c5361238f565b5b612c6088828901612b9d565b925050608086013567ffffffffffffffff811115612c8157612c8061238f565b5b612c8d88828901612b9d565b9150509295509295909350565b60008115159050919050565b612caf81612c9a565b82525050565b6000602082019050612cca6000830184612ca6565b92915050565b600060208284031215612ce657612ce561238a565b5b600082013567ffffffffffffffff811115612d0457612d0361238f565b5b612d10848285016124e2565b91505092915050565b6000819050919050565b6000612d3e612d39612d348461259b565b612d19565b61259b565b9050919050565b6000612d5082612d23565b9050919050565b6000612d6282612d45565b9050919050565b612d7281612d57565b82525050565b6000602082019050612d8d6000830184612d69565b92915050565b600060208284031215612da957612da861238a565b5b6000612db7848285016125e4565b91505092915050565b7f4e487b7100000000000000000000000000000000000000000000000000000000600052602160045260246000fd5b600082825260208201905092915050565b7f496e666c75656e636572206973206e6f74206170706c696361626c6520746f2060008201527f636c61696d000000000000000000000000000000000000000000000000000000602082015250565b6000612e5c602583612def565b9150612e6782612e00565b604082019050919050565b60006020820190508181036000830152612e8b81612e4f565b9050919050565b7f4e487b7100000000000000000000000000000000000000000000000000000000600052603260045260246000fd5b7f4e487b7100000000000000000000000000000000000000000000000000000000600052601160045260246000fd5b6000612efb826125f9565b9150612f06836125f9565b9250828202612f14816125f9565b91508282048414831517612f2b57612f2a612ec1565b5b5092915050565b7f4e487b7100000000000000000000000000000000000000000000000000000000600052601260045260246000fd5b6000612f6c826125f9565b9150612f77836125f9565b925082612f8757612f86612f32565b5b828204905092915050565b7f53686172652073686f756c642062652067726561746572207468616e20300000600082015250565b6000612fc8601e83612def565b9150612fd382612f92565b602082019050919050565b60006020820190508181036000830152612ff781612fbb565b9050919050565b6000606082019050613013600083018661266f565b6130206020830185612a56565b61302d604083018461266f565b949350505050565b600081549050919050565b600082825260208201905092915050565b60008190508160005260206000209050919050565b61306f816125bb565b82525050565b60006130818383613066565b60208301905092915050565b60008160001c9050919050565b600073ffffffffffffffffffffffffffffffffffffffff82169050919050565b60006130cd6130c88361308d565b61309a565b9050919050565b60006130e082546130ba565b9050919050565b6000600182019050919050565b60006130ff82613035565b6131098185613040565b935061311483613051565b8060005b8381101561314c57613129826130d4565b6131338882613075565b975061313e836130e7565b925050600181019050613118565b5085935050505092915050565b600060608201905061316e600083018661266f565b61317b6020830185612a56565b818103604083015261318d81846130f4565b9050949350505050565b7f4d7573742062652070726f706f736564206f776e657200000000000000000000600082015250565b60006131cd601683612def565b91506131d882613197565b602082019050919050565b600060208201905081810360008301526131fc816131c0565b9050919050565b60008151905061321281612603565b92915050565b60006020828403121561322e5761322d61238a565b5b600061323c84828501613203565b91505092915050565b7f5573657220646f65736e2774206861766520656e6f7567682062616c616e636560008201527f2e00000000000000000000000000000000000000000000000000000000000000602082015250565b60006132a1602183612def565b91506132ac82613245565b604082019050919050565b600060208201905081810360008301526132d081613294565b9050919050565b60006040820190506132ec6000830185612a56565b6132f96020830184612a56565b9392505050565b7f5573657220646f65736e2774206861766520656e6f75676820616c6c6f77616e60008201527f63652e0000000000000000000000000000000000000000000000000000000000602082015250565b600061335c602383612def565b915061336782613300565b604082019050919050565b6000602082019050818103600083015261338b8161334f565b9050919050565b600061339d826125f9565b91507fffffffffffffffffffffffffffffffffffffffffffffffffffffffffffffffff82036133cf576133ce612ec1565b5b600182019050919050565b600081519050919050565b60005b838110156134035780820151818401526020810190506133e8565b60008484015250505050565b600061341a826133da565b6134248185612def565b93506134348185602086016133e5565b61343d816123d4565b840191505092915050565b600060e08201905061345d600083018a61266f565b61346a602083018961266f565b613477604083018861266f565b6134846060830187612a56565b8181036080830152613496818661340f565b905081810360a08301526134aa818561340f565b905081810360c08301526134be818461340f565b905098975050505050505050565b60006134d7826125f9565b91506134e2836125f9565b92508282039050818111156134fa576134f9612ec1565b5b92915050565b7f4f6e6c792063616c6c61626c65206279206f776e657200000000000000000000600082015250565b6000613536601683612def565b915061354182613500565b602082019050919050565b6000602082019050818103600083015261356581613529565b9050919050565b6135758161282e565b82525050565b600081519050919050565b600082825260208201905092915050565b60006135a28261357b565b6135ac8185613586565b93506135bc8185602086016133e5565b6135c5816123d4565b840191505092915050565b600061ffff82169050919050565b6135e7816135d0565b82525050565b6135f68161286e565b82525050565b600060a082019050613611600083018861356c565b81810360208301526136238187613597565b905061363260408301866135de565b61363f60608301856135ed565b61364c6080830184612b00565b9695505050505050565b6000815190506136658161239e565b92915050565b6000602082840312156136815761368061238a565b5b600061368f84828501613656565b91505092915050565b60006040820190506136ad6000830185612a56565b6136ba602083018461266f565b9392505050565b600081905092915050565b60006136d78261357b565b6136e181856136c1565b93506136f18185602086016133e5565b80840191505092915050565b600061370982846136cc565b915081905092915050565b61371d81612c9a565b811461372857600080fd5b50565b60008151905061373a81613714565b92915050565b6000602082840312156137565761375561238a565b5b60006137648482850161372b565b91505092915050565b7f5472616e7366657248656c7065723a3a736166655472616e736665723a20747260008201527f616e73666572206661696c656400000000000000000000000000000000000000602082015250565b60006137c9602d83612def565b91506137d48261376d565b604082019050919050565b600060208201905081810360008301526137f8816137bc565b9050919050565b60006060820190506138146000830186612a56565b6138216020830185612a56565b61382e604083018461266f565b949350505050565b7f5472616e7366657248656c7065723a3a7472616e7366657246726f6d3a20747260008201527f616e7366657246726f6d206661696c6564000000000000000000000000000000602082015250565b6000613892603183612def565b915061389d82613836565b604082019050919050565b600060208201905081810360008301526138c181613885565b9050919050565b60006138d3826125f9565b91506138de836125f9565b9250826138ee576138ed612f32565b5b828206905092915050565b7f496e76616c696420656e636f6465642064617461206c656e6774680000000000600082015250565b600061392f601b83612def565b915061393a826138f9565b602082019050919050565b6000602082019050818103600083015261395e81613922565b9050919050565b7f43616e6e6f74207472616e7366657220746f2073656c66000000000000000000600082015250565b600061399b601783612def565b91506139a682613965565b602082019050919050565b600060208201905081810360008301526139ca8161398e565b9050919050565b60006139dc826125f9565b91506139e7836125f9565b92508282019050808211156139ff576139fe612ec1565b5b92915050565b60008160011c9050919050565b6000808291508390505b6001851115613a5c57808604811115613a3857613a37612ec1565b5b6001851615613a475780820291505b8081029050613a5585613a05565b9450613a1c565b94509492505050565b600082613a755760019050613b31565b81613a835760009050613b31565b8160018114613a995760028114613aa357613ad2565b6001915050613b31565b60ff841115613ab557613ab4612ec1565b5b8360020a915084821115613acc57613acb612ec1565b5b50613b31565b5060208310610133831016604e8410600b8410161715613b075782820a905083811115613b0257613b01612ec1565b5b613b31565b613b148484846001613a12565b92509050818404811115613b2b57613b2a612ec1565b5b81810290505b9392505050565b6000613b43826125f9565b9150613b4e836125f9565b9250613b7b7fffffffffffffffffffffffffffffffffffffffffffffffffffffffffffffffff8484613a65565b90509291505056fea2646970667358221220e3517d2b02c1d697b06605a0f7eaa29ff4ed29e46babbe754dd3c60f35f8a78864736f6c63430008180033",
  "linkReferences": {},
  "deployedLinkReferences": {}
}