{
  "_format": "hh-sol-artifact-1",
  "contractName": "Womdo",
  "sourceName": "contracts/Womdo.sol",
  "abi": [
    {
      "inputs": [
        {
          "internalType": "address",
          "name": "router",
          "type": "address"
        },
        {
          "internalType": "bytes32",
          "name": "_donId",
          "type": "bytes32"
        },
        {
          "internalType": "address",
          "name": "_udst",
          "type": "address"
        }
      ],
      "stateMutability": "nonpayable",
      "type": "constructor"
    },
    {
      "inputs": [],
      "name": "EmptyArgs",
      "type": "error"
    },
    {
      "inputs": [],
      "name": "EmptySource",
      "type": "error"
    },
    {
      "inputs": [],
      "name": "NoInlineSecrets",
      "type": "error"
    },
    {
      "inputs": [],
      "name": "OnlyRouterCanFulfill",
      "type": "error"
    },
    {
      "anonymous": false,
      "inputs": [
        {
          "indexed": false,
          "internalType": "uint256",
          "name": "adId",
          "type": "uint256"
        },
        {
          "indexed": false,
          "internalType": "address",
          "name": "influencer",
          "type": "address"
        },
        {
          "indexed": false,
          "internalType": "address[]",
          "name": "acceptedUserAddress",
          "type": "address[]"
        }
      ],
      "name": "AdAccepted",
      "type": "event"
    },
    {
      "anonymous": false,
      "inputs": [
        {
          "indexed": false,
          "internalType": "uint256",
          "name": "adId",
          "type": "uint256"
        },
        {
          "indexed": false,
          "internalType": "uint256",
          "name": "totalUsers",
          "type": "uint256"
        },
        {
          "indexed": false,
          "internalType": "uint256",
          "name": "usdtAmount",
          "type": "uint256"
        },
        {
          "indexed": false,
          "internalType": "address",
          "name": "brandAddress",
          "type": "address"
        },
        {
          "indexed": false,
          "internalType": "string",
          "name": "productName",
          "type": "string"
        }
      ],
      "name": "AdRegistered",
      "type": "event"
    },
    {
      "anonymous": false,
      "inputs": [
        {
          "indexed": false,
          "internalType": "uint256",
          "name": "adId",
          "type": "uint256"
        },
        {
          "indexed": false,
          "internalType": "address",
          "name": "influencer",
          "type": "address"
        },
        {
          "indexed": false,
          "internalType": "uint256",
          "name": "share",
          "type": "uint256"
        }
      ],
      "name": "Claimed",
      "type": "event"
    },
    {
      "anonymous": false,
      "inputs": [
        {
          "indexed": true,
          "internalType": "address",
          "name": "from",
          "type": "address"
        },
        {
          "indexed": true,
          "internalType": "address",
          "name": "to",
          "type": "address"
        }
      ],
      "name": "OwnershipTransferRequested",
      "type": "event"
    },
    {
      "anonymous": false,
      "inputs": [
        {
          "indexed": true,
          "internalType": "address",
          "name": "from",
          "type": "address"
        },
        {
          "indexed": true,
          "internalType": "address",
          "name": "to",
          "type": "address"
        }
      ],
      "name": "OwnershipTransferred",
      "type": "event"
    },
    {
      "anonymous": false,
      "inputs": [
        {
          "indexed": true,
          "internalType": "bytes32",
          "name": "id",
          "type": "bytes32"
        }
      ],
      "name": "RequestFulfilled",
      "type": "event"
    },
    {
      "anonymous": false,
      "inputs": [
        {
          "indexed": true,
          "internalType": "bytes32",
          "name": "id",
          "type": "bytes32"
        }
      ],
      "name": "RequestSent",
      "type": "event"
    },
    {
      "inputs": [],
      "name": "USDT",
      "outputs": [
        {
          "internalType": "contract IERC20Metadata",
          "name": "",
          "type": "address"
        }
      ],
      "stateMutability": "view",
      "type": "function"
    },
    {
      "inputs": [
        {
          "internalType": "uint256",
          "name": "_adId",
          "type": "uint256"
        }
      ],
      "name": "acceptAd",
      "outputs": [],
      "stateMutability": "nonpayable",
      "type": "function"
    },
    {
      "inputs": [],
      "name": "acceptOwnership",
      "outputs": [],
      "stateMutability": "nonpayable",
      "type": "function"
    },
    {
      "inputs": [
        {
          "internalType": "address",
          "name": "",
          "type": "address"
        },
        {
          "internalType": "uint256",
          "name": "",
          "type": "uint256"
        },
        {
          "internalType": "uint256",
          "name": "",
          "type": "uint256"
        }
      ],
      "name": "acceptedUserAddress",
      "outputs": [
        {
          "internalType": "address",
          "name": "",
          "type": "address"
        }
      ],
      "stateMutability": "view",
      "type": "function"
    },
    {
      "inputs": [
        {
          "internalType": "uint256",
          "name": "",
          "type": "uint256"
        }
      ],
      "name": "adOwner",
      "outputs": [
        {
          "internalType": "address",
          "name": "",
          "type": "address"
        }
      ],
      "stateMutability": "view",
      "type": "function"
    },
    {
      "inputs": [
        {
          "internalType": "uint256",
          "name": "_adId",
          "type": "uint256"
        }
      ],
      "name": "claim",
      "outputs": [],
      "stateMutability": "nonpayable",
      "type": "function"
    },
    {
      "inputs": [],
      "name": "donId",
      "outputs": [
        {
          "internalType": "bytes32",
          "name": "",
          "type": "bytes32"
        }
      ],
      "stateMutability": "view",
      "type": "function"
    },
    {
      "inputs": [
        {
          "internalType": "bytes",
          "name": "response",
          "type": "bytes"
        }
      ],
      "name": "fulfillRequestLocal",
      "outputs": [],
      "stateMutability": "nonpayable",
      "type": "function"
    },
    {
      "inputs": [
        {
          "internalType": "bytes32",
          "name": "requestId",
          "type": "bytes32"
        },
        {
          "internalType": "bytes",
          "name": "response",
          "type": "bytes"
        },
        {
          "internalType": "bytes",
          "name": "err",
          "type": "bytes"
        }
      ],
      "name": "handleOracleFulfillment",
      "outputs": [],
      "stateMutability": "nonpayable",
      "type": "function"
    },
    {
      "inputs": [
        {
          "internalType": "uint256",
          "name": "",
          "type": "uint256"
        },
        {
          "internalType": "uint256",
          "name": "",
          "type": "uint256"
        }
      ],
      "name": "influencerShare",
      "outputs": [
        {
          "internalType": "uint256",
          "name": "",
          "type": "uint256"
        }
      ],
      "stateMutability": "view",
      "type": "function"
    },
    {
      "inputs": [
        {
          "internalType": "address",
          "name": "",
          "type": "address"
        },
        {
          "internalType": "uint256",
          "name": "",
          "type": "uint256"
        }
      ],
      "name": "isInfluencerAccepted",
      "outputs": [
        {
          "internalType": "bool",
          "name": "",
          "type": "bool"
        }
      ],
      "stateMutability": "view",
      "type": "function"
    },
    {
      "inputs": [
        {
          "internalType": "address",
          "name": "",
          "type": "address"
        },
        {
          "internalType": "uint256",
          "name": "",
          "type": "uint256"
        }
      ],
      "name": "isInfluencerClaimed",
      "outputs": [
        {
          "internalType": "bool",
          "name": "",
          "type": "bool"
        }
      ],
      "stateMutability": "view",
      "type": "function"
    },
    {
      "inputs": [],
      "name": "owner",
      "outputs": [
        {
          "internalType": "address",
          "name": "",
          "type": "address"
        }
      ],
      "stateMutability": "view",
      "type": "function"
    },
    {
      "inputs": [
        {
          "internalType": "uint256",
          "name": "_users",
          "type": "uint256"
        },
        {
          "internalType": "uint256",
          "name": "_usdtAmount",
          "type": "uint256"
        },
        {
          "internalType": "string",
          "name": "_productName",
          "type": "string"
        }
      ],
      "name": "registerAd",
      "outputs": [],
      "stateMutability": "nonpayable",
      "type": "function"
    },
    {
      "inputs": [
        {
          "internalType": "uint256",
          "name": "",
          "type": "uint256"
        }
      ],
      "name": "returnedArray",
      "outputs": [
        {
          "internalType": "uint256",
          "name": "",
          "type": "uint256"
        }
      ],
      "stateMutability": "view",
      "type": "function"
    },
    {
      "inputs": [],
      "name": "s_lastRequestId",
      "outputs": [
        {
          "internalType": "bytes32",
          "name": "",
          "type": "bytes32"
        }
      ],
      "stateMutability": "view",
      "type": "function"
    },
    {
      "inputs": [
        {
          "internalType": "string",
          "name": "source",
          "type": "string"
        },
        {
          "internalType": "enum FunctionsRequest.Location",
          "name": "secretsLocation",
          "type": "uint8"
        },
        {
          "internalType": "bytes",
          "name": "encryptedSecretsReference",
          "type": "bytes"
        },
        {
          "internalType": "string[]",
          "name": "args",
          "type": "string[]"
        },
        {
          "internalType": "bytes[]",
          "name": "bytesArgs",
          "type": "bytes[]"
        },
        {
          "internalType": "uint64",
          "name": "subscriptionId",
          "type": "uint64"
        },
        {
          "internalType": "uint32",
          "name": "callbackGasLimit",
          "type": "uint32"
        }
      ],
      "name": "sendRequest",
      "outputs": [],
      "stateMutability": "nonpayable",
      "type": "function"
    },
    {
      "inputs": [
        {
          "internalType": "bytes32",
          "name": "newDonId",
          "type": "bytes32"
        }
      ],
      "name": "setDonId",
      "outputs": [],
      "stateMutability": "nonpayable",
      "type": "function"
    },
    {
      "inputs": [],
      "name": "totalAds",
      "outputs": [
        {
          "internalType": "uint256",
          "name": "",
          "type": "uint256"
        }
      ],
      "stateMutability": "view",
      "type": "function"
    },
    {
      "inputs": [
        {
          "internalType": "address",
          "name": "to",
          "type": "address"
        }
      ],
      "name": "transferOwnership",
      "outputs": [],
      "stateMutability": "nonpayable",
      "type": "function"
    },
    {
      "inputs": [
        {
          "internalType": "address",
          "name": "",
          "type": "address"
        },
        {
          "internalType": "uint256",
          "name": "",
          "type": "uint256"
        }
      ],
      "name": "userAds",
      "outputs": [
        {
          "internalType": "uint256",
          "name": "totalUsers",
          "type": "uint256"
        },
        {
          "internalType": "uint256",
          "name": "usdtAmount",
          "type": "uint256"
        }
      ],
      "stateMutability": "view",
      "type": "function"
    }
  ],
  "bytecode": "0x60a06040523480156200001157600080fd5b506040516200475b3803806200475b833981810160405281019062000037919062000392565b33806000858073ffffffffffffffffffffffffffffffffffffffff1660808173ffffffffffffffffffffffffffffffffffffffff168152505050600073ffffffffffffffffffffffffffffffffffffffff168273ffffffffffffffffffffffffffffffffffffffff1603620000e3576040517f08c379a0000000000000000000000000000000000000000000000000000000008152600401620000da906200044f565b60405180910390fd5b816000806101000a81548173ffffffffffffffffffffffffffffffffffffffff021916908373ffffffffffffffffffffffffffffffffffffffff160217905550600073ffffffffffffffffffffffffffffffffffffffff168173ffffffffffffffffffffffffffffffffffffffff16146200016a576200016981620001be60201b60201c565b5b5050508160028190555080600660006101000a81548173ffffffffffffffffffffffffffffffffffffffff021916908373ffffffffffffffffffffffffffffffffffffffff160217905550505050620004e3565b3373ffffffffffffffffffffffffffffffffffffffff168173ffffffffffffffffffffffffffffffffffffffff16036200022f576040517f08c379a00000000000000000000000000000000000000000000000000000000081526004016200022690620004c1565b60405180910390fd5b80600160006101000a81548173ffffffffffffffffffffffffffffffffffffffff021916908373ffffffffffffffffffffffffffffffffffffffff1602179055508073ffffffffffffffffffffffffffffffffffffffff1660008054906101000a900473ffffffffffffffffffffffffffffffffffffffff1673ffffffffffffffffffffffffffffffffffffffff167fed8889f560326eb138920d842192f0eb3dd22b4f139c87a2c57538e05bae127860405160405180910390a350565b600080fd5b600073ffffffffffffffffffffffffffffffffffffffff82169050919050565b60006200031f82620002f2565b9050919050565b620003318162000312565b81146200033d57600080fd5b50565b600081519050620003518162000326565b92915050565b6000819050919050565b6200036c8162000357565b81146200037857600080fd5b50565b6000815190506200038c8162000361565b92915050565b600080600060608486031215620003ae57620003ad620002ed565b5b6000620003be8682870162000340565b9350506020620003d1868287016200037b565b9250506040620003e48682870162000340565b9150509250925092565b600082825260208201905092915050565b7f43616e6e6f7420736574206f776e657220746f207a65726f0000000000000000600082015250565b600062000437601883620003ee565b91506200044482620003ff565b602082019050919050565b600060208201905081810360008301526200046a8162000428565b9050919050565b7f43616e6e6f74207472616e7366657220746f2073656c66000000000000000000600082015250565b6000620004a9601783620003ee565b9150620004b68262000471565b602082019050919050565b60006020820190508181036000830152620004dc816200049a565b9050919050565b608051614255620005066000396000818161040f0152611b9f01526142556000f3fe608060405234801561001057600080fd5b50600436106101375760003560e01c80637ce9a823116100b8578063c4b161a51161007c578063c4b161a51461034d578063c54e44eb14610369578063c5557a3114610387578063f2fde38b146103a3578063f65bcfd6146103bf578063f9a99b58146103dd57610137565b80637ce9a823146102935780638da5cb5b146102c35780638dbe7b9d146102e1578063b1e21749146102ff578063bbe7df2c1461031d57610137565b80633ad02e1d116100ff5780633ad02e1d146101f15780633db08f4e146102215780636caeea7b1461025157806378ca5de71461026d57806379ba50971461028957610137565b80630ca761751461013c57806318a81ebf14610158578063231c1619146101895780632e8619f2146101a5578063379607f5146101d5575b600080fd5b61015660048036038101906101519190612856565b61040d565b005b610172600480360381019061016d9190612975565b6104cf565b6040516101809291906129c4565b60405180910390f35b6101a3600480360381019061019e9190612bf0565b610500565b005b6101bf60048036038101906101ba9190612d14565b61066b565b6040516101cc9190612d54565b60405180910390f35b6101ef60048036038101906101ea9190612d6f565b61069c565b005b61020b60048036038101906102069190612975565b610b4b565b6040516102189190612db7565b60405180910390f35b61023b60048036038101906102369190612d6f565b610b7a565b6040516102489190612de1565b60405180910390f35b61026b60048036038101906102669190612d6f565b610bad565b005b61028760048036038101906102829190612dfc565b610f12565b005b610291610f24565b005b6102ad60048036038101906102a89190612e29565b6110b9565b6040516102ba9190612de1565b60405180910390f35b6102cb611114565b6040516102d89190612de1565b60405180910390f35b6102e961113d565b6040516102f69190612e8b565b60405180910390f35b610307611143565b6040516103149190612e8b565b60405180910390f35b61033760048036038101906103329190612975565b611149565b6040516103449190612db7565b60405180910390f35b61036760048036038101906103629190612ea6565b611178565b005b6103716111d8565b60405161037e9190612f4e565b60405180910390f35b6103a1600480360381019061039c919061300a565b6111fe565b005b6103bd60048036038101906103b89190613079565b611520565b005b6103c7611534565b6040516103d49190612d54565b60405180910390f35b6103f760048036038101906103f29190612d6f565b61153a565b6040516104049190612d54565b60405180910390f35b7f000000000000000000000000000000000000000000000000000000000000000073ffffffffffffffffffffffffffffffffffffffff163373ffffffffffffffffffffffffffffffffffffffff1614610492576040517fc6829f8300000000000000000000000000000000000000000000000000000000815260040160405180910390fd5b61049d83838361155e565b827f85e1543bf2f84fe80c6badbce3648c8539ad1df4d2b3d822938ca0538be727e660405160405180910390a2505050565b6007602052816000526040600020602052806000526040600020600091509150508060000154908060010154905082565b6105086115c0565b6105106125b0565b61056c6000808e8e8080601f016020809104026020016040519081016040528093929190818152602001838380828437600081840152601f19601f8201169050808301925050505050505084611650909392919063ffffffff16565b8981602001906002811115610584576105836130a6565b5b90816002811115610598576105976130a6565b5b8152505088888080601f016020809104026020016040519081016040528093929190818152602001838380828437600081840152601f19601f8201169050808301925050505050505081608001819052506000878790501115610615576106148787906106059190613188565b826116fa90919063ffffffff16565b5b6000858590501115610641576106408585906106319190613250565b8261174290919063ffffffff16565b5b61065761064d8261178a565b8484600254611b9a565b600381905550505050505050505050505050565b600c602052816000526040600020818154811061068757600080fd5b90600052602060002001600091509150505481565b600a60003373ffffffffffffffffffffffffffffffffffffffff1673ffffffffffffffffffffffffffffffffffffffff168152602001908152602001600020600082815260200190815260200160002060009054906101000a900460ff16610739576040517f08c379a0000000000000000000000000000000000000000000000000000000008152600401610730906132e8565b60405180910390fd5b600b60003373ffffffffffffffffffffffffffffffffffffffff1673ffffffffffffffffffffffffffffffffffffffff168152602001908152602001600020600082815260200190815260200160002060009054906101000a900460ff16156107d7576040517f08c379a00000000000000000000000000000000000000000000000000000000081526004016107ce90613354565b60405180910390fd5b6000600760006009600085815260200190815260200160002060009054906101000a900473ffffffffffffffffffffffffffffffffffffffff1673ffffffffffffffffffffffffffffffffffffffff1673ffffffffffffffffffffffffffffffffffffffff16815260200190815260200160002060008381526020019081526020016000209050600080600860006009600087815260200190815260200160002060009054906101000a900473ffffffffffffffffffffffffffffffffffffffff1673ffffffffffffffffffffffffffffffffffffffff1673ffffffffffffffffffffffffffffffffffffffff168152602001908152602001600020600085815260200190815260200160002080548060200260200160405190810160405280929190818152602001828054801561096457602002820191906000526020600020905b8160009054906101000a900473ffffffffffffffffffffffffffffffffffffffff1673ffffffffffffffffffffffffffffffffffffffff168152602001906001019080831161091a575b5050505050905060005b81518110156109d9573373ffffffffffffffffffffffffffffffffffffffff168282815181106109a1576109a0613374565b5b602002602001015173ffffffffffffffffffffffffffffffffffffffff16036109cc578092506109d9565b808060010191505061096e565b506000600c60008681526020019081526020016000208381548110610a0157610a00613374565b5b906000526020600020015490506000612710828660010154610a2391906133d2565b610a2d9190613443565b905060008111610a72576040517f08c379a0000000000000000000000000000000000000000000000000000000008152600401610a69906134c0565b60405180910390fd5b6001600b60003373ffffffffffffffffffffffffffffffffffffffff1673ffffffffffffffffffffffffffffffffffffffff168152602001908152602001600020600088815260200190815260200160002060006101000a81548160ff021916908315150217905550610b08600660009054906101000a900473ffffffffffffffffffffffffffffffffffffffff163383611c7d565b7f4ec90e965519d92681267467f775ada5bd214aa92c0dc93d90a5e880ce9ed026863383604051610b3b939291906134e0565b60405180910390a1505050505050565b600b6020528160005260406000206020528060005260406000206000915091509054906101000a900460ff1681565b60096020528060005260406000206000915054906101000a900473ffffffffffffffffffffffffffffffffffffffff1681565b600454811115610bf2576040517f08c379a0000000000000000000000000000000000000000000000000000000008152600401610be990613563565b60405180910390fd5b6000600860006009600085815260200190815260200160002060009054906101000a900473ffffffffffffffffffffffffffffffffffffffff1673ffffffffffffffffffffffffffffffffffffffff1673ffffffffffffffffffffffffffffffffffffffff168152602001908152602001600020600083815260200190815260200160002090506000600760006009600086815260200190815260200160002060009054906101000a900473ffffffffffffffffffffffffffffffffffffffff1673ffffffffffffffffffffffffffffffffffffffff1673ffffffffffffffffffffffffffffffffffffffff16815260200190815260200160002060008481526020019081526020016000206040518060400160405290816000820154815260200160018201548152505090508060000151828054905010610d69576040517f08c379a0000000000000000000000000000000000000000000000000000000008152600401610d60906135cf565b60405180910390fd5b600a60003373ffffffffffffffffffffffffffffffffffffffff1673ffffffffffffffffffffffffffffffffffffffff168152602001908152602001600020600084815260200190815260200160002060009054906101000a900460ff1615610e07576040517f08c379a0000000000000000000000000000000000000000000000000000000008152600401610dfe9061363b565b60405180910390fd5b81339080600181540180825580915050600190039060005260206000200160009091909190916101000a81548173ffffffffffffffffffffffffffffffffffffffff021916908373ffffffffffffffffffffffffffffffffffffffff1602179055506001600a60003373ffffffffffffffffffffffffffffffffffffffff1673ffffffffffffffffffffffffffffffffffffffff168152602001908152602001600020600085815260200190815260200160002060006101000a81548160ff0219169083151502179055507f968b44e13aaad0a789bca6c4caaa558140a747be9a5bd316c2f5ec2dc55b2f07833384604051610f059392919061377f565b60405180910390a1505050565b610f1a6115c0565b8060028190555050565b600160009054906101000a900473ffffffffffffffffffffffffffffffffffffffff1673ffffffffffffffffffffffffffffffffffffffff163373ffffffffffffffffffffffffffffffffffffffff1614610fb4576040517f08c379a0000000000000000000000000000000000000000000000000000000008152600401610fab90613809565b60405180910390fd5b60008060009054906101000a900473ffffffffffffffffffffffffffffffffffffffff169050336000806101000a81548173ffffffffffffffffffffffffffffffffffffffff021916908373ffffffffffffffffffffffffffffffffffffffff1602179055506000600160006101000a81548173ffffffffffffffffffffffffffffffffffffffff021916908373ffffffffffffffffffffffffffffffffffffffff1602179055503373ffffffffffffffffffffffffffffffffffffffff168173ffffffffffffffffffffffffffffffffffffffff167f8be0079c531659141344cd1fd0a4f28419497f9722a3daafe3b4186f6b6457e060405160405180910390a350565b600860205282600052604060002060205281600052604060002081815481106110e157600080fd5b90600052602060002001600092509250509054906101000a900473ffffffffffffffffffffffffffffffffffffffff1681565b60008060009054906101000a900473ffffffffffffffffffffffffffffffffffffffff16905090565b60025481565b60035481565b600a6020528160005260406000206020528060005260406000206000915091509054906101000a900460ff1681565b600061118382611db3565b905080600c600083600185516111999190613829565b815181106111aa576111a9613374565b5b6020026020010151815260200190815260200160002090805190602001906111d3929190612622565b505050565b600660009054906101000a900473ffffffffffffffffffffffffffffffffffffffff1681565b81600660009054906101000a900473ffffffffffffffffffffffffffffffffffffffff1673ffffffffffffffffffffffffffffffffffffffff166370a08231336040518263ffffffff1660e01b815260040161125a9190612de1565b602060405180830381865afa158015611277573d6000803e3d6000fd5b505050506040513d601f19601f8201168201806040525081019061129b9190613872565b10156112dc576040517f08c379a00000000000000000000000000000000000000000000000000000000081526004016112d390613911565b60405180910390fd5b81600660009054906101000a900473ffffffffffffffffffffffffffffffffffffffff1673ffffffffffffffffffffffffffffffffffffffff1663dd62ed3e33306040518363ffffffff1660e01b815260040161133a929190613931565b602060405180830381865afa158015611357573d6000803e3d6000fd5b505050506040513d601f19601f8201168201806040525081019061137b9190613872565b10156113bc576040517f08c379a00000000000000000000000000000000000000000000000000000000081526004016113b3906139cc565b60405180910390fd5b600460008154809291906113cf906139ec565b91905055503360096000600454815260200190815260200160002060006101000a81548173ffffffffffffffffffffffffffffffffffffffff021916908373ffffffffffffffffffffffffffffffffffffffff1602179055506000604051806040016040528085815260200184815250905080600760003373ffffffffffffffffffffffffffffffffffffffff1673ffffffffffffffffffffffffffffffffffffffff1681526020019081526020016000206000600454815260200190815260200160002060008201518160000155602082015181600101559050506114d9600660009054906101000a900473ffffffffffffffffffffffffffffffffffffffff16333086611dd0565b7f79c7148512b58c5de2d7a0899954f3281ba62fc218c9a89f5216ecb1ac87a3de60045485853386604051611512959493929190613aa2565b60405180910390a150505050565b6115286115c0565b61153181611f09565b50565b60045481565b6005818154811061154a57600080fd5b906000526020600020016000915090505481565b600061156983611db3565b905080600c6000836001855161157f9190613829565b815181106115905761158f613374565b5b6020026020010151815260200190815260200160002090805190602001906115b9929190612622565b5050505050565b60008054906101000a900473ffffffffffffffffffffffffffffffffffffffff1673ffffffffffffffffffffffffffffffffffffffff163373ffffffffffffffffffffffffffffffffffffffff161461164e576040517f08c379a000000000000000000000000000000000000000000000000000000000815260040161164590613b48565b60405180910390fd5b565b600081510361168b576040517f22ce3edd00000000000000000000000000000000000000000000000000000000815260040160405180910390fd5b82846000019060028111156116a3576116a26130a6565b5b908160028111156116b7576116b66130a6565b5b8152505081846040019060008111156116d3576116d26130a6565b5b908160008111156116e7576116e66130a6565b5b8152505080846060018190525050505050565b6000815103611735576040517ffe936cb700000000000000000000000000000000000000000000000000000000815260040160405180910390fd5b808260a001819052505050565b600081510361177d576040517ffe936cb700000000000000000000000000000000000000000000000000000000815260040160405180910390fd5b808260c001819052505050565b60606000611799610100612035565b90506117e36040518060400160405280600c81526020017f636f64654c6f636174696f6e00000000000000000000000000000000000000008152508261205c90919063ffffffff16565b61180c836000015160028111156117fd576117fc6130a6565b5b8261208590919063ffffffff16565b6118546040518060400160405280600881526020017f6c616e67756167650000000000000000000000000000000000000000000000008152508261205c90919063ffffffff16565b61187d8360400151600081111561186e5761186d6130a6565b5b8261208590919063ffffffff16565b6118c56040518060400160405280600681526020017f736f7572636500000000000000000000000000000000000000000000000000008152508261205c90919063ffffffff16565b6118dc83606001518261205c90919063ffffffff16565b60008360a00151511115611992576119326040518060400160405280600481526020017f61726773000000000000000000000000000000000000000000000000000000008152508261205c90919063ffffffff16565b61193b816120d5565b60005b8360a00151518110156119875761197c8460a00151828151811061196557611964613374565b5b60200260200101518361205c90919063ffffffff16565b80600101905061193e565b50611991816120fd565b5b60008360800151511115611ad357600060028111156119b4576119b36130a6565b5b836020015160028111156119cb576119ca6130a6565b5b03611a02576040517fa80d31f700000000000000000000000000000000000000000000000000000000815260040160405180910390fd5b611a4a6040518060400160405280600f81526020017f736563726574734c6f636174696f6e00000000000000000000000000000000008152508261205c90919063ffffffff16565b611a7383602001516002811115611a6457611a636130a6565b5b8261208590919063ffffffff16565b611abb6040518060400160405280600781526020017f73656372657473000000000000000000000000000000000000000000000000008152508261205c90919063ffffffff16565b611ad283608001518261212590919063ffffffff16565b5b60008360c00151511115611b8957611b296040518060400160405280600981526020017f62797465734172677300000000000000000000000000000000000000000000008152508261205c90919063ffffffff16565b611b32816120d5565b60005b8360c0015151811015611b7e57611b738460c001518281518110611b5c57611b5b613374565b5b60200260200101518361212590919063ffffffff16565b806001019050611b35565b50611b88816120fd565b5b806000015160000151915050919050565b6000807f000000000000000000000000000000000000000000000000000000000000000073ffffffffffffffffffffffffffffffffffffffff1663461d27628688600188886040518663ffffffff1660e01b8152600401611bff959493929190613bf8565b6020604051808303816000875af1158015611c1e573d6000803e3d6000fd5b505050506040513d601f19601f82011682018060405250810190611c429190613c67565b9050807f1131472297a800fee664d1d89cfa8f7676ff07189ecc53f80bbb5f4969099db860405160405180910390a280915050949350505050565b6000808473ffffffffffffffffffffffffffffffffffffffff1663a9059cbb8585604051602401611caf929190613c94565b6040516020818303038152906040529060e01b6020820180517bffffffffffffffffffffffffffffffffffffffffffffffffffffffff8381831617835250505050604051611cfd9190613cf9565b6000604051808303816000865af19150503d8060008114611d3a576040519150601f19603f3d011682016040523d82523d6000602084013e611d3f565b606091505b5091509150818015611d6d5750600081511480611d6c575080806020019051810190611d6b9190613d3c565b5b5b611dac576040517f08c379a0000000000000000000000000000000000000000000000000000000008152600401611da390613ddb565b60405180910390fd5b5050505050565b606081806020019051810190611dc99190613ebe565b9050919050565b6000808573ffffffffffffffffffffffffffffffffffffffff166323b872dd868686604051602401611e0493929190613f07565b6040516020818303038152906040529060e01b6020820180517bffffffffffffffffffffffffffffffffffffffffffffffffffffffff8381831617835250505050604051611e529190613cf9565b6000604051808303816000865af19150503d8060008114611e8f576040519150601f19603f3d011682016040523d82523d6000602084013e611e94565b606091505b5091509150818015611ec25750600081511480611ec1575080806020019051810190611ec09190613d3c565b5b5b611f01576040517f08c379a0000000000000000000000000000000000000000000000000000000008152600401611ef890613fb0565b60405180910390fd5b505050505050565b3373ffffffffffffffffffffffffffffffffffffffff168173ffffffffffffffffffffffffffffffffffffffff1603611f77576040517f08c379a0000000000000000000000000000000000000000000000000000000008152600401611f6e9061401c565b60405180910390fd5b80600160006101000a81548173ffffffffffffffffffffffffffffffffffffffff021916908373ffffffffffffffffffffffffffffffffffffffff1602179055508073ffffffffffffffffffffffffffffffffffffffff1660008054906101000a900473ffffffffffffffffffffffffffffffffffffffff1673ffffffffffffffffffffffffffffffffffffffff167fed8889f560326eb138920d842192f0eb3dd22b4f139c87a2c57538e05bae127860405160405180910390a350565b61203d61266f565b61204b81600001518361214e565b506000816020018181525050919050565b61206982600383516121c7565b61208081836000015161237090919063ffffffff16565b505050565b6120a760026005600660ff16901b17836000015161238c90919063ffffffff16565b506120d182826040516020016120bd9190612d54565b604051602081830303815290604052612125565b5050565b6120e08160046123f6565b6001816020018181516120f3919061403c565b9150818152505050565b6121088160076123f6565b60018160200181815161211b9190613829565b9150818152505050565b61213282600283516121c7565b61214981836000015161237090919063ffffffff16565b505050565b61215661268f565b60006020836121659190614070565b14612191576020826121779190614070565b60206121839190613829565b8261218e919061403c565b91505b8183602001818152505060405180845260008152828101602001818110156121b857600080fd5b80604052505082905092915050565b60178167ffffffffffffffff1611612202576121fc8160058460ff16901b60ff1617846000015161238c90919063ffffffff16565b5061236b565b60ff8167ffffffffffffffff161161226057612235601860058460ff16901b17846000015161238c90919063ffffffff16565b5061225a8167ffffffffffffffff166001856000015161241c9092919063ffffffff16565b5061236a565b61ffff8167ffffffffffffffff16116122bf57612294601960058460ff16901b17846000015161238c90919063ffffffff16565b506122b98167ffffffffffffffff166002856000015161241c9092919063ffffffff16565b50612369565b63ffffffff8167ffffffffffffffff1611612320576122f5601a60058460ff16901b17846000015161238c90919063ffffffff16565b5061231a8167ffffffffffffffff166004856000015161241c9092919063ffffffff16565b50612368565b612341601b60058460ff16901b17846000015161238c90919063ffffffff16565b506123668167ffffffffffffffff166008856000015161241c9092919063ffffffff16565b505b5b5b5b505050565b61237861268f565b612384838384516124a9565b905092915050565b61239461268f565b6000836000015151905060006001826123ad919061403c565b9050846020015182106123d1576123d0856002836123cb91906133d2565b61258c565b5b845160208382010185815381518311156123e9578282525b5050849250505092915050565b612417601f60058360ff16901b17836000015161238c90919063ffffffff16565b505050565b61242461268f565b600084600001515190506000818461243c919061403c565b90508560200151811115612461576124608660028361245b91906133d2565b61258c565b5b600060018561010061247391906141d4565b61247d9190613829565b90508651828101878319825116178152815184111561249a578382525b50508693505050509392505050565b6124b161268f565b82518211156124bf57600080fd5b60008460000151519050600083826124d7919061403c565b905085602001518111156124fc576124fb866002836124f691906133d2565b61258c565b5b60008087518051856020830101935080851115612517578482525b60208901925050505b6020861061255e5780518252602082612539919061403c565b9150602081612548919061403c565b90506020866125579190613829565b9550612520565b60006001876020036101000a0390508019825116818451168181178552505050879450505050509392505050565b60008260000151905061259f838361214e565b506125aa8382612370565b50505050565b6040518060e00160405280600060028111156125cf576125ce6130a6565b5b8152602001600060028111156125e8576125e76130a6565b5b8152602001600080811115612600576125ff6130a6565b5b8152602001606081526020016060815260200160608152602001606081525090565b82805482825590600052602060002090810192821561265e579160200282015b8281111561265d578251825591602001919060010190612642565b5b50905061266b91906126a9565b5090565b604051806040016040528061268261268f565b8152602001600081525090565b604051806040016040528060608152602001600081525090565b5b808211156126c25760008160009055506001016126aa565b5090565b6000604051905090565b600080fd5b600080fd5b6000819050919050565b6126ed816126da565b81146126f857600080fd5b50565b60008135905061270a816126e4565b92915050565b600080fd5b600080fd5b6000601f19601f8301169050919050565b7f4e487b7100000000000000000000000000000000000000000000000000000000600052604160045260246000fd5b6127638261271a565b810181811067ffffffffffffffff821117156127825761278161272b565b5b80604052505050565b60006127956126c6565b90506127a1828261275a565b919050565b600067ffffffffffffffff8211156127c1576127c061272b565b5b6127ca8261271a565b9050602081019050919050565b82818337600083830152505050565b60006127f96127f4846127a6565b61278b565b90508281526020810184848401111561281557612814612715565b5b6128208482856127d7565b509392505050565b600082601f83011261283d5761283c612710565b5b813561284d8482602086016127e6565b91505092915050565b60008060006060848603121561286f5761286e6126d0565b5b600061287d868287016126fb565b935050602084013567ffffffffffffffff81111561289e5761289d6126d5565b5b6128aa86828701612828565b925050604084013567ffffffffffffffff8111156128cb576128ca6126d5565b5b6128d786828701612828565b9150509250925092565b600073ffffffffffffffffffffffffffffffffffffffff82169050919050565b600061290c826128e1565b9050919050565b61291c81612901565b811461292757600080fd5b50565b60008135905061293981612913565b92915050565b6000819050919050565b6129528161293f565b811461295d57600080fd5b50565b60008135905061296f81612949565b92915050565b6000806040838503121561298c5761298b6126d0565b5b600061299a8582860161292a565b92505060206129ab85828601612960565b9150509250929050565b6129be8161293f565b82525050565b60006040820190506129d960008301856129b5565b6129e660208301846129b5565b9392505050565b600080fd5b600080fd5b60008083601f840112612a0d57612a0c612710565b5b8235905067ffffffffffffffff811115612a2a57612a296129ed565b5b602083019150836001820283011115612a4657612a456129f2565b5b9250929050565b60038110612a5a57600080fd5b50565b600081359050612a6c81612a4d565b92915050565b60008083601f840112612a8857612a87612710565b5b8235905067ffffffffffffffff811115612aa557612aa46129ed565b5b602083019150836001820283011115612ac157612ac06129f2565b5b9250929050565b60008083601f840112612ade57612add612710565b5b8235905067ffffffffffffffff811115612afb57612afa6129ed565b5b602083019150836020820283011115612b1757612b166129f2565b5b9250929050565b60008083601f840112612b3457612b33612710565b5b8235905067ffffffffffffffff811115612b5157612b506129ed565b5b602083019150836020820283011115612b6d57612b6c6129f2565b5b9250929050565b600067ffffffffffffffff82169050919050565b612b9181612b74565b8114612b9c57600080fd5b50565b600081359050612bae81612b88565b92915050565b600063ffffffff82169050919050565b612bcd81612bb4565b8114612bd857600080fd5b50565b600081359050612bea81612bc4565b92915050565b600080600080600080600080600080600060e08c8e031215612c1557612c146126d0565b5b60008c013567ffffffffffffffff811115612c3357612c326126d5565b5b612c3f8e828f016129f7565b9b509b50506020612c528e828f01612a5d565b99505060408c013567ffffffffffffffff811115612c7357612c726126d5565b5b612c7f8e828f01612a72565b985098505060608c013567ffffffffffffffff811115612ca257612ca16126d5565b5b612cae8e828f01612ac8565b965096505060808c013567ffffffffffffffff811115612cd157612cd06126d5565b5b612cdd8e828f01612b1e565b945094505060a0612cf08e828f01612b9f565b92505060c0612d018e828f01612bdb565b9150509295989b509295989b9093969950565b60008060408385031215612d2b57612d2a6126d0565b5b6000612d3985828601612960565b9250506020612d4a85828601612960565b9150509250929050565b6000602082019050612d6960008301846129b5565b92915050565b600060208284031215612d8557612d846126d0565b5b6000612d9384828501612960565b91505092915050565b60008115159050919050565b612db181612d9c565b82525050565b6000602082019050612dcc6000830184612da8565b92915050565b612ddb81612901565b82525050565b6000602082019050612df66000830184612dd2565b92915050565b600060208284031215612e1257612e116126d0565b5b6000612e20848285016126fb565b91505092915050565b600080600060608486031215612e4257612e416126d0565b5b6000612e508682870161292a565b9350506020612e6186828701612960565b9250506040612e7286828701612960565b9150509250925092565b612e85816126da565b82525050565b6000602082019050612ea06000830184612e7c565b92915050565b600060208284031215612ebc57612ebb6126d0565b5b600082013567ffffffffffffffff811115612eda57612ed96126d5565b5b612ee684828501612828565b91505092915050565b6000819050919050565b6000612f14612f0f612f0a846128e1565b612eef565b6128e1565b9050919050565b6000612f2682612ef9565b9050919050565b6000612f3882612f1b565b9050919050565b612f4881612f2d565b82525050565b6000602082019050612f636000830184612f3f565b92915050565b600067ffffffffffffffff821115612f8457612f8361272b565b5b612f8d8261271a565b9050602081019050919050565b6000612fad612fa884612f69565b61278b565b905082815260208101848484011115612fc957612fc8612715565b5b612fd48482856127d7565b509392505050565b600082601f830112612ff157612ff0612710565b5b8135613001848260208601612f9a565b91505092915050565b600080600060608486031215613023576130226126d0565b5b600061303186828701612960565b935050602061304286828701612960565b925050604084013567ffffffffffffffff811115613063576130626126d5565b5b61306f86828701612fdc565b9150509250925092565b60006020828403121561308f5761308e6126d0565b5b600061309d8482850161292a565b91505092915050565b7f4e487b7100000000000000000000000000000000000000000000000000000000600052602160045260246000fd5b600067ffffffffffffffff8211156130f0576130ef61272b565b5b602082029050602081019050919050565b600061311461310f846130d5565b61278b565b90508083825260208201905060208402830185811115613137576131366129f2565b5b835b8181101561317e57803567ffffffffffffffff81111561315c5761315b612710565b5b8086016131698982612fdc565b85526020850194505050602081019050613139565b5050509392505050565b6000613195368484613101565b905092915050565b600067ffffffffffffffff8211156131b8576131b761272b565b5b602082029050602081019050919050565b60006131dc6131d78461319d565b61278b565b905080838252602082019050602084028301858111156131ff576131fe6129f2565b5b835b8181101561324657803567ffffffffffffffff81111561322457613223612710565b5b8086016132318982612828565b85526020850194505050602081019050613201565b5050509392505050565b600061325d3684846131c9565b905092915050565b600082825260208201905092915050565b7f496e666c75656e636572206973206e6f74206170706c696361626c6520746f2060008201527f636c61696d000000000000000000000000000000000000000000000000000000602082015250565b60006132d2602583613265565b91506132dd82613276565b604082019050919050565b60006020820190508181036000830152613301816132c5565b9050919050565b7f416c726561647920436c61696d65640000000000000000000000000000000000600082015250565b600061333e600f83613265565b915061334982613308565b602082019050919050565b6000602082019050818103600083015261336d81613331565b9050919050565b7f4e487b7100000000000000000000000000000000000000000000000000000000600052603260045260246000fd5b7f4e487b7100000000000000000000000000000000000000000000000000000000600052601160045260246000fd5b60006133dd8261293f565b91506133e88361293f565b92508282026133f68161293f565b9150828204841483151761340d5761340c6133a3565b5b5092915050565b7f4e487b7100000000000000000000000000000000000000000000000000000000600052601260045260246000fd5b600061344e8261293f565b91506134598361293f565b92508261346957613468613414565b5b828204905092915050565b7f53686172652073686f756c642062652067726561746572207468616e20300000600082015250565b60006134aa601e83613265565b91506134b582613474565b602082019050919050565b600060208201905081810360008301526134d98161349d565b9050919050565b60006060820190506134f560008301866129b5565b6135026020830185612dd2565b61350f60408301846129b5565b949350505050565b7f496e76616c696420616449640000000000000000000000000000000000000000600082015250565b600061354d600c83613265565b915061355882613517565b602082019050919050565b6000602082019050818103600083015261357c81613540565b9050919050565b7f41642069732066756c6c00000000000000000000000000000000000000000000600082015250565b60006135b9600a83613265565b91506135c482613583565b602082019050919050565b600060208201905081810360008301526135e8816135ac565b9050919050565b7f496e666c75656e63657220616c72656164792061636365707465640000000000600082015250565b6000613625601b83613265565b9150613630826135ef565b602082019050919050565b6000602082019050818103600083015261365481613618565b9050919050565b600081549050919050565b600082825260208201905092915050565b60008190508160005260206000209050919050565b61369581612901565b82525050565b60006136a7838361368c565b60208301905092915050565b60008160001c9050919050565b600073ffffffffffffffffffffffffffffffffffffffff82169050919050565b60006136f36136ee836136b3565b6136c0565b9050919050565b600061370682546136e0565b9050919050565b6000600182019050919050565b60006137258261365b565b61372f8185613666565b935061373a83613677565b8060005b838110156137725761374f826136fa565b613759888261369b565b97506137648361370d565b92505060018101905061373e565b5085935050505092915050565b600060608201905061379460008301866129b5565b6137a16020830185612dd2565b81810360408301526137b3818461371a565b9050949350505050565b7f4d7573742062652070726f706f736564206f776e657200000000000000000000600082015250565b60006137f3601683613265565b91506137fe826137bd565b602082019050919050565b60006020820190508181036000830152613822816137e6565b9050919050565b60006138348261293f565b915061383f8361293f565b9250828203905081811115613857576138566133a3565b5b92915050565b60008151905061386c81612949565b92915050565b600060208284031215613888576138876126d0565b5b60006138968482850161385d565b91505092915050565b7f5573657220646f65736e2774206861766520656e6f7567682062616c616e636560008201527f2e00000000000000000000000000000000000000000000000000000000000000602082015250565b60006138fb602183613265565b91506139068261389f565b604082019050919050565b6000602082019050818103600083015261392a816138ee565b9050919050565b60006040820190506139466000830185612dd2565b6139536020830184612dd2565b9392505050565b7f5573657220646f65736e2774206861766520656e6f75676820616c6c6f77616e60008201527f63652e0000000000000000000000000000000000000000000000000000000000602082015250565b60006139b6602383613265565b91506139c18261395a565b604082019050919050565b600060208201905081810360008301526139e5816139a9565b9050919050565b60006139f78261293f565b91507fffffffffffffffffffffffffffffffffffffffffffffffffffffffffffffffff8203613a2957613a286133a3565b5b600182019050919050565b600081519050919050565b60005b83811015613a5d578082015181840152602081019050613a42565b60008484015250505050565b6000613a7482613a34565b613a7e8185613265565b9350613a8e818560208601613a3f565b613a978161271a565b840191505092915050565b600060a082019050613ab760008301886129b5565b613ac460208301876129b5565b613ad160408301866129b5565b613ade6060830185612dd2565b8181036080830152613af08184613a69565b90509695505050505050565b7f4f6e6c792063616c6c61626c65206279206f776e657200000000000000000000600082015250565b6000613b32601683613265565b9150613b3d82613afc565b602082019050919050565b60006020820190508181036000830152613b6181613b25565b9050919050565b613b7181612b74565b82525050565b600081519050919050565b600082825260208201905092915050565b6000613b9e82613b77565b613ba88185613b82565b9350613bb8818560208601613a3f565b613bc18161271a565b840191505092915050565b600061ffff82169050919050565b613be381613bcc565b82525050565b613bf281612bb4565b82525050565b600060a082019050613c0d6000830188613b68565b8181036020830152613c1f8187613b93565b9050613c2e6040830186613bda565b613c3b6060830185613be9565b613c486080830184612e7c565b9695505050505050565b600081519050613c61816126e4565b92915050565b600060208284031215613c7d57613c7c6126d0565b5b6000613c8b84828501613c52565b91505092915050565b6000604082019050613ca96000830185612dd2565b613cb660208301846129b5565b9392505050565b600081905092915050565b6000613cd382613b77565b613cdd8185613cbd565b9350613ced818560208601613a3f565b80840191505092915050565b6000613d058284613cc8565b915081905092915050565b613d1981612d9c565b8114613d2457600080fd5b50565b600081519050613d3681613d10565b92915050565b600060208284031215613d5257613d516126d0565b5b6000613d6084828501613d27565b91505092915050565b7f5472616e7366657248656c7065723a3a736166655472616e736665723a20747260008201527f616e73666572206661696c656400000000000000000000000000000000000000602082015250565b6000613dc5602d83613265565b9150613dd082613d69565b604082019050919050565b60006020820190508181036000830152613df481613db8565b9050919050565b600067ffffffffffffffff821115613e1657613e1561272b565b5b602082029050602081019050919050565b6000613e3a613e3584613dfb565b61278b565b90508083825260208201905060208402830185811115613e5d57613e5c6129f2565b5b835b81811015613e865780613e72888261385d565b845260208401935050602081019050613e5f565b5050509392505050565b600082601f830112613ea557613ea4612710565b5b8151613eb5848260208601613e27565b91505092915050565b600060208284031215613ed457613ed36126d0565b5b600082015167ffffffffffffffff811115613ef257613ef16126d5565b5b613efe84828501613e90565b91505092915050565b6000606082019050613f1c6000830186612dd2565b613f296020830185612dd2565b613f3660408301846129b5565b949350505050565b7f5472616e7366657248656c7065723a3a7472616e7366657246726f6d3a20747260008201527f616e7366657246726f6d206661696c6564000000000000000000000000000000602082015250565b6000613f9a603183613265565b9150613fa582613f3e565b604082019050919050565b60006020820190508181036000830152613fc981613f8d565b9050919050565b7f43616e6e6f74207472616e7366657220746f2073656c66000000000000000000600082015250565b6000614006601783613265565b915061401182613fd0565b602082019050919050565b6000602082019050818103600083015261403581613ff9565b9050919050565b60006140478261293f565b91506140528361293f565b925082820190508082111561406a576140696133a3565b5b92915050565b600061407b8261293f565b91506140868361293f565b92508261409657614095613414565b5b828206905092915050565b60008160011c9050919050565b6000808291508390505b60018511156140f8578086048111156140d4576140d36133a3565b5b60018516156140e35780820291505b80810290506140f1856140a1565b94506140b8565b94509492505050565b60008261411157600190506141cd565b8161411f57600090506141cd565b8160018114614135576002811461413f5761416e565b60019150506141cd565b60ff841115614151576141506133a3565b5b8360020a915084821115614168576141676133a3565b5b506141cd565b5060208310610133831016604e8410600b84101617156141a35782820a90508381111561419e5761419d6133a3565b5b6141cd565b6141b084848460016140ae565b925090508184048111156141c7576141c66133a3565b5b81810290505b9392505050565b60006141df8261293f565b91506141ea8361293f565b92506142177fffffffffffffffffffffffffffffffffffffffffffffffffffffffffffffffff8484614101565b90509291505056fea2646970667358221220f1987bd2ffe4d1aa10b19e2fd0ddfc9270242c1cd287208b9277c088fb8c0a6e64736f6c63430008180033",
  "linkReferences": {},
  "deployedLinkReferences": {}
}