{
  "_format": "hh-sol-artifact-1",
  "contractName": "Womdo",
  "sourceName": "contracts/Womdo.sol",
  "abi": [
    {
      "inputs": [
        {
          "internalType": "address",
          "name": "router",
          "type": "address"
        },
        {
          "internalType": "bytes32",
          "name": "_donId",
          "type": "bytes32"
        }
      ],
      "stateMutability": "nonpayable",
      "type": "constructor"
    },
    {
      "inputs": [],
      "name": "EmptySource",
      "type": "error"
    },
    {
      "inputs": [],
      "name": "NoInlineSecrets",
      "type": "error"
    },
    {
      "inputs": [],
      "name": "OnlyRouterCanFulfill",
      "type": "error"
    },
    {
      "anonymous": false,
      "inputs": [
        {
          "indexed": false,
          "internalType": "uint256",
          "name": "adId",
          "type": "uint256"
        },
        {
          "indexed": false,
          "internalType": "address",
          "name": "influencer",
          "type": "address"
        },
        {
          "indexed": false,
          "internalType": "address[]",
          "name": "acceptedUserAddress",
          "type": "address[]"
        }
      ],
      "name": "AdAccepted",
      "type": "event"
    },
    {
      "anonymous": false,
      "inputs": [
        {
          "indexed": false,
          "internalType": "uint256",
          "name": "adId",
          "type": "uint256"
        },
        {
          "indexed": false,
          "internalType": "uint256",
          "name": "totalUsers",
          "type": "uint256"
        },
        {
          "indexed": false,
          "internalType": "uint256",
          "name": "usdtAmount",
          "type": "uint256"
        },
        {
          "indexed": false,
          "internalType": "address",
          "name": "brand",
          "type": "address"
        }
      ],
      "name": "AdRegistered",
      "type": "event"
    },
    {
      "anonymous": false,
      "inputs": [
        {
          "indexed": true,
          "internalType": "address",
          "name": "from",
          "type": "address"
        },
        {
          "indexed": true,
          "internalType": "address",
          "name": "to",
          "type": "address"
        }
      ],
      "name": "OwnershipTransferRequested",
      "type": "event"
    },
    {
      "anonymous": false,
      "inputs": [
        {
          "indexed": true,
          "internalType": "address",
          "name": "from",
          "type": "address"
        },
        {
          "indexed": true,
          "internalType": "address",
          "name": "to",
          "type": "address"
        }
      ],
      "name": "OwnershipTransferred",
      "type": "event"
    },
    {
      "anonymous": false,
      "inputs": [
        {
          "indexed": true,
          "internalType": "bytes32",
          "name": "id",
          "type": "bytes32"
        }
      ],
      "name": "RequestFulfilled",
      "type": "event"
    },
    {
      "anonymous": false,
      "inputs": [
        {
          "indexed": true,
          "internalType": "bytes32",
          "name": "id",
          "type": "bytes32"
        }
      ],
      "name": "RequestSent",
      "type": "event"
    },
    {
      "inputs": [],
      "name": "USDT",
      "outputs": [
        {
          "internalType": "contract IERC20Metadata",
          "name": "",
          "type": "address"
        }
      ],
      "stateMutability": "view",
      "type": "function"
    },
    {
      "inputs": [
        {
          "internalType": "uint256",
          "name": "_adId",
          "type": "uint256"
        }
      ],
      "name": "acceptAd",
      "outputs": [],
      "stateMutability": "nonpayable",
      "type": "function"
    },
    {
      "inputs": [],
      "name": "acceptOwnership",
      "outputs": [],
      "stateMutability": "nonpayable",
      "type": "function"
    },
    {
      "inputs": [
        {
          "internalType": "uint256",
          "name": "",
          "type": "uint256"
        }
      ],
      "name": "adOwner",
      "outputs": [
        {
          "internalType": "address",
          "name": "",
          "type": "address"
        }
      ],
      "stateMutability": "view",
      "type": "function"
    },
    {
      "inputs": [
        {
          "internalType": "bytes",
          "name": "b",
          "type": "bytes"
        }
      ],
      "name": "bytesToArray",
      "outputs": [
        {
          "internalType": "uint256[]",
          "name": "",
          "type": "uint256[]"
        }
      ],
      "stateMutability": "pure",
      "type": "function"
    },
    {
      "inputs": [
        {
          "internalType": "uint256",
          "name": "_adId",
          "type": "uint256"
        }
      ],
      "name": "claim",
      "outputs": [],
      "stateMutability": "nonpayable",
      "type": "function"
    },
    {
      "inputs": [
        {
          "internalType": "bytes",
          "name": "data",
          "type": "bytes"
        }
      ],
      "name": "decodeUint",
      "outputs": [
        {
          "internalType": "uint256",
          "name": "",
          "type": "uint256"
        }
      ],
      "stateMutability": "pure",
      "type": "function"
    },
    {
      "inputs": [],
      "name": "donId",
      "outputs": [
        {
          "internalType": "bytes32",
          "name": "",
          "type": "bytes32"
        }
      ],
      "stateMutability": "view",
      "type": "function"
    },
    {
      "inputs": [
        {
          "internalType": "uint256",
          "name": "_id",
          "type": "uint256"
        }
      ],
      "name": "getArray",
      "outputs": [
        {
          "internalType": "uint256[]",
          "name": "",
          "type": "uint256[]"
        }
      ],
      "stateMutability": "view",
      "type": "function"
    },
    {
      "inputs": [
        {
          "internalType": "bytes32",
          "name": "requestId",
          "type": "bytes32"
        },
        {
          "internalType": "bytes",
          "name": "response",
          "type": "bytes"
        },
        {
          "internalType": "bytes",
          "name": "err",
          "type": "bytes"
        }
      ],
      "name": "handleOracleFulfillment",
      "outputs": [],
      "stateMutability": "nonpayable",
      "type": "function"
    },
    {
      "inputs": [
        {
          "internalType": "uint256",
          "name": "",
          "type": "uint256"
        },
        {
          "internalType": "uint256",
          "name": "",
          "type": "uint256"
        }
      ],
      "name": "influencerShare",
      "outputs": [
        {
          "internalType": "uint256",
          "name": "",
          "type": "uint256"
        }
      ],
      "stateMutability": "view",
      "type": "function"
    },
    {
      "inputs": [
        {
          "internalType": "address",
          "name": "",
          "type": "address"
        },
        {
          "internalType": "uint256",
          "name": "",
          "type": "uint256"
        }
      ],
      "name": "isInfluencerAccepted",
      "outputs": [
        {
          "internalType": "bool",
          "name": "",
          "type": "bool"
        }
      ],
      "stateMutability": "view",
      "type": "function"
    },
    {
      "inputs": [],
      "name": "owner",
      "outputs": [
        {
          "internalType": "address",
          "name": "",
          "type": "address"
        }
      ],
      "stateMutability": "view",
      "type": "function"
    },
    {
      "inputs": [
        {
          "internalType": "uint256",
          "name": "_users",
          "type": "uint256"
        },
        {
          "internalType": "uint256",
          "name": "_usdtAmount",
          "type": "uint256"
        }
      ],
      "name": "registerAd",
      "outputs": [],
      "stateMutability": "nonpayable",
      "type": "function"
    },
    {
      "inputs": [],
      "name": "s_lastError",
      "outputs": [
        {
          "internalType": "bytes",
          "name": "",
          "type": "bytes"
        }
      ],
      "stateMutability": "view",
      "type": "function"
    },
    {
      "inputs": [],
      "name": "s_lastRequestId",
      "outputs": [
        {
          "internalType": "bytes32",
          "name": "",
          "type": "bytes32"
        }
      ],
      "stateMutability": "view",
      "type": "function"
    },
    {
      "inputs": [],
      "name": "s_lastResponse",
      "outputs": [
        {
          "internalType": "bytes",
          "name": "",
          "type": "bytes"
        }
      ],
      "stateMutability": "view",
      "type": "function"
    },
    {
      "inputs": [
        {
          "internalType": "string",
          "name": "source",
          "type": "string"
        },
        {
          "internalType": "enum FunctionsRequest.Location",
          "name": "secretsLocation",
          "type": "uint8"
        },
        {
          "internalType": "bytes",
          "name": "encryptedSecretsReference",
          "type": "bytes"
        },
        {
          "internalType": "string[]",
          "name": "args",
          "type": "string[]"
        },
        {
          "internalType": "bytes[]",
          "name": "bytesArgs",
          "type": "bytes[]"
        },
        {
          "internalType": "uint64",
          "name": "subscriptionId",
          "type": "uint64"
        },
        {
          "internalType": "uint32",
          "name": "callbackGasLimit",
          "type": "uint32"
        }
      ],
      "name": "sendRequest",
      "outputs": [],
      "stateMutability": "nonpayable",
      "type": "function"
    },
    {
      "inputs": [
        {
          "internalType": "bytes32",
          "name": "newDonId",
          "type": "bytes32"
        }
      ],
      "name": "setDonId",
      "outputs": [],
      "stateMutability": "nonpayable",
      "type": "function"
    },
    {
      "inputs": [],
      "name": "totalAds",
      "outputs": [
        {
          "internalType": "uint256",
          "name": "",
          "type": "uint256"
        }
      ],
      "stateMutability": "view",
      "type": "function"
    },
    {
      "inputs": [
        {
          "internalType": "address",
          "name": "to",
          "type": "address"
        }
      ],
      "name": "transferOwnership",
      "outputs": [],
      "stateMutability": "nonpayable",
      "type": "function"
    },
    {
      "inputs": [
        {
          "internalType": "address",
          "name": "",
          "type": "address"
        },
        {
          "internalType": "uint256",
          "name": "",
          "type": "uint256"
        }
      ],
      "name": "userAds",
      "outputs": [
        {
          "internalType": "uint256",
          "name": "totalUsers",
          "type": "uint256"
        },
        {
          "internalType": "uint256",
          "name": "usdtAmount",
          "type": "uint256"
        }
      ],
      "stateMutability": "view",
      "type": "function"
    }
  ],
  "bytecode": "0x60a060405261dead600760006101000a81548173ffffffffffffffffffffffffffffffffffffffff021916908373ffffffffffffffffffffffffffffffffffffffff1602179055503480156200005457600080fd5b50604051620044d1380380620044d183398181016040528101906200007a919062000393565b33806000848073ffffffffffffffffffffffffffffffffffffffff1660808173ffffffffffffffffffffffffffffffffffffffff168152505050600073ffffffffffffffffffffffffffffffffffffffff168273ffffffffffffffffffffffffffffffffffffffff160362000126576040517f08c379a00000000000000000000000000000000000000000000000000000000081526004016200011d906200043b565b60405180910390fd5b816000806101000a81548173ffffffffffffffffffffffffffffffffffffffff021916908373ffffffffffffffffffffffffffffffffffffffff160217905550600073ffffffffffffffffffffffffffffffffffffffff168173ffffffffffffffffffffffffffffffffffffffff1614620001ad57620001ac81620001bf60201b60201c565b5b505050806002819055505050620004cf565b3373ffffffffffffffffffffffffffffffffffffffff168173ffffffffffffffffffffffffffffffffffffffff160362000230576040517f08c379a00000000000000000000000000000000000000000000000000000000081526004016200022790620004ad565b60405180910390fd5b80600160006101000a81548173ffffffffffffffffffffffffffffffffffffffff021916908373ffffffffffffffffffffffffffffffffffffffff1602179055508073ffffffffffffffffffffffffffffffffffffffff1660008054906101000a900473ffffffffffffffffffffffffffffffffffffffff1673ffffffffffffffffffffffffffffffffffffffff167fed8889f560326eb138920d842192f0eb3dd22b4f139c87a2c57538e05bae127860405160405180910390a350565b600080fd5b600073ffffffffffffffffffffffffffffffffffffffff82169050919050565b60006200032082620002f3565b9050919050565b620003328162000313565b81146200033e57600080fd5b50565b600081519050620003528162000327565b92915050565b6000819050919050565b6200036d8162000358565b81146200037957600080fd5b50565b6000815190506200038d8162000362565b92915050565b60008060408385031215620003ad57620003ac620002ee565b5b6000620003bd8582860162000341565b9250506020620003d0858286016200037c565b9150509250929050565b600082825260208201905092915050565b7f43616e6e6f7420736574206f776e657220746f207a65726f0000000000000000600082015250565b600062000423601883620003da565b91506200043082620003eb565b602082019050919050565b60006020820190508181036000830152620004568162000414565b9050919050565b7f43616e6e6f74207472616e7366657220746f2073656c66000000000000000000600082015250565b600062000495601783620003da565b9150620004a2826200045d565b602082019050919050565b60006020820190508181036000830152620004c88162000486565b9050919050565b608051613fdf620004f26000396000818161043a01526119ad0152613fdf6000f3fe608060405234801561001057600080fd5b50600436106101425760003560e01c806378ca5de7116100b8578063ab35ec631161007c578063ab35ec6314610362578063b1e2174914610392578063bbe7df2c146103b0578063c54e44eb146103e0578063f2fde38b146103fe578063f65bcfd61461041a57610142565b806378ca5de7146102e457806379ba5097146103005780638da5cb5b1461030a5780638dbe7b9d1461032857806394c512521461034657610142565b80633944ea3a1161010a5780633944ea3a146101fc5780633db08f4e1461021a5780634b0795a81461024a5780636ba343ed146102685780636caeea7b146102985780636ff24701146102b457610142565b80630ca761751461014757806318a81ebf14610163578063231c1619146101945780632e8619f2146101b0578063379607f5146101e0575b600080fd5b610161600480360381019061015c91906126d1565b610438565b005b61017d600480360381019061017891906127f0565b6104fa565b60405161018b92919061283f565b60405180910390f35b6101ae60048036038101906101a99190612a6b565b61052b565b005b6101ca60048036038101906101c59190612b8f565b61063e565b6040516101d79190612bcf565b60405180910390f35b6101fa60048036038101906101f59190612bea565b61066f565b005b6102046108cc565b6040516102119190612c96565b60405180910390f35b610234600480360381019061022f9190612bea565b61095a565b6040516102419190612cc7565b60405180910390f35b61025261098d565b60405161025f9190612c96565b60405180910390f35b610282600480360381019061027d9190612ce2565b610a1b565b60405161028f9190612de9565b60405180910390f35b6102b260048036038101906102ad9190612bea565b610b9d565b005b6102ce60048036038101906102c99190612ce2565b610d34565b6040516102db9190612bcf565b60405180910390f35b6102fe60048036038101906102f99190612e0b565b610d51565b005b610308610d63565b005b610312610ef8565b60405161031f9190612cc7565b60405180910390f35b610330610f21565b60405161033d9190612e47565b60405180910390f35b610360600480360381019061035b9190612b8f565b610f27565b005b61037c60048036038101906103779190612bea565b61131c565b6040516103899190612de9565b60405180910390f35b61039a611387565b6040516103a79190612e47565b60405180910390f35b6103ca60048036038101906103c591906127f0565b61138d565b6040516103d79190612e7d565b60405180910390f35b6103e86113bc565b6040516103f59190612ef7565b60405180910390f35b61041860048036038101906104139190612f12565b6113e2565b005b6104226113f6565b60405161042f9190612bcf565b60405180910390f35b7f000000000000000000000000000000000000000000000000000000000000000073ffffffffffffffffffffffffffffffffffffffff163373ffffffffffffffffffffffffffffffffffffffff16146104bd576040517fc6829f8300000000000000000000000000000000000000000000000000000000815260040160405180910390fd5b6104c88383836113fc565b827f85e1543bf2f84fe80c6badbce3648c8539ad1df4d2b3d822938ca0538be727e660405160405180910390a2505050565b6008602052816000526040600020602052806000526040600020600091509150508060000154908060010154905082565b61053361145e565b61053b6123a1565b6105976000808e8e8080601f016020809104026020016040519081016040528093929190818152602001838380828437600081840152601f19601f82011690508083019250505050505050846114ee909392919063ffffffff16565b89816020019060028111156105af576105ae612f3f565b5b908160028111156105c3576105c2612f3f565b5b8152505088888080601f016020809104026020016040519081016040528093929190818152602001838380828437600081840152601f19601f82011690508083019250505050505050816080018190525061062a61062082611598565b84846002546119a8565b600381905550505050505050505050505050565b600b602052816000526040600020818154811061065a57600080fd5b90600052602060002001600091509150505481565b600a60003373ffffffffffffffffffffffffffffffffffffffff1673ffffffffffffffffffffffffffffffffffffffff168152602001908152602001600020600082815260200190815260200160002060009054906101000a900460ff1661070c576040517f08c379a000000000000000000000000000000000000000000000000000000000815260040161070390612ff1565b60405180910390fd5b6000600860006009600085815260200190815260200160002060009054906101000a900473ffffffffffffffffffffffffffffffffffffffff1673ffffffffffffffffffffffffffffffffffffffff1673ffffffffffffffffffffffffffffffffffffffff16815260200190815260200160002060008381526020019081526020016000209050600080600090505b8260020180549050811015610832573373ffffffffffffffffffffffffffffffffffffffff168360020182815481106107d7576107d6613011565b5b9060005260206000200160009054906101000a900473ffffffffffffffffffffffffffffffffffffffff1673ffffffffffffffffffffffffffffffffffffffff160361082557809150610832565b808060010191505061079b565b50600080612710828560010154610849919061306f565b61085391906130e0565b905060008111610898576040517f08c379a000000000000000000000000000000000000000000000000000000000815260040161088f9061315d565b60405180910390fd5b6108c5600760009054906101000a900473ffffffffffffffffffffffffffffffffffffffff163383611a8b565b5050505050565b600480546108d9906131ac565b80601f0160208091040260200160405190810160405280929190818152602001828054610905906131ac565b80156109525780601f1061092757610100808354040283529160200191610952565b820191906000526020600020905b81548152906001019060200180831161093557829003601f168201915b505050505081565b60096020528060005260406000206000915054906101000a900473ffffffffffffffffffffffffffffffffffffffff1681565b6005805461099a906131ac565b80601f01602080910402602001604051908101604052809291908181526020018280546109c6906131ac565b8015610a135780601f106109e857610100808354040283529160200191610a13565b820191906000526020600020905b8154815290600101906020018083116109f657829003601f168201915b505050505081565b6060600060208351610a2d91906131dd565b14610a6d576040517f08c379a0000000000000000000000000000000000000000000000000000000008152600401610a649061325a565b60405180910390fd5b600060208351610a7d91906130e0565b67ffffffffffffffff811115610a9657610a956125a6565b5b604051908082528060200260200182016040528015610ac45781602001602082028036833780820191505090505b50905060005b8151811015610b9357600080600090505b6020811015610b6157600881610af1919061306f565b60ff60f81b8783602087610b05919061306f565b610b0f919061327a565b81518110610b2057610b1f613011565b5b602001015160f81c60f81b167effffffffffffffffffffffffffffffffffffffffffffffffffffffffffffff1916901c821791508080600101915050610adb565b508060001c838381518110610b7957610b78613011565b5b602002602001018181525050508080600101915050610aca565b5080915050919050565b6000600860006009600085815260200190815260200160002060009054906101000a900473ffffffffffffffffffffffffffffffffffffffff1673ffffffffffffffffffffffffffffffffffffffff1673ffffffffffffffffffffffffffffffffffffffff1681526020019081526020016000206000838152602001908152602001600020905080600201339080600181540180825580915050600190039060005260206000200160009091909190916101000a81548173ffffffffffffffffffffffffffffffffffffffff021916908373ffffffffffffffffffffffffffffffffffffffff1602179055506001600a60003373ffffffffffffffffffffffffffffffffffffffff1673ffffffffffffffffffffffffffffffffffffffff168152602001908152602001600020600084815260200190815260200160002060006101000a81548160ff0219169083151502179055507f968b44e13aaad0a789bca6c4caaa558140a747be9a5bd316c2f5ec2dc55b2f07823383600201604051610d28939291906133d2565b60405180910390a15050565b600081806020019051810190610d4a9190613425565b9050919050565b610d5961145e565b8060028190555050565b600160009054906101000a900473ffffffffffffffffffffffffffffffffffffffff1673ffffffffffffffffffffffffffffffffffffffff163373ffffffffffffffffffffffffffffffffffffffff1614610df3576040517f08c379a0000000000000000000000000000000000000000000000000000000008152600401610dea9061349e565b60405180910390fd5b60008060009054906101000a900473ffffffffffffffffffffffffffffffffffffffff169050336000806101000a81548173ffffffffffffffffffffffffffffffffffffffff021916908373ffffffffffffffffffffffffffffffffffffffff1602179055506000600160006101000a81548173ffffffffffffffffffffffffffffffffffffffff021916908373ffffffffffffffffffffffffffffffffffffffff1602179055503373ffffffffffffffffffffffffffffffffffffffff168173ffffffffffffffffffffffffffffffffffffffff167f8be0079c531659141344cd1fd0a4f28419497f9722a3daafe3b4186f6b6457e060405160405180910390a350565b60008060009054906101000a900473ffffffffffffffffffffffffffffffffffffffff16905090565b60025481565b80600760009054906101000a900473ffffffffffffffffffffffffffffffffffffffff1673ffffffffffffffffffffffffffffffffffffffff166370a08231336040518263ffffffff1660e01b8152600401610f839190612cc7565b602060405180830381865afa158015610fa0573d6000803e3d6000fd5b505050506040513d601f19601f82011682018060405250810190610fc49190613425565b1015611005576040517f08c379a0000000000000000000000000000000000000000000000000000000008152600401610ffc90613530565b60405180910390fd5b80600760009054906101000a900473ffffffffffffffffffffffffffffffffffffffff1673ffffffffffffffffffffffffffffffffffffffff1663dd62ed3e33306040518363ffffffff1660e01b8152600401611063929190613550565b602060405180830381865afa158015611080573d6000803e3d6000fd5b505050506040513d601f19601f820116820180604052508101906110a49190613425565b10156110e5576040517f08c379a00000000000000000000000000000000000000000000000000000000081526004016110dc906135eb565b60405180910390fd5b600660008154809291906110f89061360b565b91905055503360096000600654815260200190815260200160002060006101000a81548173ffffffffffffffffffffffffffffffffffffffff021916908373ffffffffffffffffffffffffffffffffffffffff160217905550600060405180608001604052808481526020018381526020018467ffffffffffffffff811115611184576111836125a6565b5b6040519080825280602002602001820160405280156111b25781602001602082028036833780820191505090505b5081526020018467ffffffffffffffff8111156111d2576111d16125a6565b5b6040519080825280602002602001820160405280156112005781602001602082028036833780820191505090505b50815250905080600860003373ffffffffffffffffffffffffffffffffffffffff1673ffffffffffffffffffffffffffffffffffffffff1681526020019081526020016000206000600654815260200190815260200160002060008201518160000155602082015181600101556040820151816002019080519060200190611289929190612413565b5060608201518160030190805190602001906112a692919061249d565b509050506112d8600760009054906101000a900473ffffffffffffffffffffffffffffffffffffffff16333085611bc1565b7fef5725849c0cd61503bcde538e99f7917082f0f20a055e235f175c478d3dbaa760065484843360405161130f9493929190613653565b60405180910390a1505050565b6060600b600083815260200190815260200160002080548060200260200160405190810160405280929190818152602001828054801561137b57602002820191906000526020600020905b815481526020019060010190808311611367575b50505050509050919050565b60035481565b600a6020528160005260406000206020528060005260406000206000915091509054906101000a900460ff1681565b600760009054906101000a900473ffffffffffffffffffffffffffffffffffffffff1681565b6113ea61145e565b6113f381611cfa565b50565b60065481565b806005908161140b919061383a565b506000825111156114595760008280602001905181019061142c91906139cf565b905080600b600060018152602001908152602001600020908051906020019061145692919061249d565b50505b505050565b60008054906101000a900473ffffffffffffffffffffffffffffffffffffffff1673ffffffffffffffffffffffffffffffffffffffff163373ffffffffffffffffffffffffffffffffffffffff16146114ec576040517f08c379a00000000000000000000000000000000000000000000000000000000081526004016114e390613a64565b60405180910390fd5b565b6000815103611529576040517f22ce3edd00000000000000000000000000000000000000000000000000000000815260040160405180910390fd5b828460000190600281111561154157611540612f3f565b5b9081600281111561155557611554612f3f565b5b81525050818460400190600081111561157157611570612f3f565b5b9081600081111561158557611584612f3f565b5b8152505080846060018190525050505050565b606060006115a7610100611e26565b90506115f16040518060400160405280600c81526020017f636f64654c6f636174696f6e000000000000000000000000000000000000000081525082611e4d90919063ffffffff16565b61161a8360000151600281111561160b5761160a612f3f565b5b82611e7690919063ffffffff16565b6116626040518060400160405280600881526020017f6c616e677561676500000000000000000000000000000000000000000000000081525082611e4d90919063ffffffff16565b61168b8360400151600081111561167c5761167b612f3f565b5b82611e7690919063ffffffff16565b6116d36040518060400160405280600681526020017f736f75726365000000000000000000000000000000000000000000000000000081525082611e4d90919063ffffffff16565b6116ea836060015182611e4d90919063ffffffff16565b60008360a001515111156117a0576117406040518060400160405280600481526020017f617267730000000000000000000000000000000000000000000000000000000081525082611e4d90919063ffffffff16565b61174981611ec6565b60005b8360a00151518110156117955761178a8460a00151828151811061177357611772613011565b5b602002602001015183611e4d90919063ffffffff16565b80600101905061174c565b5061179f81611eee565b5b600083608001515111156118e157600060028111156117c2576117c1612f3f565b5b836020015160028111156117d9576117d8612f3f565b5b03611810576040517fa80d31f700000000000000000000000000000000000000000000000000000000815260040160405180910390fd5b6118586040518060400160405280600f81526020017f736563726574734c6f636174696f6e000000000000000000000000000000000081525082611e4d90919063ffffffff16565b6118818360200151600281111561187257611871612f3f565b5b82611e7690919063ffffffff16565b6118c96040518060400160405280600781526020017f736563726574730000000000000000000000000000000000000000000000000081525082611e4d90919063ffffffff16565b6118e0836080015182611f1690919063ffffffff16565b5b60008360c00151511115611997576119376040518060400160405280600981526020017f627974657341726773000000000000000000000000000000000000000000000081525082611e4d90919063ffffffff16565b61194081611ec6565b60005b8360c001515181101561198c576119818460c00151828151811061196a57611969613011565b5b602002602001015183611f1690919063ffffffff16565b806001019050611943565b5061199681611eee565b5b806000015160000151915050919050565b6000807f000000000000000000000000000000000000000000000000000000000000000073ffffffffffffffffffffffffffffffffffffffff1663461d27628688600188886040518663ffffffff1660e01b8152600401611a0d959493929190613abf565b6020604051808303816000875af1158015611a2c573d6000803e3d6000fd5b505050506040513d601f19601f82011682018060405250810190611a509190613b2e565b9050807f1131472297a800fee664d1d89cfa8f7676ff07189ecc53f80bbb5f4969099db860405160405180910390a280915050949350505050565b6000808473ffffffffffffffffffffffffffffffffffffffff1663a9059cbb8585604051602401611abd929190613b5b565b6040516020818303038152906040529060e01b6020820180517bffffffffffffffffffffffffffffffffffffffffffffffffffffffff8381831617835250505050604051611b0b9190613bc0565b6000604051808303816000865af19150503d8060008114611b48576040519150601f19603f3d011682016040523d82523d6000602084013e611b4d565b606091505b5091509150818015611b7b5750600081511480611b7a575080806020019051810190611b799190613c03565b5b5b611bba576040517f08c379a0000000000000000000000000000000000000000000000000000000008152600401611bb190613ca2565b60405180910390fd5b5050505050565b6000808573ffffffffffffffffffffffffffffffffffffffff166323b872dd868686604051602401611bf593929190613cc2565b6040516020818303038152906040529060e01b6020820180517bffffffffffffffffffffffffffffffffffffffffffffffffffffffff8381831617835250505050604051611c439190613bc0565b6000604051808303816000865af19150503d8060008114611c80576040519150601f19603f3d011682016040523d82523d6000602084013e611c85565b606091505b5091509150818015611cb35750600081511480611cb2575080806020019051810190611cb19190613c03565b5b5b611cf2576040517f08c379a0000000000000000000000000000000000000000000000000000000008152600401611ce990613d6b565b60405180910390fd5b505050505050565b3373ffffffffffffffffffffffffffffffffffffffff168173ffffffffffffffffffffffffffffffffffffffff1603611d68576040517f08c379a0000000000000000000000000000000000000000000000000000000008152600401611d5f90613dd7565b60405180910390fd5b80600160006101000a81548173ffffffffffffffffffffffffffffffffffffffff021916908373ffffffffffffffffffffffffffffffffffffffff1602179055508073ffffffffffffffffffffffffffffffffffffffff1660008054906101000a900473ffffffffffffffffffffffffffffffffffffffff1673ffffffffffffffffffffffffffffffffffffffff167fed8889f560326eb138920d842192f0eb3dd22b4f139c87a2c57538e05bae127860405160405180910390a350565b611e2e6124ea565b611e3c816000015183611f3f565b506000816020018181525050919050565b611e5a8260038351611fb8565b611e7181836000015161216190919063ffffffff16565b505050565b611e9860026005600660ff16901b17836000015161217d90919063ffffffff16565b50611ec28282604051602001611eae9190612bcf565b604051602081830303815290604052611f16565b5050565b611ed18160046121e7565b600181602001818151611ee4919061327a565b9150818152505050565b611ef98160076121e7565b600181602001818151611f0c9190613df7565b9150818152505050565b611f238260028351611fb8565b611f3a81836000015161216190919063ffffffff16565b505050565b611f4761250a565b6000602083611f5691906131dd565b14611f8257602082611f6891906131dd565b6020611f749190613df7565b82611f7f919061327a565b91505b818360200181815250506040518084526000815282810160200181811015611fa957600080fd5b80604052505082905092915050565b60178167ffffffffffffffff1611611ff357611fed8160058460ff16901b60ff1617846000015161217d90919063ffffffff16565b5061215c565b60ff8167ffffffffffffffff161161205157612026601860058460ff16901b17846000015161217d90919063ffffffff16565b5061204b8167ffffffffffffffff166001856000015161220d9092919063ffffffff16565b5061215b565b61ffff8167ffffffffffffffff16116120b057612085601960058460ff16901b17846000015161217d90919063ffffffff16565b506120aa8167ffffffffffffffff166002856000015161220d9092919063ffffffff16565b5061215a565b63ffffffff8167ffffffffffffffff1611612111576120e6601a60058460ff16901b17846000015161217d90919063ffffffff16565b5061210b8167ffffffffffffffff166004856000015161220d9092919063ffffffff16565b50612159565b612132601b60058460ff16901b17846000015161217d90919063ffffffff16565b506121578167ffffffffffffffff166008856000015161220d9092919063ffffffff16565b505b5b5b5b505050565b61216961250a565b6121758383845161229a565b905092915050565b61218561250a565b60008360000151519050600060018261219e919061327a565b9050846020015182106121c2576121c1856002836121bc919061306f565b61237d565b5b845160208382010185815381518311156121da578282525b5050849250505092915050565b612208601f60058360ff16901b17836000015161217d90919063ffffffff16565b505050565b61221561250a565b600084600001515190506000818461222d919061327a565b90508560200151811115612252576122518660028361224c919061306f565b61237d565b5b60006001856101006122649190613f5e565b61226e9190613df7565b90508651828101878319825116178152815184111561228b578382525b50508693505050509392505050565b6122a261250a565b82518211156122b057600080fd5b60008460000151519050600083826122c8919061327a565b905085602001518111156122ed576122ec866002836122e7919061306f565b61237d565b5b60008087518051856020830101935080851115612308578482525b60208901925050505b6020861061234f578051825260208261232a919061327a565b9150602081612339919061327a565b90506020866123489190613df7565b9550612311565b60006001876020036101000a0390508019825116818451168181178552505050879450505050509392505050565b6000826000015190506123908383611f3f565b5061239b8382612161565b50505050565b6040518060e00160405280600060028111156123c0576123bf612f3f565b5b8152602001600060028111156123d9576123d8612f3f565b5b81526020016000808111156123f1576123f0612f3f565b5b8152602001606081526020016060815260200160608152602001606081525090565b82805482825590600052602060002090810192821561248c579160200282015b8281111561248b5782518260006101000a81548173ffffffffffffffffffffffffffffffffffffffff021916908373ffffffffffffffffffffffffffffffffffffffff16021790555091602001919060010190612433565b5b5090506124999190612524565b5090565b8280548282559060005260206000209081019282156124d9579160200282015b828111156124d85782518255916020019190600101906124bd565b5b5090506124e69190612524565b5090565b60405180604001604052806124fd61250a565b8152602001600081525090565b604051806040016040528060608152602001600081525090565b5b8082111561253d576000816000905550600101612525565b5090565b6000604051905090565b600080fd5b600080fd5b6000819050919050565b61256881612555565b811461257357600080fd5b50565b6000813590506125858161255f565b92915050565b600080fd5b600080fd5b6000601f19601f8301169050919050565b7f4e487b7100000000000000000000000000000000000000000000000000000000600052604160045260246000fd5b6125de82612595565b810181811067ffffffffffffffff821117156125fd576125fc6125a6565b5b80604052505050565b6000612610612541565b905061261c82826125d5565b919050565b600067ffffffffffffffff82111561263c5761263b6125a6565b5b61264582612595565b9050602081019050919050565b82818337600083830152505050565b600061267461266f84612621565b612606565b9050828152602081018484840111156126905761268f612590565b5b61269b848285612652565b509392505050565b600082601f8301126126b8576126b761258b565b5b81356126c8848260208601612661565b91505092915050565b6000806000606084860312156126ea576126e961254b565b5b60006126f886828701612576565b935050602084013567ffffffffffffffff81111561271957612718612550565b5b612725868287016126a3565b925050604084013567ffffffffffffffff81111561274657612745612550565b5b612752868287016126a3565b9150509250925092565b600073ffffffffffffffffffffffffffffffffffffffff82169050919050565b60006127878261275c565b9050919050565b6127978161277c565b81146127a257600080fd5b50565b6000813590506127b48161278e565b92915050565b6000819050919050565b6127cd816127ba565b81146127d857600080fd5b50565b6000813590506127ea816127c4565b92915050565b600080604083850312156128075761280661254b565b5b6000612815858286016127a5565b9250506020612826858286016127db565b9150509250929050565b612839816127ba565b82525050565b60006040820190506128546000830185612830565b6128616020830184612830565b9392505050565b600080fd5b600080fd5b60008083601f8401126128885761288761258b565b5b8235905067ffffffffffffffff8111156128a5576128a4612868565b5b6020830191508360018202830111156128c1576128c061286d565b5b9250929050565b600381106128d557600080fd5b50565b6000813590506128e7816128c8565b92915050565b60008083601f8401126129035761290261258b565b5b8235905067ffffffffffffffff8111156129205761291f612868565b5b60208301915083600182028301111561293c5761293b61286d565b5b9250929050565b60008083601f8401126129595761295861258b565b5b8235905067ffffffffffffffff81111561297657612975612868565b5b6020830191508360208202830111156129925761299161286d565b5b9250929050565b60008083601f8401126129af576129ae61258b565b5b8235905067ffffffffffffffff8111156129cc576129cb612868565b5b6020830191508360208202830111156129e8576129e761286d565b5b9250929050565b600067ffffffffffffffff82169050919050565b612a0c816129ef565b8114612a1757600080fd5b50565b600081359050612a2981612a03565b92915050565b600063ffffffff82169050919050565b612a4881612a2f565b8114612a5357600080fd5b50565b600081359050612a6581612a3f565b92915050565b600080600080600080600080600080600060e08c8e031215612a9057612a8f61254b565b5b60008c013567ffffffffffffffff811115612aae57612aad612550565b5b612aba8e828f01612872565b9b509b50506020612acd8e828f016128d8565b99505060408c013567ffffffffffffffff811115612aee57612aed612550565b5b612afa8e828f016128ed565b985098505060608c013567ffffffffffffffff811115612b1d57612b1c612550565b5b612b298e828f01612943565b965096505060808c013567ffffffffffffffff811115612b4c57612b4b612550565b5b612b588e828f01612999565b945094505060a0612b6b8e828f01612a1a565b92505060c0612b7c8e828f01612a56565b9150509295989b509295989b9093969950565b60008060408385031215612ba657612ba561254b565b5b6000612bb4858286016127db565b9250506020612bc5858286016127db565b9150509250929050565b6000602082019050612be46000830184612830565b92915050565b600060208284031215612c0057612bff61254b565b5b6000612c0e848285016127db565b91505092915050565b600081519050919050565b600082825260208201905092915050565b60005b83811015612c51578082015181840152602081019050612c36565b60008484015250505050565b6000612c6882612c17565b612c728185612c22565b9350612c82818560208601612c33565b612c8b81612595565b840191505092915050565b60006020820190508181036000830152612cb08184612c5d565b905092915050565b612cc18161277c565b82525050565b6000602082019050612cdc6000830184612cb8565b92915050565b600060208284031215612cf857612cf761254b565b5b600082013567ffffffffffffffff811115612d1657612d15612550565b5b612d22848285016126a3565b91505092915050565b600081519050919050565b600082825260208201905092915050565b6000819050602082019050919050565b612d60816127ba565b82525050565b6000612d728383612d57565b60208301905092915050565b6000602082019050919050565b6000612d9682612d2b565b612da08185612d36565b9350612dab83612d47565b8060005b83811015612ddc578151612dc38882612d66565b9750612dce83612d7e565b925050600181019050612daf565b5085935050505092915050565b60006020820190508181036000830152612e038184612d8b565b905092915050565b600060208284031215612e2157612e2061254b565b5b6000612e2f84828501612576565b91505092915050565b612e4181612555565b82525050565b6000602082019050612e5c6000830184612e38565b92915050565b60008115159050919050565b612e7781612e62565b82525050565b6000602082019050612e926000830184612e6e565b92915050565b6000819050919050565b6000612ebd612eb8612eb38461275c565b612e98565b61275c565b9050919050565b6000612ecf82612ea2565b9050919050565b6000612ee182612ec4565b9050919050565b612ef181612ed6565b82525050565b6000602082019050612f0c6000830184612ee8565b92915050565b600060208284031215612f2857612f2761254b565b5b6000612f36848285016127a5565b91505092915050565b7f4e487b7100000000000000000000000000000000000000000000000000000000600052602160045260246000fd5b600082825260208201905092915050565b7f496e666c75656e636572206973206e6f74206170706c696361626c6520746f2060008201527f636c61696d000000000000000000000000000000000000000000000000000000602082015250565b6000612fdb602583612f6e565b9150612fe682612f7f565b604082019050919050565b6000602082019050818103600083015261300a81612fce565b9050919050565b7f4e487b7100000000000000000000000000000000000000000000000000000000600052603260045260246000fd5b7f4e487b7100000000000000000000000000000000000000000000000000000000600052601160045260246000fd5b600061307a826127ba565b9150613085836127ba565b9250828202613093816127ba565b915082820484148315176130aa576130a9613040565b5b5092915050565b7f4e487b7100000000000000000000000000000000000000000000000000000000600052601260045260246000fd5b60006130eb826127ba565b91506130f6836127ba565b925082613106576131056130b1565b5b828204905092915050565b7f53686172652073686f756c642062652067726561746572207468616e20300000600082015250565b6000613147601e83612f6e565b915061315282613111565b602082019050919050565b600060208201905081810360008301526131768161313a565b9050919050565b7f4e487b7100000000000000000000000000000000000000000000000000000000600052602260045260246000fd5b600060028204905060018216806131c457607f821691505b6020821081036131d7576131d661317d565b5b50919050565b60006131e8826127ba565b91506131f3836127ba565b925082613203576132026130b1565b5b828206905092915050565b7f496e76616c6964206279746573206c656e677468000000000000000000000000600082015250565b6000613244601483612f6e565b915061324f8261320e565b602082019050919050565b6000602082019050818103600083015261327381613237565b9050919050565b6000613285826127ba565b9150613290836127ba565b92508282019050808211156132a8576132a7613040565b5b92915050565b600081549050919050565b600082825260208201905092915050565b60008190508160005260206000209050919050565b6132e88161277c565b82525050565b60006132fa83836132df565b60208301905092915050565b60008160001c9050919050565b600073ffffffffffffffffffffffffffffffffffffffff82169050919050565b600061334661334183613306565b613313565b9050919050565b60006133598254613333565b9050919050565b6000600182019050919050565b6000613378826132ae565b61338281856132b9565b935061338d836132ca565b8060005b838110156133c5576133a28261334d565b6133ac88826132ee565b97506133b783613360565b925050600181019050613391565b5085935050505092915050565b60006060820190506133e76000830186612830565b6133f46020830185612cb8565b8181036040830152613406818461336d565b9050949350505050565b60008151905061341f816127c4565b92915050565b60006020828403121561343b5761343a61254b565b5b600061344984828501613410565b91505092915050565b7f4d7573742062652070726f706f736564206f776e657200000000000000000000600082015250565b6000613488601683612f6e565b915061349382613452565b602082019050919050565b600060208201905081810360008301526134b78161347b565b9050919050565b7f5573657220646f65736e2774206861766520656e6f7567682062616c616e636560008201527f2e00000000000000000000000000000000000000000000000000000000000000602082015250565b600061351a602183612f6e565b9150613525826134be565b604082019050919050565b600060208201905081810360008301526135498161350d565b9050919050565b60006040820190506135656000830185612cb8565b6135726020830184612cb8565b9392505050565b7f5573657220646f65736e2774206861766520656e6f75676820616c6c6f77616e60008201527f63652e0000000000000000000000000000000000000000000000000000000000602082015250565b60006135d5602383612f6e565b91506135e082613579565b604082019050919050565b60006020820190508181036000830152613604816135c8565b9050919050565b6000613616826127ba565b91507fffffffffffffffffffffffffffffffffffffffffffffffffffffffffffffffff820361364857613647613040565b5b600182019050919050565b60006080820190506136686000830187612830565b6136756020830186612830565b6136826040830185612830565b61368f6060830184612cb8565b95945050505050565b60008190508160005260206000209050919050565b60006020601f8301049050919050565b600082821b905092915050565b6000600883026136fa7fffffffffffffffffffffffffffffffffffffffffffffffffffffffffffffffff826136bd565b61370486836136bd565b95508019841693508086168417925050509392505050565b600061373761373261372d846127ba565b612e98565b6127ba565b9050919050565b6000819050919050565b6137518361371c565b61376561375d8261373e565b8484546136ca565b825550505050565b600090565b61377a61376d565b613785818484613748565b505050565b5b818110156137a95761379e600082613772565b60018101905061378b565b5050565b601f8211156137ee576137bf81613698565b6137c8846136ad565b810160208510156137d7578190505b6137eb6137e3856136ad565b83018261378a565b50505b505050565b600082821c905092915050565b6000613811600019846008026137f3565b1980831691505092915050565b600061382a8383613800565b9150826002028217905092915050565b61384382612c17565b67ffffffffffffffff81111561385c5761385b6125a6565b5b61386682546131ac565b6138718282856137ad565b600060209050601f8311600181146138a45760008415613892578287015190505b61389c858261381e565b865550613904565b601f1984166138b286613698565b60005b828110156138da578489015182556001820191506020850194506020810190506138b5565b868310156138f757848901516138f3601f891682613800565b8355505b6001600288020188555050505b505050505050565b600067ffffffffffffffff821115613927576139266125a6565b5b602082029050602081019050919050565b600061394b6139468461390c565b612606565b9050808382526020820190506020840283018581111561396e5761396d61286d565b5b835b8181101561399757806139838882613410565b845260208401935050602081019050613970565b5050509392505050565b600082601f8301126139b6576139b561258b565b5b81516139c6848260208601613938565b91505092915050565b6000602082840312156139e5576139e461254b565b5b600082015167ffffffffffffffff811115613a0357613a02612550565b5b613a0f848285016139a1565b91505092915050565b7f4f6e6c792063616c6c61626c65206279206f776e657200000000000000000000600082015250565b6000613a4e601683612f6e565b9150613a5982613a18565b602082019050919050565b60006020820190508181036000830152613a7d81613a41565b9050919050565b613a8d816129ef565b82525050565b600061ffff82169050919050565b613aaa81613a93565b82525050565b613ab981612a2f565b82525050565b600060a082019050613ad46000830188613a84565b8181036020830152613ae68187612c5d565b9050613af56040830186613aa1565b613b026060830185613ab0565b613b0f6080830184612e38565b9695505050505050565b600081519050613b288161255f565b92915050565b600060208284031215613b4457613b4361254b565b5b6000613b5284828501613b19565b91505092915050565b6000604082019050613b706000830185612cb8565b613b7d6020830184612830565b9392505050565b600081905092915050565b6000613b9a82612c17565b613ba48185613b84565b9350613bb4818560208601612c33565b80840191505092915050565b6000613bcc8284613b8f565b915081905092915050565b613be081612e62565b8114613beb57600080fd5b50565b600081519050613bfd81613bd7565b92915050565b600060208284031215613c1957613c1861254b565b5b6000613c2784828501613bee565b91505092915050565b7f5472616e7366657248656c7065723a3a736166655472616e736665723a20747260008201527f616e73666572206661696c656400000000000000000000000000000000000000602082015250565b6000613c8c602d83612f6e565b9150613c9782613c30565b604082019050919050565b60006020820190508181036000830152613cbb81613c7f565b9050919050565b6000606082019050613cd76000830186612cb8565b613ce46020830185612cb8565b613cf16040830184612830565b949350505050565b7f5472616e7366657248656c7065723a3a7472616e7366657246726f6d3a20747260008201527f616e7366657246726f6d206661696c6564000000000000000000000000000000602082015250565b6000613d55603183612f6e565b9150613d6082613cf9565b604082019050919050565b60006020820190508181036000830152613d8481613d48565b9050919050565b7f43616e6e6f74207472616e7366657220746f2073656c66000000000000000000600082015250565b6000613dc1601783612f6e565b9150613dcc82613d8b565b602082019050919050565b60006020820190508181036000830152613df081613db4565b9050919050565b6000613e02826127ba565b9150613e0d836127ba565b9250828203905081811115613e2557613e24613040565b5b92915050565b60008160011c9050919050565b6000808291508390505b6001851115613e8257808604811115613e5e57613e5d613040565b5b6001851615613e6d5780820291505b8081029050613e7b85613e2b565b9450613e42565b94509492505050565b600082613e9b5760019050613f57565b81613ea95760009050613f57565b8160018114613ebf5760028114613ec957613ef8565b6001915050613f57565b60ff841115613edb57613eda613040565b5b8360020a915084821115613ef257613ef1613040565b5b50613f57565b5060208310610133831016604e8410600b8410161715613f2d5782820a905083811115613f2857613f27613040565b5b613f57565b613f3a8484846001613e38565b92509050818404811115613f5157613f50613040565b5b81810290505b9392505050565b6000613f69826127ba565b9150613f74836127ba565b9250613fa17fffffffffffffffffffffffffffffffffffffffffffffffffffffffffffffffff8484613e8b565b90509291505056fea264697066735822122029f5cabb59d7fb8f8cbbdb295761e90f1fc948ddd0091cb00a149f6e49a0c18064736f6c63430008180033",
  "linkReferences": {},
  "deployedLinkReferences": {}
}